:020000040000FA
:100000000C9468030C9490030C9490030C9490034C
:100010000C9490030C9490030C9490030C94900314
:100020000C9490030C9490030C942D140C949C1439
:100030000C9490030C9490030C9490030C949003F4
:100040000C9490030C9490030C9490030C949003E4
:100050000C9490030C9490030C9490030C94CE1683
:100060000C9490030C9490030C9490030C949003C4
:100070000C9490030C9490030C9490030C949003B4
:100080000C9490030C9490030C9490030C949003A4
:100090000C9418170C9490030C9490030C949003F8
:1000A0000C9490030C9490030C94900300000000B7
:1000B000003E5B4F5B3E3E6B4F6B3E1C3E7C3E1CEE
:1000C000183C7E3C181C577D571C1C5E7F5E1C0034
:1000D000183C1800FFE7C3E7FF0018241800FFE7EB
:1000E000DBE7FF30483A060E2629792926407F05AE
:1000F0000507407F05253F5A3CE73C5A7F3E1C1CC4
:1001000008081C1C3E7F14227F22145F5F005F5F83
:1001100006097F017F006689956A6060606060946F
:10012000A2FFA29408047E040810207E2010080874
:100130002A1C08081C2A08081E101010100C1E0C7F
:100140001E0C30383E3830060E3E0E060000000011
:100150000000005F00000007000700147F147F14F8
:10016000242A7F2A1223130864623649562050003D
:1001700008070300001C2241000041221C002A1C29
:100180007F1C2A08083E0808008070300008080814
:100190000808000060600020100804023E51494534
:1001A0003E00427F400072494949462141494D3352
:1001B0001814127F1027454545393C4A49493141B9
:1001C000211109073649494936464949291E000087
:1001D00014000000403400000008142241141414DC
:1001E0001414004122140802015909063E415D59C8
:1001F0004E7C1211127C7F494949363E41414122D1
:100200007F4141413E7F494949417F090909013EFA
:10021000414151737F0808087F00417F4100204021
:10022000413F017F081422417F404040407F021C33
:10023000027F7F0408107F3E4141413E7F0909094A
:10024000063E4151215E7F09192946264949493216
:1002500003017F01033F4040403F1F2040201F3FDC
:100260004038403F63140814630304780403615961
:10027000494D43007F4141410204081020004141A3
:10028000417F04020102044040404040000307084F
:100290000020545478407F2844443838444444284B
:1002A000384444287F385454541800087E090218F2
:1002B000A4A49C787F0804047800447D400020407A
:1002C000403D007F1028440000417F40007C0478BE
:1002D00004787C080404783844444438FC18242406
:1002E0001818242418FC7C08040408485454542486
:1002F00004043F44243C4040207C1C2040201C3C03
:100300004030403C44281028444C9090907C4464F9
:10031000544C44000836410000007700000041368C
:10032000080002010204023C2623263C1EA1A16112
:10033000123A4040207A3854545559215555794144
:100340002254547842215554784020545579400C19
:100350001E527212395555555939545454593955FC
:100360005454580000457C410002457D420001453F
:100370007C407D1211127DF0282528F07C545545D3
:10038000002054547C547C0A097F4932494949323F
:100390003A4444443A324A4848303A4141217A3A50
:1003A00042402078009DA0A07D3D4242423D3D401C
:1003B00040403D3C24FF2424487E4943662B2FFCCB
:1003C0002F2BFF0929F620C0887E09032054547979
:1003D000410000447D413048484A32384040227A4A
:1003E000007A0A0A727D0D19317D2629292F2826C7
:1003F0002929292630484D402038080808080808CF
:100400000808382F10C8ACBA2F102834FA00007B27
:10041000000008142A142222142A1408550055003A
:1004200055AA55AA55AAFF55FF55FF000000FF0029
:10043000101010FF00141414FF001010FF00FF1024
:1004400010F010F0141414FC001414F700FF000056
:10045000FF00FF1414F404FC141417101F10101FD5
:10046000101F1414141F00101010F0000000001FC3
:10047000101010101F10101010F010000000FF10CE
:100480001010101010101010FF10000000FF1400CA
:1004900000FF00FF00001F10170000FC04F41414FC
:1004A0001710171414F404F40000FF00F7141414C8
:1004B00014141414F700F7141414171410101F1048
:1004C0001F141414F4141010F010F000001F101F6B
:1004D0000000001F14000000FC140000F010F010D9
:1004E00010FF10FF141414FF141010101F00000050
:1004F00000F010FFFFFFFFFFF0F0F0F0F0FFFFFF54
:100500000000000000FFFF0F0F0F0F0F38444438AA
:1005100044FC4A4A4A347E02020606027E027E02F9
:1005200063554941633844443C04407E201E200604
:10053000027E020299A5E7A5991C2A492A1C4C7241
:1005400001724C304A4D4D303048784830BC625AC8
:10055000463D3E494949007E0101017E2A2A2A2A58
:100560002A44445F444440514A444040444A514034
:100570000000FF0103E080FF000008086B6B0836F5
:1005800012362436060F090F060000181800000066
:100590001010003040FF0101001F01011E00191D55
:1005A0001712003C3C3C3C00000000000001030727
:1005B0000F1F3F7F0080C0E0F0F8FCFE000000024B
:1005C00000090F0000030401000C000000000000FF
:1005D00000000000000000000000080B0002020202
:1005E00000000904000001020200000524001001BF
:1005F0000524010101042402060524060001070563
:10060000810310004009040100020A0000000705F0
:1006100002024000000705830240000004030904B1
:1006200012010002EF0201404F1B0692000101027D
:100630000301537061726B46756E00537061726B8B
:1006400046756E2050726F204D6963726F00DB40FB
:10065000A4A62EAF2000A1C8D300408DAED580A89F
:10066000070605040100080A0B0C0D090000000034
:10067000250028002B002E0031000000000024007F
:1006800027002A002D00300004040404040304059C
:10069000020202020403020202020606060606061F
:1006A0000404020202040404080201104080401005
:1006B0002040804080080204018040201002011088
:1006C0008010204040202200FF2100006A18D21D27
:1006D00011241FBECFEFDAE0DEBFCDBF11E0A0E0F6
:1006E000B1E0E0E9F2E402C005900D92A238B10752
:1006F000D9F723E0A2E8B1E001C01D92A030B20713
:10070000E1F713E0C7E6D3E004C02197FE010E94A1
:10071000FD1FC636D107C9F70E94D3180C943B21A0
:100720000C94000090E0FC01E955F94F24918857A2
:10073000994FFC018491882399F090E0880F991FCC
:10074000FC01E658F94FA591B491FC01E459F94F29
:10075000859194918FB7F894EC91E22BEC938FBF35
:100760000895FC0180915B02882311F13FB7F89452
:1007700082E08093E9002091F200822F90E0181629
:10078000190614F481E090E0882339F0289844E6B3
:1007900040935A024091F1004083222339F0209186
:1007A000F200211103C02BE62093E8003FBF08951B
:1007B0008FEF9FEF08952FB7F89483E08093E900BF
:1007C0009091E800892F807295FF04C09091F2000B
:1007D00080E4891B2FBF08958091520281110DC0C2
:1007E00082E080934E0284E080934F021092510287
:1007F0001092500281E0809352028EE492E00895BC
:1008000008950895089540913D0250913E0220912F
:100810003B0230913C0242175307B4F49091E80038
:100820009570E1F39091E80092FD19C08093F1007A
:1008300080913D0290913E0201968F739927892BFA
:1008400019F48EEF8093E80080913D0290913E0272
:10085000019690933E0280933D0281E0089580E0EE
:100860000895DF92EF92FF920F931F93CF93DF9340
:10087000D82E8A01EB017B01E40EF51ECE15DF05B3
:1008800059F0D7FE12C0FE0184910E940304219604
:100890008111F4CF0FEF1FEFC801DF91CF911F91AE
:1008A0000F91FF90EF90DF9008958881EECF0F9326
:1008B0001F93CF93DF931F92CDB7DEB782E089837A
:1008C00042E450E06AED75E080E80E9431040E9445
:1008D000EC03DC0112960D911C910115110589F0B4
:1008E000D801ED91FC910280F381E02DBE016F5F94
:1008F0007F4FC801099597FD04C0F8010085118557
:10090000ECCF89810F90DF91CF911F910F910895C6
:10091000615030F02091F100FC0120830196F8CF66
:10092000289884E680935A020895AF92BF92CF929E
:10093000DF92EF92FF920F931F93CF93DF936C019F
:100940007B018B01040F151FEB015E01AE18BF0880
:10095000C017D10759F06991D601ED91FC91019032
:10096000F081E02DC6010995892B79F7C501DF914A
:10097000CF911F910F91FF90EF90DF90CF90BF909C
:10098000AF900895CF93DF931F92CDB7DEB7698301
:10099000DC01ED91FC910280F381E02D41E050E01B
:1009A000BE016F5F7F4F09950F90DF91CF91089542
:1009B00083E08093E9008091F200882319F08AE3B4
:1009C0008093E80008950E94DB0390E00895CF93A0
:1009D000DF931F92CDB7DEB7FC018485958597FD27
:1009E00008C02FEF3FEF358724870F90DF91CF911D
:1009F0000895CE0101960E94B103019719F48981EF
:100A000090E0F3CF8FEF9FEFF0CF0F931F93CF9333
:100A1000DF931F92CDB7DEB78C01FC0184859585ED
:100A200097FF0BC0CE0101960E94B103019771F4AC
:100A3000898190E0F80195878487F8018485958500
:100A40000F90DF91CF911F910F9108958FEF9FEF3E
:100A5000F1CFFC018485958597FD0BC09FB7F89475
:100A600082E08093E9008091F2009FBF90E00196C0
:100A700008959FB7F89482E08093E9008091F20096
:100A80009FBF90E00895282F30E0F901E454FA4F19
:100A90009491F901E955F94F84912857394FF9019B
:100AA0002491222309F430C09923E9F091509F301A
:100AB000D0F4E92FF0E0E15AFA4F0C94FD1F8D05B8
:100AC00091056E0585058905730573057305940504
:100AD0009A059E05A205A8057305AC0590918000B6
:100AE0009F7790938000E22FF0E0EE0FFF1FE45914
:100AF000F94FA591B4919FB7F894EC91611132C070
:100B000080958E238C939FBF0895909180009F7D48
:100B1000E8CF90918000977FE4CF94B59F7794BD04
:100B2000E2CF94B59F7DFBCF909190009F779093FB
:100B30009000D9CF909190009F7DF9CF9091900037
:100B4000977FF5CF9091C0009F779093C000CBCF57
:100B50009091C0009F7DF9CF9091C200977F9093B4
:100B6000C200C1CF8E2BCECF3FB7F8948091370211
:100B700090913802A0913902B0913A0226B5A89B13
:100B800005C02F3F19F00196A11DB11D3FBFBA2F1F
:100B9000A92F982F8827BC01CD01620F711D811DDF
:100BA000911D42E0660F771F881F991F4A95D1F764
:100BB00008958F929F92AF92BF92CF92DF92EF9261
:100BC000FF924B015C010E94B4056B017C010E9405
:100BD000B4056C197D098E099F09683E7340810533
:100BE0009105A8F321E0821A9108A108B10888EEC6
:100BF000C80E83E0D81EE11CF11C81149104A104ED
:100C0000B10429F7FF90EF90DF90CF90BF90AF90A5
:100C10009F908F9008958F929F92AF92BF92CF92A4
:100C2000DF92EF92FF920F931F93CF93DF936C01AC
:100C30007B018A0180910B01882309F45CC08091BB
:100C40005B02882309F457C08091410280FF05C0F0
:100C50008091E00082608093E000E801B12C8AEF8F
:100C6000A82E93E0892E2AE3922E209711F4BB2020
:100C7000D9F10E94DB0381110AC0AA94AA20D9F1FC
:100C800061E070E080E090E00E94D905EECF8C1723
:100C90001D0611F00CF08C2F9FB7F8948092E9009C
:100CA0002091E80025FD02C09FBFDFCF282F30E054
:100CB000C21BD30BF701815020F041914093F1000A
:100CC000FACFE20EF31EBB2021F09092E800B12C87
:100CD000EBCF8091E80085FDE7CF9092E800BB2440
:100CE000B394209709F3F3CF5D9884E68093400294
:100CF000101611063CF081E090E0F60193838283A8
:100D000010E000E0C801DF91CF911F910F91FF909B
:100D1000EF90DF90CF90BF90AF909F908F9008950D
:100D2000EF92FF920F931F93CF93DF93EC01EC8030
:100D3000FD806E157F050CF070C057FF04C0240FB6
:100D4000351F50E040E08E819F81FA01E20FF31FD2
:100D50008E179F071CF49C01241B350B12161306DB
:100D60000CF05BC0922F842F8695869586958E9D7C
:100D7000D0018F9DB00D11246A0F7B1FAF8DB8A1DC
:100D8000A60FB71F477049F188E0841B482F682FD2
:100D900070E0FB01EC54FA4FE491281708F063C0AF
:100DA000621B71092FEF30E002C0359527956A95D7
:100DB000E2F7E2230130110539F0B0F102301105FC
:100DC00061F58C91E82702C08C91E82BEC93941785
:100DD00020F12C813D81A20FB31FE92FE41BE830E5
:100DE00078F00230110521F58E2F9C9190959C93FF
:100DF0002C813D81A20FB31F88508830B0F7E77077
:100E0000EE2359F0F0E0E455FA4FE491013011057A
:100E1000F9F010F10230110519F1DF91CF911F9116
:100E20000F91FF90EF900895E0958C91E823CECF3D
:100E300081E00115110509F480E081959E2F8C93C6
:100E40002C813D81A20FB31F98509830C0F7D7CFA7
:100E50008C91E82BEC93E1CFE0958C91E823FACFCD
:100E60008C91E827F7CF0130110509F4ADCFE0F2FE
:100E70000230110509F4A5CFAE0DBF1DAECF0F9303
:100E80001F93CF93DF9377FF04C0260F371F70E0C7
:100E900060E0DC011496CD91DC91FB01E20FF31FC1
:100EA000CE17DF071CF49E01261B370B1216130604
:100EB0004CF5FA0157FD3796A3E0F595E795AA950D
:100EC000E1F7EC9FD001ED9FB00DFC9FB00D112418
:100ED0006A0F7B1FDC015F96ED91FC91E60FF71F17
:100EE0004770552781E090E001C0880F4A95EAF7E6
:100EF000482F0130110559F0A8F02E0F3F1F023086
:100F00001105E1F0DF91CF911F910F9108952E0F00
:100F10003F1FE217F307B1F38191DF011197842B93
:100F20008C93F7CF80952E0F3F1FE217F30751F3F5
:100F30009191DF01119798239C93F7CFE217F30764
:100F400009F38191DF01119784278C93F7CF0F93D9
:100F50001F93FA01DC0156964C9156974230E9F006
:100F60004330A1F1413061F514964D915C91DA0165
:100F7000AE1BBF0BFD01E21BF30B77FD0BC0DC01C9
:100F800016964D915C916417750724F4AB01BF016F
:100F90000E943F071F910F91089514964D915C9107
:100FA000DA01A61BB70BBD0161507109DC01169671
:100FB0004D915C91DA01AE1BBF0BFD01E21BF30BFF
:100FC00077FDE8CFAF010E949006E4CF16964D91D1
:100FD0005C91DA01A61BB70BBD0161507109CDCF41
:100FE0000F931F93FA01DC0156964C9156974230AD
:100FF000A9F0433091F1413019F514964D915C916F
:10100000DA01AE1BBF0BFD013197F7FD04C0AB0148
:10101000BF010E9490061F910F91089514964D9163
:101020005C91DA01A61BB70BBD01DC0116964D9150
:101030005C91DA01AE1BBF0BFD013197621B730B94
:10104000F7FDE9CFDC0116964D915C91E417F507A9
:1010500014F7AF010E943F07DECF16964D915C91C9
:10106000DA01A61BB70BBD01621B730BCECFFC01CF
:1010700077FD64C080859185681779070CF05EC0A4
:1010800057FD5CC082859385481759070CF056C000
:1010900086898230B1F0833029F1813041F4848136
:1010A0009581841B950BAB01BC0161507109213006
:1010B000310509F108F443C02230310509F463C059
:1010C000089584819581DC01A61BB70BBD01615099
:1010D000710986819781DC01A41BB50BAD014150DC
:1010E0005109E5CF86819781861B970BBA01AC0128
:1010F00041505109DCCFCA0157FD0796A3E09595F1
:101100008795AA95E1F7A481B5818A9F90018B9F6D
:10111000300D9A9F300D1124620F731F078CF0A1C0
:10112000E02DE60FF71F4770552721E030E001C0A2
:10113000220F4A95EAF78081822B80830895CA01A5
:1011400057FD079633E0959587953A95E1F7A48189
:10115000B5818A9F90018B9F300D9A9F300D11248D
:10116000620F731F078CF0A1E02DE60FF71F477089
:10117000552781E090E001C0880F4A95EAF78095F5
:1011800090818923DACFCA0157FD079623E0959510
:1011900087952A95E1F7A481B5818A9F90018B9F5D
:1011A000300D9A9F300D1124620F731F078CF0A130
:1011B000E02DE60FF71F4770552721E030E001C012
:1011C000220F4A95EAF780818227B7CF08958EBD16
:1011D00000000DB407FEFDCF8EB508958CBD9DBDFA
:1011E00008950895FC016370668B84819581268142
:1011F0003781613039F0633029F0918780873387F8
:1012000022870895318720879387828708952F92B8
:101210003F924F925F926F927F928F929F92AF9286
:10122000BF92CF92DF92EF92FF920F931F93CF93D3
:10123000DF93CDB7DEB76A970FB6F894DEBF0FBE67
:10124000CDBF9A8F898F7A8369834A01D22E1887FE
:101250000F833701BC2CDC0159962D913C915A9794
:101260002115310509F015C118968D919C9119979A
:10127000681779070CF0D7C11A968D919C91481781
:1012800059070CF0D0C14C2C512CB6E0CB9E600D10
:10129000711D11247C876B87161617060CF0C3C1CD
:1012A000EA2DF0E0FA87E98793E0EE0FFF1F9A95A9
:1012B000E1F7F88BEF87CF01840F951F18161906F9
:1012C0000CF0B1C1A98DBA8D58968C91811104C0D2
:1012D000BFEABD1508F4D394A98DBA8DED91FC91A8
:1012E00011970284F385E02DCD010995B5E0DB9ED1
:1012F000C0011124E981FA81FC83EB83312C212C7C
:101300009C0124553F4F388F2F8B4A2D50E05E8B28
:101310004D8BEF89F88DE20DF31D44919E828D82F5
:10132000D12CC12C69817A81620D731D7A8B698BF6
:10133000842F90E09C8B8B8BE98DFA8DA081B181FD
:1013400040FF82C0F1E0BF126FC0AF126DC01C96AB
:10135000ED91FC912F813885A4014C0D5D1D6989AB
:101360007A89898D9A8D0995EB89FC89F595E795A0
:101370004E2F5FEFC51AD50A6D817E818D899E89BA
:10138000680F791F7E836D8398E0C916D10481F6BA
:10139000AFEF2A1A3A0AEB81FC81E40DF51DFC83BC
:1013A000EB83F5E02F16310409F0B3CF2F81388598
:1013B00026153705B9F0A98DBA8DED91FC91B1E0F4
:1013C000BB1257C0AB1255C069817A816B5F7F4FEA
:1013D0000088F189E02D830128E030E0A401898DA7
:1013E0009A8D0995A98DBA8DED91FC91119706887A
:1013F000F789E02DCD016A960FB6F894DEBF0FBED7
:10140000CDBFDF91CF911F910F91FF90EF90DF90B3
:10141000CF90BF90AF909F908F907F906F905F9094
:101420004F903F902F9009941E96ED91FC91EF8084
:10143000F88409851A8592014D815E816B817C81DA
:10144000898D9A8D099590CF2F813885261537057E
:1014500009F48ACF31E0B31207C0A31205C01C966D
:10146000ED91FC91930178CF1E96ED91FC91730163
:10147000E0CF6B857C85641975090684F785E02DBE
:1014800073010F8518899201A401898D9A8D0995A0
:10149000A9CFF90134969491329745915491D91A74
:1014A000B7E0DB9E400D511D1124F90125913491C7
:1014B0003C8B2B8BFA0125903490FA013296749074
:1014C00031963491398B329664903196449041E054
:1014D0004C1518F04A1508F07FC0662D062C000C3C
:1014E000770B7C836B83842D042C000C990B9E83DB
:1014F0008D83A98DBA8DED91FC9111970284F385AE
:10150000E02DCD010995512CD12CC12CEA2DF0E014
:10151000FA87E9872B2D30E03C872B87A401440D07
:10152000511D47FC5A95588F4F8B69817A81660D02
:10153000711D67FC7A957E876D877989C71608F0DB
:1015400051CF2C2D30E04D815E81420F531FA98574
:10155000BA854A9FC0014B9F900D5A9F900D112450
:10156000FC01E80DF91DF88BEF87852D612C4F8963
:10157000588D420F531F5E8B4D8B671408F050C07F
:1015800044244394480E877041F4C1010196EB89CD
:10159000FC89E20DF31DD4901C01D7FE19C0A98D62
:1015A000BA8DED91FC91662D70E0B1E0BB1219C0CF
:1015B000AB1217C02D853E85620F731F0484F5851D
:1015C000E02D2F8138854D895E89898D9A8D099509
:1015D000DD0C6394842DD1CF1E821D821C821B8260
:1015E00088CF4B815C81640F751FAB85BC856A9F7A
:1015F000C0016B9F900D7A9F900D112469817A81B3
:10160000680F791F0684F785E02DEF80F88409853F
:101610001A859D014F855889898D9A8D0995D8CF56
:10162000570CC3948ACF6A960FB6F894DEBF0FBEEC
:10163000CDBFDF91CF911F910F91FF90EF90DF9081
:10164000CF90BF90AF909F908F907F906F905F9062
:101650004F903F902F9008958F929F92AF92CF928C
:10166000EF92FF920F931F93CF93DF93EC01262FFE
:10167000898D9A8D009709F051C06A30D1F41D868A
:101680001C868D8948E0849F900111248E859F855A
:10169000820F931F9F878E8781E090E0DF91CF912B
:1016A0001F910F91FF90EF90CF90AF909F908F90F0
:1016B00008956D3089F3CC88AD888F898823C1F077
:1016C0008C859D8536E0C39E800D911D1124488533
:1016D00059854817590764F44E855F851D861C8619
:1016E00038E0A39EC0011124840F951F9F878E8729
:1016F000EA88FB88088919894E855F856C857D8518
:10170000CE010E9407092C898C859D8546E0249F87
:10171000800D911D11249D878C87BECF6A3069F49E
:101720001D861C86FC013896E4912D898E859F8547
:10173000E29F800D911D1124ADCF6D3009F4ACCF27
:10174000FC0134963491631708F4A6CF3296E491E5
:10175000E61708F4A1CFFC01329685909490462FAD
:10176000431B342F47E0349F800C911C1124F4015B
:10177000329634913196E4913323A9F1EE2399F115
:10178000CC88F4013596E491AD884F89442301F16A
:101790000E2E000CFF0BE30FF11DCE9EA001CF9E7D
:1017A000500D11246C857D85460F571F68857985FE
:1017B000641775076CF44E855F851D861C86FC01D9
:1017C0003896E491AE9E400D511D11245F874E87DF
:1017D000EA88FB88088919894E855F856C857D8537
:1017E000CE010E940709F4013496E4912C898C857E
:1017F0009D85E29F800D911D11248DCF6F927F9268
:101800008F929F92AF92BF92CF92DF92EF92FF9210
:101810000F931F93CF93DF93EC016B015A013901B2
:101820004801E881F9810284F385E02D0995E8817A
:10183000F9810288F389E02D87019301A501B601A2
:10184000CE010995A501480D591D41505109E88166
:10185000F9810288F389E02D9301B601CE01099543
:10186000E881F9810088F189E02D9401A501B60194
:10187000CE010995C60CD71CB60161507109E881EB
:10188000F9810088F189E02D9401A501CE01099527
:10189000E881F9810688F789E02DCE01DF91CF91AB
:1018A0001F910F91FF90EF90DF90CF90BF90AF907E
:1018B0009F908F907F906F9009946F927F928F92FC
:1018C0009F92AF92BF92CF92DF92EF92FF920F93CF
:1018D0001F93CF93DF935C01EB016A01490138014B
:1018E0008701DC01ED91FC916217730719F564160D
:1018F00075062CF0962D872D3A01C92ED82E96010B
:10190000261937092F5F3F4F048CF58DE02DA30179
:10191000BE01C5010995DF91CF911F910F91FF90F5
:10192000EF90DF90CF90BF90AF909F908F907F907F
:101930006F9008954615570591F42617370724F040
:10194000892D4B01C22FD82F9E01281939092F5FED
:101950003F4F068CF78DE02DA601B401DACF02844B
:10196000F385E02D0995D501ED91FC910488F58969
:10197000E02D83019401A601BE01C5010995D501A1
:10198000ED91FC910688F789E02DC501DF91CF919B
:101990001F910F91FF90EF90DF90CF90BF90AF908D
:1019A0009F908F907F906F900994EF92FF920F938A
:1019B0001F93DC011A960D911C911B9718962D917F
:1019C0003C911997ED91FC9100A0F1A1E02D7B01D4
:1019D00050E040E070E060E009951F910F91FF90AA
:1019E000EF9008954F925F926F927F928F929F92A5
:1019F000AF92BF92CF92DF92EF92FF920F931F931D
:101A0000CF93DF936C012B015A0139014801DC01AE
:101A1000ED91FC910284F385E02D0995E201640CBF
:101A2000751CD601ED91FC91C615D7055CF40088B4
:101A3000F189E02D87019401A501BE01C601099538
:101A40002196EFCF0688F789E02DC601DF91CF916F
:101A50001F910F91FF90EF90DF90CF90BF90AF90CC
:101A60009F908F907F906F905F904F9009948F928E
:101A70009F92AF92BF92CF92DF92EF92FF920F931D
:101A80001F93CF93DF93EC015B014A016901E88169
:101A9000F9810284F385E02D099595012C0D3D1DFA
:101AA00021503109E881F9810488F589E02D780118
:101AB0008401A401B501CE010995E881F981068868
:101AC000F789E02DCE01DF91CF911F910F91FF900B
:101AD000EF90DF90CF90BF90AF909F908F90099440
:101AE0008F929F92AF92BF92CF92DF92EF92FF922E
:101AF0000F931F93CF93DF93EC015B014A016901C0
:101B00007801E881F9810284F385E02D0995C80CFC
:101B1000D91C860101501109E881F9810488F589F1
:101B2000E02D9501A401B501CE010995E881F98167
:101B30000688F789E02DCE01DF91CF911F910F919B
:101B4000FF90EF90DF90CF90BF90AF909F908F90DD
:101B50000994EF92FF920F931F93DC01ED91FC919A
:101B600000A0F1A1E02D09951F910F91FF90EF903A
:101B700008950F931F93DC01ED91FC91068CF78D76
:101B8000E02D09951F910F9108950F931F93DC018C
:101B9000ED91FC91048CF58DE02D09951F910F912D
:101BA00008952F923F924F925F926F927F928F9201
:101BB0009F92AF92BF92CF92DF92EF92FF920F93DC
:101BC0001F93CF93DF93CDB7DEB72C970FB6F89462
:101BD000DEBF0FBECDBF3C017C836B835C874B8730
:101BE0001801270181E090E05C01A41AB50ACA013E
:101BF000919581959109AC01440F551F5A834983F2
:101C0000C80101969E838D83F12CE12C8824839456
:101C1000912C922F91709F8322702887AB014F5F88
:101C20005F4F5A8749878B859C85E816F9060CF02B
:101C30007AC0CB84DC84B7FC0CC06C0191E0C91A7B
:101C4000D10849815A814E5F5F4F5A834983A40E60
:101C5000B51E5FEFE51AF50A82E0880E911CA80C0C
:101C6000B91CCE14DF0464F19F81992399F0960189
:101C7000220F331F4D815E81240F351F82014B815E
:101C80005C814C195D09B701660D771D8CEB92E004
:101C90000E94C50D5885552399F09601220F331FD8
:101CA0008D819E81280F391F82014B815C814C19E7
:101CB0005D09B3016E197F098CEB92E00E94C50D9E
:101CC0004B855C854C155D0559F15F81552391F07D
:101CD000940122503109220D331D820149855A8514
:101CE0004E195F096B857C85660D771D8CEB92E044
:101CF0000E94C50D8885882399F0940122503109EE
:101D0000220D331DB3014B855C85641B750B82016D
:101D100049855A854E195F098CEB92E00E94C50DEA
:101D2000DC86CB8680CF2C960FB6F894DEBF0FBE34
:101D3000CDBFDF91CF911F910F91FF90EF90DF907A
:101D4000CF90BF90AF909F908F907F906F905F905B
:101D50004F903F902F900895DC01ED91FC9100840D
:101D6000F185E02D09942F923F924F925F926F92EE
:101D70007F928F929F92AF92BF92CF92DF92EF921B
:101D8000FF920F931F93CF93DF9300D000D000D02A
:101D9000CDB7DEB73C016A013E832D83FC82EB8226
:101DA0005801A41AB50AB7FE03C0B194A194B108B2
:101DB0008D809E80861A970A97FE03C09194819425
:101DC00091088A149B045CF0902F812F0D811E8155
:101DD0009D838E839C2D8D2D6B01692F782F0C1583
:101DE0001D055CF09D818E817E836D83692F782F28
:101DF000902F812F8601C92ED82E1601201A310A64
:101E00002B012D813E81421A530A57FE03C0519483
:101E100041945108710137FE03C03FEFE31AF30A02
:101E2000F594E7948D819E81861797075CF5A1E074
:101E3000B0E0BA83A983C016D1064CF1D301ED916D
:101E4000FC910484F585E02D2B813C81A8016D81F6
:101E50007E818A149B041CF04D815E81B801C30110
:101E60000995E418F508F7FE0AC02D813E818981A5
:101E70009A81280F391F3E832D83E20CF31C0F5FDC
:101E80001F4FD9CF2FEF3FEF3A832983D4CF269628
:101E90000FB6F894DEBF0FBECDBFDF91CF911F917B
:101EA0000F91FF90EF90DF90CF90BF90AF909F90F9
:101EB0008F907F906F905F904F903F902F900895FC
:101EC00008952091E801260F3327331F2132310571
:101ED000ECF420910C02FC0190E080E0243069F0E9
:101EE00082E00895A091E8012191AC0148535E4F32
:101EF000A40FB52FB11D2C930196861798F38091EE
:101F0000E801680F6093E80180E0089581E008959A
:101F100010920C0281E080930E0210920D0261E09B
:101F200082E00E94430561E083E00E944305E9EB03
:101F3000F0E080818E7F808380818D7F808388E444
:101F40008093B80085E48093BC000895CF93DF931D
:101F500091E09093C7018823B9F0C091B800D09167
:101F6000BA008091BC008A7B8093BC0060E082E074
:101F70000E94430560E083E00E9443050E94880FB1
:101F8000D093BA00C093B800DF91CF910895E0914B
:101F9000490280914802E81730F4F0E0EE55FE4F18
:101FA000808190E008958FEF9FEF0895909149020E
:101FB000809148022FEF3FEF981748F4E92FF0E0A7
:101FC000EE55FE4F208130E09F5F90934902C9019A
:101FD00008958091480290914902891B990B0895B8
:101FE000CF92DF92EF92FF920F931F93CF93DF93E5
:101FF0007C01CB018A0120915F02222389F0EB0151
:102000006B01C40ED51ECC15DD0569F06991D701B1
:10201000ED91FC910190F081E02DC7010995F3CF7E
:10202000642F0E94610FC801DF91CF911F910F9122
:10203000FF90EF90DF90CF900895CF93DF931F92A2
:10204000CDB7DEB7698320915F022223F9F020919A
:102050005C02203258F021E030E0FC01338322831F
:1020600090E080E00F90DF91CF91089580915D0224
:10207000E82FF0E0EE57FE4F998190838F5F8093B9
:102080005D0280935C0281E090E0ECCF61E0CE01E4
:1020900001960E94610FF7CFCF92DF92EF92FF92ED
:1020A0000F931F93CF93DF93D0915C0281E0D132E5
:1020B00008F09CC0C0915E020E94B4056B017C01D7
:1020C00080910C0281116CC082E080930C0281E04F
:1020D00080930E028FEF80930B0210923002D09308
:1020E0002F02A2E8B1E0EFE0F2E080E0D8138DC06B
:1020F0001092310280913102CC0FC82BC093310273
:1021000080910D02813009F084C010920D020E946E
:10211000B4056B017C01809131028093BB008091FA
:10212000C3019091C401A091C501B091C601892B52
:102130008A2B8B2BA1F00E94B4050091C301109152
:10214000C4012091C5013091C6016C197D098E0929
:102150009F09061717072807390708F442C080911E
:10216000BC0083FDD8CF85EC8093BC000E94B405F1
:102170006B017C0180910C02823009F44CC080918B
:102180000B028F3F09F469C080910B02803209F481
:1021900066C080910B02803309F463C084E026C0DE
:1021A0008091C3019091C401A091C501B091C60175
:1021B000892B8A2B8B2B09F483CF0E94B4050091C5
:1021C000C3011091C4012091C5013091C6016C1961
:1021D0007D098E099F09061717072807390708F098
:1021E0006FCF8091C2010E94A60F85E010925D0220
:1021F00010925C0210925F02DF91CF911F910F91BC
:10220000FF90EF90DF90CF9008959D9191938F5F15
:102210006DCF85EEA9CF8091C3019091C401A091AB
:10222000C501B091C601892B8A2B8B2B09F4A2CF53
:102230000E94B4050091C3011091C4012091C50111
:102240003091C6016C197D098E099F090617170781
:102250002807390708F08ECFC4CF80E0C7CF82E0CF
:10226000C5CF83E0C3CFFF920F931F93CF93DF932C
:10227000F82ED92FC62F8091D9029091DA020097BB
:1022800009F452C02091DD0231E030935F022093C7
:102290005E0210925D0210925C02DC01ED91FC91F5
:1022A0000190F081E02D60E009950F2D1D2FD1E008
:1022B000FF24F394C1508091D9029091DA02CF3F6C
:1022C00061F1D032C8F00E944C108091D9029091F7
:1022D000DA022091DD02F0925F0220935E021092FA
:1022E0005D0210925C02DC01ED91FC910190F081A5
:1022F000E02D60E00995D1E08091D9029091DA0259
:10230000F8016491DC01ED91FC910190F081E02DE8
:102310000995DF5F0F5F1F4FCDCFDF91CF911F91E9
:102320000F91FF900C944C10E091E902F091EA02B9
:1023300090818091EF028095892380830F2D1D2F3E
:10234000C15008F438C0F80184912091D70230912F
:10235000D802232B29F00E94E7080F5F1F4FF0CF10
:1023600028E030E040E8E091E502F091E60290914B
:10237000ED02582F5423D9F05081952B9083E09192
:10238000E702F091E80290815091EE02952B908344
:10239000E091E702F091E80250819091EE02909571
:1023A00095239083469521503109E9F6D6CF508187
:1023B00090959523E3CFDF91CF911F910F91FF90DF
:1023C00008951F93CF93DF93EC018D8D9E8D009721
:1023D00021F1162F29A131E030935F0220935E0294
:1023E00010925D0210925C02DC01ED91FC91019073
:1023F000F081E02D60E009958D8D9E8DDC01ED91E1
:10240000FC910190F081E02D612F09958D8D9E8DBD
:10241000DF91CF911F910C944C10ADA5BEA59C915E
:102420008BA9809589238C938B8D9C8D892B31F082
:10243000862FDF91CF911F910C94E70828E030E0C0
:1024400080E8A9A5BAA599A9462F4823C1F04C91C7
:10245000942B9C93ABA5BCA59C914AA9942B9C93CF
:10246000ABA5BCA54C919AA9909594239C93869575
:102470002150310931F7DF91CF911F9108954C918F
:1024800090959423E6CFEF92FF920F931F93CF93F3
:10249000DF938091D9029091DA02892B09F493C0DD
:1024A0002091F1023091F2024091F3025091F40236
:1024B00060E074E284EF90E00E94001E2051310938
:1024C0004109510956954795379527952093B800AE
:1024D00065E086EC96E00E9433116091C002615085
:1024E0008CEB92E00E94E1112091C2023091C30274
:1024F000C901079697FD079623E0959587952A953C
:10250000E1F72091C0023091C102829F8001839F38
:10251000100D929F100D1124C091DB02D091DC02AE
:102520008091D9029091DA020C0F1D1F009709F4D7
:1025300089C02091DD0231E030935F0220935E027A
:1025400010925D0210925C02DC01ED91FC91019011
:10255000F081E02D60E40995FF24F394EE24E394E8
:102560008091D9029091DA020C171D0709F442C03C
:10257000BFE1BF15D0F40E944C108091D902909118
:10258000DA022091DD02E0925F0220935E02109257
:102590005D0210925C02DC01ED91FC910190F081F2
:1025A000E02D60E40995FF24F3948091D902909185
:1025B000DA026991DC01ED91FC910190F081E02D4E
:1025C0000995F394CDCF8091D7029091D802892BB1
:1025D00031F08091FA029091FB020E94EE08E091A6
:1025E000EB02F091EC0290818091F00280958923BA
:1025F00080836ECF0E944C108091D9029091DA02B4
:10260000892B09F460C02091F5023091F6024091C7
:10261000F7025091F80260E074E284EF90E00E94CB
:10262000001E2051310941095109569547953795AA
:1026300027952093B800DF91CF911F910F91FF90C4
:10264000EF900895E091E902F091EA028081909183
:10265000EF02892B80830C171D0771F2899120915D
:10266000D7023091D802232B19F00E94E708F3CF4C
:1026700028E030E040E8E091E502F091E602909138
:10268000ED02582F5423D9F05081952B9083E0917F
:10269000E702F091E80290815091EE02952B908331
:1026A000E091E702F091E80250819091EE0290955E
:1026B00095239083469521503109E9F6CCCF50817E
:1026C00090959523E3CFE091EB02F091EC028081AD
:1026D0009091F002892B8083AECF1F93CF93DF932D
:1026E000EC01162F8D8D9E8D892BB1F12DA93EA960
:1026F0004FA958AD60E074E284EF90E00E94001EA4
:10270000205131094109510956954795379527952B
:102710002093B80066EA111167EACE010E94E11128
:102720008D8D9E8D892B41F129AD3AAD4BAD5CADC0
:1027300060E074E284EF90E00E94001E20513109B5
:102740004109510956954795379527952093B8002B
:10275000DF91CF911F9108958B8D9C8D892B21F056
:102760008EAD9FAD0E94EE08EFA5F8A990818CA9CF
:10277000809589238083CECFEFA5F8A980819CA97D
:10278000892B8083E5CF90E080E00895FC010190E3
:102790000020E9F73197AF01481B590BBC018CEBC6
:1027A00092E00C9495042091C2023091C302C901B9
:1027B000079697FD079623E0959587952A95E1F76B
:1027C0002091C0023091C102829FA001839F500DD1
:1027D000929F500D112470E060E08091DB02909197
:1027E000DC020C9434210E942F2185ED8093BC00E3
:1027F0008091C3019091C401A091C501B091C6011F
:102800000796A11DB11D23E0B695A79597958795CD
:102810002A95D1F72091BC0024FD03C010920C0230
:1028200008954091C3015091C4016091C501709118
:10283000C601452B462B472B69F30097A105B1052F
:1028400041F025E32A95F1F700000197A109B109AC
:10285000E1CF8091C2010C94A60F1F920F920FB688
:102860000F9211248F939F938091E1009091E1004A
:10287000937F9093E10083FF0FC01092E90091E0F5
:102880009093EB001092EC0092E39093ED00109285
:102890005B0298E09093F00082FF22C093E0909357
:1028A000E9009091F200992319F09AE39093E800DF
:1028B00090914002992341F0909140029150909361
:1028C0004002911101C05D9A90915A02992341F002
:1028D00090915A02915090935A02911101C0289AF6
:1028E00084FF18C08091E2008E7E81608093E200B8
:1028F0008091E1008F7E8093E100809141028E7E85
:102900008061809341029F918F910F900FBE0F9035
:102910001F90189580FFF7CF8091E2008E7E806136
:102920008093E2008091E1008E7E8093E1008091AF
:1029300041028E7E8160E5CF1F920F920FB60F92FB
:102940001124CF92DF92EF92FF920F931F932F9358
:102950003F934F935F936F937F938F939F93AF9327
:10296000BF93EF93FF93CF93DF93CDB7DEB76C9711
:10297000DEBFCDBF1092E9008091E80083FF25C043
:1029800068E0CE0145960E94880482EF8093E800BB
:102990008D8987FF39C09091E80090FFFCCF982F78
:1029A000907609F034C19E894F89588D2F89F88C13
:1029B000911131C0803861F5809142028093F1001D
:1029C0001092F1008EEF8093E8006C960FB6F894A9
:1029D000DEBF0FBECDBFDF91CF91FF91EF91BF91D1
:1029E000AF919F918F917F916F915F914F913F91A7
:1029F0002F911F910F91FF90EF90DF90CF900F904C
:102A00000FBE0F901F9018959EEF9093E800C7CFD0
:102A10001092F100D5CF913059F48111D3CF4130CC
:102A2000510581F6809142028D7F80934202CACF88
:102A3000933049F48111C6CF4130510519F6809188
:102A400042028260F2CF953041F48091E80080FF2D
:102A5000FCCF20682093E300B5CF963009F0A9C0E1
:102A60000B8D1C8D22E01092E90010923E02109214
:102A70003D02F2122EC010923C0210923B020E94C4
:102A800057041F8299E09983FA8291E09E8390EA2D
:102A900098879AEF998720913D0230913E02275FF7
:102AA0003F4F3C832B838D831092E90010923E02AE
:102AB00010923D0210933C0200933B0249E050E02B
:102AC000BE016F5F7F4F80E00E9431040E94570477
:102AD00079CF10933C0200933B020E94EC03DC018F
:102AE00012960D911C910115110509F451C1D801DF
:102AF000ED91FC910480F581E02DBE016B5E7F4F6E
:102B0000C8010995009709F03EC1F80100851185BB
:102B1000EACFF3E0FF120EC08F89882309F440C08A
:102B2000823061F440E862E18BE396E00E9437185E
:102B3000811148CF81E28093EB0047CF813029F4A7
:102B400040E868E082E396E0F1CF833099F70E9495
:102B5000EC03DC011296ED90FC908E010F5F1F4F8D
:102B60006801E114F10479F0D701ED91FC91068040
:102B7000F781E02DB801C7010995080F111DF70174
:102B8000E084F184EECFD8011C92F6010190002080
:102B9000E9F73197BF016C197D0940E0C601C6CF46
:102BA0006CE176E0FB01449150E080E80E94310442
:102BB00009CF973009F4BECF983021F481E080939B
:102BC000F10000CF993009F0FDCE837009F0B2CF4B
:102BD000E3E2F1E081E031E096E32191222371F01C
:102BE0008093E9003093EB00DF0111972C91209343
:102BF000EC009093ED008F5F873079F78EE780933C
:102C0000EA001092EA008F8980935B02DBCE8B8D05
:102C10009C8D1092E90010923E0210923D0290931A
:102C20003C0280933B02898D811192C08E899D89DF
:102C3000913A49F4813209F07DCF47E050E064E0F9
:102C400071E080E0B3CF913209F074CF833269F440
:102C50008F89988DB0E0A0E08093000190930101EE
:102C6000A0930201B0930301ADCE803269F480914C
:102C7000E80082FFFCCF67E084E091E00E948804D6
:102C80008BEF8093E8009ECE823209F09BCE8F8935
:102C900080930B01EEEFFFE7859194918B3F9C4D64
:102CA00051F1E0E0F8E08091040190910501A091DC
:102CB0000601B0910701803B9440A105B105F1F4F4
:102CC00080910B0180FD1AC0EE3F8AE0F80789F57C
:102CD00087E797E7918380838091600080933F022C
:102CE00088E19BE00FB6F894A895809360000FBE32
:102CF0009093600067CEEEEFFAE0D5CF80819181AE
:102D00008737974709F05ECEA8958091600088616B
:102D10008093600080913F0280936000EE3F2AE044
:102D2000F20789F08091FE0A9091FF0A91838083D7
:102D300049CE808191818737980751F29093FF0A9D
:102D40008093FE0AC5CF1092FF0A1092FE0A3ACE77
:102D50000E94EC03DC0112960D911C9101151105E6
:102D600009F4E8CED801ED91FC910190F081E02DBD
:102D7000BE016B5E7F4FC8010995811123CEF8011A
:102D800000851185EBCF181619060CF41BCED2CE98
:102D9000F1E0FF12BECE60E276E004CF1F920F9208
:102DA0000FB60F9211242F933F938F939F93AF935E
:102DB000BF938091330290913402A0913502B0917B
:102DC00036023091320223E0230F2D3758F5019659
:102DD000A11DB11D209332028093330290933402DF
:102DE000A0933502B0933602809137029091380259
:102DF000A0913902B0913A020196A11DB11D8093B4
:102E0000370290933802A0933902B0933A02BF91EF
:102E1000AF919F918F913F912F910F900FBE0F9087
:102E20001F90189526E8230F0296A11DB11DD2CF41
:102E30001F920F920FB60F9211242F933F934F932F
:102E40005F936F937F938F939F93AF93BF93EF9312
:102E5000FF938091B900887F803609F44AC0F0F56D
:102E6000883209F4A7C018F5803109F49BC0B8F482
:102E7000882309F4F9C0883009F494C0FF91EF91D8
:102E8000BF91AF919F918F917F916F915F914F9182
:102E90003F912F910F900FBE0F901F901895883182
:102EA00009F488C0803251F780930B0214C080343B
:102EB00009F49DC040F48033B9F38833F9F6809368
:102EC0000B0285ECB0C0803509F485C0883509F463
:102ED00096C0883499F60E94F513D0CF883909F44A
:102EE0008CC038F5883729F050F4883611F08037D7
:102EF00029F683E080930C0210920A0257C08838AA
:102F000009F47BC0803919F0803809F0B7CF80917F
:102F10000A02803208F071C0E0910A0281E08E0F4F
:102F200080930A028091BB00F0E0E651FE4F80835F
:102F30003DC0803B39F0E0F4803A09F479C0883A2A
:102F400009F09CCF84E080930C021092E90110926A
:102F5000E801E0914602F091470209958091E8016D
:102F600081110FC081E08093E8011092C80109C06F
:102F7000803C09F4A6CF883C09F4A3CF883B09F034
:102F80007DCFE091E90181E08E0F8093E901F0E0CF
:102F9000E853FE4F80818093BB009091E9018091BE
:102FA000E80129C0809131028093BB0085EC8093B9
:102FB000BC0064CF9091300280912F02981758F591
:102FC000E091300281E08E0F80933002F0E0E15F0B
:102FD000FD4F8081E9CFE091300281E08E0F809338
:102FE00030028091BB00F0E0E15FFD4F8083909163
:102FF000300280912F029817C8F285E8D8CFE0916F
:10300000300281E08E0F809330028091BB00F0E0AF
:10301000E15FFD4F808380910E0281115CCF81E0E2
:1030200080930D0284EA8093BC0010920C0226CF9C
:1030300085EC8093BC0010920C0280910A028032D1
:1030400030F4E0910A02F0E0E651FE4F1082609108
:103050000A0270E0E0914402F09145028AEE91E0AC
:10306000099510920A020ACF10920B0234CFEF9208
:10307000FF920F931F93CF93DF93F82E192FE62E15
:10308000042F81E0860F880F0E94030483E00E94D2
:103090000304CF2DD12FEC0EFD2EF11CCE15DF0534
:1030A000B9F007FF13C0FE0184910E940304182F9A
:1030B00080E00E940304812321968111EFCFDF91EC
:1030C000CF911F910F91FF90EF9008958881EDCFE0
:1030D00081E0F5CFE0E6F2E01382128248EE53E0A1
:1030E00060E070E044835583668377838DE291E0EE
:1030F000918380832FEF3FEF35872487A0EBB2E0E9
:1031000013961C921E92129714964D935D936D9395
:103110007C9317978FE391E011969C938E93ECEB41
:10312000F2E01382128240E850E05583448380E449
:1031300090E0978386835187408793878287168A9A
:10314000158614861786168681E0858B848B338BD3
:10315000228B318B208B878B108E128E118E81E506
:1031600091E091838083148E138EB68FA58F10A269
:10317000178E8FEF84A385A386A387A380A780E8FB
:103180009AE1A6E0B0E085AB96ABA7ABB0AF80EA22
:1031900096E8A1E0B0E081AF92AFA3AFB4AF80E515
:1031A00086AF17AE0895CF93DF93CDB7DEB7A19763
:1031B0000FB6F894DEBF0FBECDBF789484B58260A1
:1031C00084BD84B5816084BD85B5826085BD85B5CB
:1031D000816085BD80916E00816080936E00109249
:1031E00081008091810082608093810080918100C4
:1031F0008160809381008091800081608093800055
:103200008091910082608093910080919100816013
:1032100080939100809190008160809390008091D4
:10322000C10084608093C1008091C100826080935E
:10323000C1008091C10081608093C1008091C30072
:1032400081608093C3008091C00082608093C00041
:103250008091C20081608093C20080917A00846076
:1032600080937A0080917A00826080937A008091C6
:103270007A00816080937A0080917A0080688093E0
:103280007A0010925B0210924202109241028091E9
:10329000D70081608093D70080EA8093D80089B5F9
:1032A000806189BD89B5826089BD09B400FEFDCF0A
:1032B00061E070E080E090E00E94D9058091D80044
:1032C0008F7C80618093D8008091E000807F809324
:1032D000E0008091E1008E7E8093E1008DE080939C
:1032E000E200559A209A8FEF9FEF90936D028093A2
:1032F0006C028091DB029091DC02892B09F483C07F
:103300000E94D31382E08093DE028091D9029091D3
:10331000DA02892B09F0AEC18091E2020E94920389
:103320008091E3020E9492038091E202082E000C39
:10333000990BFC01E857F94FE491F0E0EE0FFF1F05
:10334000E459F94F259134913093EA022093E90230
:10335000FC01E955F94FE491E093EF028091E3021B
:10336000082E000C990BFC01E857F94FE491F0E0AE
:10337000EE0FFF1FE459F94FA591B491B093EC0201
:10338000A093EB02FC01E955F94FE491E093F002C0
:103390008C91E82BEC938091D7029091D802892BE5
:1033A00009F448C21FB7F89480914302811124C0E8
:1033B000E9E9F6E08491E8EBF6E09491E82FF0E09B
:1033C000EE0FFF1FE658F94FA591B491EC91E92358
:1033D00021F461E081E10E94430581E10E949203B2
:1033E0008CB580618CBD8CB580648CBD8FE00E94F3
:1033F000920380E10E949203809143028F5F809349
:1034000043021FBF50C12091C2023091C302C901C3
:10341000079697FD079643E0959587954A95E1F7BE
:103420002091C0023091C102AC01429FC001439F74
:10343000900D529F900D11240E940A209093DC025F
:103440008093DB02892B09F05BCF81E08093D0026F
:103450008093D10281E090E09093CF028093CE02DE
:103460009093CD028093CC022CE3222E312C0E942B
:10347000D313E0E6F6E0849120917B00982F990F1A
:10348000990F90722F7D922B90937B0087708064B0
:1034900080937C0080917A00806480937A00809190
:1034A0007A0086FDFCCF80917800A0917900BA2F38
:1034B000A82F2FE230E00E9403202FEF33E040E0FE
:1034C00050E00E94E11D49015A01F8E08F0E911C65
:1034D000A11CB11C90924B0280924A02A401485058
:1034E0005109EE24E394F12C00E110E030E020E0FB
:1034F00062E070E08CEB92E00E94A90D46E0841A35
:1035000091080BE010E021E042E050E0B40181E0DE
:1035100090E00E94D10D22E042E050E0B40182E050
:1035200090E00E94D10D8090180190901901A09018
:103530001A01B0901B0120E030E04CEF52E4C501CD
:10354000B4010E948B1F87FD1AC0809110019091D9
:103550001101A0911201B0911301B0588093100194
:1035600090931101A0931201B093130180914C022A
:1035700090914D02019690934D0280934C02C09021
:103580001401D0901501E0901601F090170120E091
:1035900030E048E752E4C701B6010E948B1F87FD67
:1035A0001AC080910C0190910D01A0910E01B09173
:1035B0000F01B05880930C0190930D01A0930E0160
:1035C000B0930F0180914C0290914D02019690931F
:1035D0004D0280934C0220E030E040EC50E4C50105
:1035E000B4010E949E1E18160CF4A7C160914A02F5
:1035F00070914B02072E000C880B990B0E94DB1E6A
:103600009B01AC01C701B6010E94311E2B013C0198
:1036100020E030E0A9010E948B1F18160CF082C137
:1036200020E030E040E151E4C301B2010E949E1E5F
:1036300087FF83C12AE939E949E95FEB609110010D
:103640007091110180911201909113010E94901FBD
:1036500060931001709311018093120190931301F4
:1036600080914C0290914D020A9690934D02809366
:103670004C0263C18CE38093DD02109249021092E8
:10368000480210925D0210925C020E94880F81E055
:1036900094E0909347028093460282E094E09093F6
:1036A0004502809344028091E40287FD1DC00E9480
:1036B000920361E08091E4020E94430561E070E0C2
:1036C00080E090E00E94D90560E08091E4020E94D1
:1036D00043056AE070E080E090E00E94D90561E077
:1036E0008091E4020E9443058091D9029091DA0210
:1036F000892B09F4E0C02091F1023091F20240914F
:10370000F3025091F40260E074E284EF90E00E94D2
:10371000001E2051310941095109569547953795A9
:1037200027952093B80064E08CE596E00E94331161
:103730006091C20261508CEB92E00E94E11164E062
:1037400088E596E00E9433118091DE0260E18130CD
:1037500009F064E18CEB92E00E94E11164E084E501
:1037600096E00E9433118FE88093F9028091C002A5
:103770009091C1028038910509F0B6C08091C202D3
:103780009091C3028034910509F0BEC08091DE02A1
:10379000813009F0A7C08FE98093F90212E16AED48
:1037A0008CEB92E00E94E111612F8CEB92E00E9481
:1037B000E11161E88CEB92E00E94E1116091F90265
:1037C0008CEB92E00E94E11169ED8CEB92E00E949B
:1037D000E1118091DE0262E2813009F061EF8CEB51
:1037E00092E00E94E11166E08EE496E00E943311BF
:1037F0008091D9029091DA02892B09F489C0209135
:10380000F5023091F6024091F7025091F80260E023
:1038100074E284EF90E00E94001E205131094109BA
:10382000510956954795379527952093B8000E94E2
:1038300043120BCE8091E0020E9492038091E1023C
:103840000E9492038091E002082E000C990BFC016B
:10385000E857F94FE491F0E0EE0FFF1FE459F94FFC
:10386000259134913093E6022093E502FC01E9555D
:10387000F94FE491E093ED028091E102082E000CF3
:10388000990BFC01E857F94FE491F0E0EE0FFF1FB0
:10389000E459F94FA591B491B093E802A093E702DF
:1038A000FC01E955F94FE491E093EE028C91E0952B
:1038B000E823EC93F8CE8091D7029091D802892B1F
:1038C00031F08091FA029091FB020E94EE08E091A3
:1038D000EB02F091EC0290818091F00280958923B7
:1038E000808321CF8FEC58CF8036910569F4809189
:1038F000C2029091C302409739F48091DE02813078
:1039000029F480E18093F90212E049CF8FEAFACFDF
:10391000E091EB02F091EC0280819091F002892B12
:10392000808385CF20E030E040E151ECC301B2015B
:103930000E948B1F18160CF47DCE20E030E040E092
:1039400050E4C701B6010E949E1E1816D4F0809163
:103950000C0190910D01A0910E01B0910F01B05892
:1039600080930C0190930D01A0930E01B0930F0171
:1039700080914C0290914D02019690934D0280935C
:103980004C0220911001309111014091120150918F
:103990001301C501B4010E94321E4B015C018092EB
:1039A000180190921901A0921A01B0921B01209166
:1039B0000C0130910D0140910E0150910F01C70192
:1039C000B6010E94321E609314017093150180931A
:1039D0001601909317010E94A31E2B01C501B4018B
:1039E0000E94A31E4B01A2014250510902E010E0C7
:1039F00025E030E08CEB92E00E94C50D82E0E82EDD
:103A0000F12C10E000E023E042E050E0B201C401FC
:103A10000E94D10D20E030E040E85FE360911801A2
:103A20007091190180911A0190911B010E949E1EB4
:103A300018160CF457C00E94D31382E08093D00272
:103A40008093D10283E290E09093C9028093C802F0
:103A5000AAE1B0E0B093CB02A093CA0289E791E05B
:103A60000E94C6138FE791E00E94C6130E94431282
:103A700080E090E0A0E8B2E48093180190931901EF
:103A8000A0931A01B0931B0180E090E0A0E0B2E4A3
:103A90008093140190931501A0931601B093170120
:103AA00080E090E0A0ECBFE38093100190931101BF
:103AB000A0931201B093130180E090E0A0E0B0E485
:103AC00080930C0190930D01A0930E01B0930F0110
:103AD00010924D0210924C0268E873E180E090E091
:103AE0000E94D90581E08093D0028093D102309268
:103AF000C9022092C8021092CB021092CA02C09052
:103B00004C02D0904D020D2C000CEE08FF08F7FE81
:103B100031C06DE28CEB92E00E942C0B2227332700
:103B2000A9012C193D094E095F0919A2DE019196E0
:103B30007D01CA01B9012AE030E040E050E00E9476
:103B4000001E605DF70162937F012115310541057B
:103B5000510579F7E114F10419F0C7010E94C61369
:103B60000E944312E0E0F0E0EF2B09F480CC0E94C9
:103B700000007ACCA701960119A2CE0181967C01A2
:103B8000CA01B9012AE030E040E050E00E94001E86
:103B9000605DD7016E937D01211531054105510509
:103BA00079F7D8CF81E591E09093BD028093BC0274
:103BB0008091DB029091DC02009711F00C94A6201A
:103BC0000895052E97FB1EF400940E94F81D57FDE2
:103BD00007D00E94001E07FC03D04EF40C94F81D81
:103BE00050954095309521953F4F4F4F5F4F089529
:103BF00090958095709561957F4F8F4F9F4F089559
:103C0000A1E21A2EAA1BBB1BFD010DC0AA1FBB1FE0
:103C1000EE1FFF1FA217B307E407F50720F0A21B52
:103C2000B30BE40BF50B661F771F881F991F1A94BF
:103C300069F760957095809590959B01AC01BD01E9
:103C4000CF010895A29FB001B39FC001A39F700D43
:103C5000811D1124911DB29F700D811D1124911D94
:103C600008955058BB27AA270E94491E0C94511F43
:103C70000E94431F38F00E944A1F20F039F49F3FF2
:103C800019F426F40C94401F0EF4E095E7FB0C9415
:103C90003A1FE92F0E94621F58F3BA176207730791
:103CA0008407950720F079F4A6F50C94841F0EF490
:103CB000E0950B2EBA2FA02D0B01B90190010C013C
:103CC000CA01A0011124FF27591B99F0593F50F454
:103CD000503E68F11A16F040A22F232F342F4427AC
:103CE000585FF3CF469537952795A795F0405395A4
:103CF000C9F77EF41F16BA0B620B730B840BBAF074
:103D00009150A1F0FF0FBB1F661F771F881FC2F7DE
:103D10000EC0BA0F621F731F841F48F487957795F2
:103D20006795B795F7959E3F08F0B0CF9395880FAC
:103D300008F09927EE0F9795879508950E94161F12
:103D400008F481E008950E94AA1E6894B1110C94B1
:103D5000851F08950E946A1F88F09F5798F0B92F19
:103D60009927B751B0F0E1F0660F771F881F991FB0
:103D70001AF0BA95C9F714C0B13091F00E94841FAF
:103D8000B1E008950C94841F672F782F8827B85FBF
:103D900039F0B93FCCF3869577956795B395D9F708
:103DA0003EF490958095709561957F4F8F4F9F4F12
:103DB0000895E89409C097FB3EF49095809570951E
:103DC00061957F4F8F4F9F4F9923A9F0F92F96E967
:103DD000BB279395F695879577956795B795F111DC
:103DE000F8CFFAF4BB0F11F460FF1BC06F5F7F4F79
:103DF0008F4F9F4F16C0882311F096E911C077238B
:103E000021F09EE8872F762F05C0662371F096E893
:103E1000862F70E060E02AF09A95660F771F881F62
:103E2000DAF7880F9695879597F90895990F000806
:103E3000550FAA0BE0E8FEEF16161706E807F9077C
:103E4000C0F012161306E407F50798F0621B730B17
:103E5000840B950B39F40A2661F0232B242B252B98
:103E600021F408950A2609F4A140A6958FEF811D3B
:103E7000811D089597F99F6780E870E060E00895DC
:103E80009FEF80EC089500240A9416161706180672
:103E90000906089500240A9412161306140605064E
:103EA0000895092E0394000C11F4882352F0BB0FDF
:103EB00040F4BF2B11F460FF04C06F5F7F4F8F4F42
:103EC0009F4F089557FD9058440F551F59F05F3F7D
:103ED00071F04795880F97FB991F61F09F3F79F02C
:103EE00087950895121613061406551FF2CF4695AE
:103EF000F1DF08C0161617061806991FF1CF869530
:103F00007105610508940895E894BB276627772713
:103F1000CB0197F908950E94161F08F48FEF0895BA
:103F20000E94A31F0C94511F0E94431F38F00E944F
:103F30004A1F20F0952311F00C943A1F0C94401F57
:103F400011240C94851F0E94621F70F3959FC1F38A
:103F5000950F50E0551F629FF001729FBB27F00D37
:103F6000B11D639FAA27F00DB11DAA1F649F66278C
:103F7000B00DA11D661F829F2227B00DA11D621FDB
:103F8000739FB00DA11D621F839FA00D611D221F95
:103F9000749F3327A00D611D231F849F600D211D79
:103FA000822F762F6A2F11249F5750409AF0F1F0FC
:103FB00088234AF0EE0FFF1FBB1F661F771F881F65
:103FC00091505040A9F79E3F510580F00C943A1F44
:103FD0000C94851F5F3FE4F3983ED4F38695779564
:103FE0006795B795F795E7959F5FC1F7FE2B880F0B
:103FF000911D9695879597F90895EE0FFF1F0590EF
:10400000F491E02D09940E94221EB7FF0895821BAF
:10401000930B08950F931F93CF93DF9382309105F5
:1040200010F482E090E0E091FE02F091FF0230E0B7
:1040300020E0B0E0A0E0309799F42115310509F4B3
:104040004AC0281B390B24303105D8F58A819B8161
:104050006115710589F1FB0193838283FE0111C013
:10406000408151810281138148175907E0F04817B8
:10407000590799F4109761F012960C9312971396C2
:104080001C933296CF01DF91CF911F910F9108952C
:104090000093FE021093FF02F4CF2115310551F079
:1040A0004217530738F0A901DB019A01BD01DF0176
:1040B000F801C1CFEF01F9CF9093FF028093FE0288
:1040C000CDCFFE01E20FF31F81939193225031096E
:1040D00039832883D7CF2091FC023091FD02232B16
:1040E00041F420911E0130911F013093FD02209375
:1040F000FC0220911C0130911D012115310541F474
:104100002DB73EB74091200150912101241B350B62
:10411000E091FC02F091FD02E217F307A0F42E1BE0
:104120003F0B2817390778F0AC014E5F5F4F24171B
:10413000350748F04E0F5F1F5093FD024093FC027D
:10414000819391939FCFF0E0E0E09CCFCF93DF93FA
:104150000097E9F0FC01329713821282A091FE02CF
:10416000B091FF02ED0130E020E01097A1F4208132
:104170003181820F931F2091FC023091FD0228179C
:10418000390709F061C0F093FD02E093FC02DF9172
:10419000CF910895EA01CE17DF07E8F54A815B81E8
:1041A0009E0141155105B1F7E901FB83EA8349916D
:1041B0005991C40FD51FEC17FD0761F480819181DF
:1041C0000296840F951FE9019983888382819381E8
:1041D0009B838A83F0E0E0E012968D919C91139787
:1041E0000097B9F52D913C911197CD010296820F60
:1041F000931F2091FC023091FD022817390739F6F0
:10420000309751F51092FF021092FE02B093FD021A
:10421000A093FC02BCCFD383C28340815181840F21
:10422000951FC817D90761F44E5F5F4F8881998148
:10423000480F591F518340838A819B8193838283D6
:104240002115310509F0B0CFF093FF02E093FE0293
:104250009ECFFD01DC01C0CF13821282D7CF81E057
:1042600090E0F8940C943B21DC0101C06D93415027
:104270005040E0F7089513E0C7E6D3E004C0FE0124
:104280000E94FD1F2196C836D107C9F7F894FFCFC9
:10429000FFFFFFFF00E10000000000000000004001
:1042A0000000C03F00000042000080420000000308
:1042B000800000C1808100000000000000C2040BEB
:1042C00006E304D8042905E7040505000000001DE5
:1042D00010F00FC3130004E90FD60FC70F00000042
:1042E000002C0B9504C313600F37080004AC0EA913
:1042F0000DC50DB90DB30E0004F2086D13A707F03C
:1043000007F20CD50C5D0CFE0B4F6F6F7073000D38
:024310000A00A1
:1070000055C000006EC000006CC000006AC00000E7
:1070100068C0000066C0000064C0000062C00000DC
:1070200060C000005EC00000FCC400005AC0000048
:1070300058C0000056C0000054C0000052C00000FC
:1070400050C000005DC000004CC000004AC00000FD
:1070500048C0000046C0000044C0000042C000001C
:1070600040C000003EC000003CC000003AC000002C
:1070700038C0000036C0000034C0000032C000003C
:1070800030C000002EC000002CC000002AC000004C
:1070900028C0000026C0000024C0000022C000005C
:1070A00020C000001EC000001CC0000011241FBE34
:1070B000CFEFDAE0DEBFCDBF11E0A0E0B1E0E6E463
:1070C000FFE702C005900D92A43BB107D9F711E08C
:1070D000A4EBB1E001C01D92AD3CB107E1F74FD385
:1070E00030C78ECFF89410926F001092810081E02B
:1070F00085BF15BE47985D9A289A0C9400000895A4
:107100001F920F920FB60F9211242F938F939F937C
:10711000EF93FF9310928500109284008091B40148
:107120009091B501009741F001979093B50180933C
:10713000B401892B09F45D9A8091B6019091B70151
:10714000009741F001979093B7018093B601892B86
:1071500009F4289A8091BA019091BB01019690930D
:10716000BB018093BA01E0E0F0E0859194918F5FDC
:107170009F4F49F08091B8019091B9010196909389
:10718000B9018093B801FF91EF919F918F912F9159
:107190000F900FBE0F901F90189584E08093E90028
:1071A0000DC08091E8008B778093E80003C08EB318
:1071B000882351F08091E80082FFF9CF8091E800A8
:1071C00085FFEFCF8091F1000895982F83E08093A1
:1071D000E9008091E80085FD0DC08091E8008E7780
:1071E0008093E80003C08EB3882369F08091E800A3
:1071F00080FFF9CF9093F1005D9884E690E0909342
:10720000B5018093B40108954F925F926F927F927F
:107210008F929F92AF92BF92CF92DF92EF92FF92A6
:107220000F931F93CF93DF9384E08093E9008091C5
:10723000E80082FF57C2289884E690E09093B70157
:107240008093B601AADF182F853481F48CE49DE188
:107250009093B9018093B80107B600FCFDCFF9996E
:10726000FECF81E180935700E89503C0843519F47F
:1072700094DF8DE00DC28C34E1F38035D1F3843797
:1072800021F484E4A2DF80E003C2813611F489E5B1
:10729000FFC18134B1F481DF182F7FDF90E0880FC8
:1072A000991FAA2797FDA095BA2F312F330F20E001
:1072B000442737FD4095542F822B932BA42BB52BBD
:1072C000B8C1803711F483E5E3C1833549F4C0E0E8
:1072D000D1E089917ADF21E0C730D207D1F7D9C157
:1072E000863521F481E371DF80E3D2C1833731F445
:1072F00087E86BDF85E969DF8EE1CAC18536B9F4BD
:10730000E0E0F0E093E085E090935700E89507B661
:1073100000FCFDCF80935700E89507B600FCFDCF39
:10732000E058FF4FA0E7E030FA0771F7A2CF8237AD
:1073300039F4E1E0F0E089E0809357008491A8C13E
:10734000863439F4E0E0F0E089E0809357008491DE
:107350009FC18E3439F4E3E0F0E089E08093570078
:10736000849196C1813539F4E2E0F0E089E08093C0
:10737000570084918DC1823631F489E526DF80E0A3
:1073800024DF80E885C1823419F0873609F0E5C032
:107390001092B9011092B80100DF082FFEDEF82E1E
:1073A000FCDE682E8554823008F071C1902F80E099
:1073B000CF2DD0E0C82BD92B10926F00173609F0D3
:1073C0004BC081E180935700E895DD24CC24C39421
:1073D0003FC0E090BD01F090BE010091BF0110914F
:1073E000C001B6E46B16D9F4ED2DF0E0EE29FF29CB
:1073F000E4918E2FEADEDD2081F082E090E0A0E0D3
:10740000B0E0E80EF91E0A1F1B1FE092BD01F092CA
:10741000BE010093BF011093C001DC2418C0D80145
:10742000C701B695A7959795879575D5CEDE82E06D
:1074300090E0A0E0B0E0E80EF91E0A1F1B1FE092EA
:10744000BD01F092BE010093BF011093C0012197CE
:10745000209709F0BECF7DC08090BD019090BE0105
:10746000A090BF01B090C00196E4691609F05DC01C
:1074700083E0F40180935700E89507B600FCFDCF48
:1074800054C0F6E46F1661F5772031F1E090BD014C
:10749000F090BE010091BF011091C0017EDED82E98
:1074A000CC24852D90E08C299D29F7010C01409278
:1074B0005700E895112482E090E0A0E0B0E0E80EEB
:1074C000F91E0A1F1B1FE092BD01F092BE0100933E
:1074D000BF011093C00102C060DE582E742423C087
:1074E000E090BD01F090BE010091BF011091C0017C
:1074F00016950795F794E79450DE682FC70113D5CA
:107500008091BD019091BE01A091BF01B091C001D9
:107510000296A11DB11D8093BD019093BE01A09361
:10752000BF01B093C001219704C05524772444249F
:107530004394209709F0A5CF96E4691641F485E0BD
:10754000F40180935700E89507B600FCFDCF8DE06D
:107550003CDE82E080936F009CC0833471F4009124
:10756000BD011091BE0119DE90E021E0F8010C018F
:1075700020935700E89511247CCE833619F5E090CE
:10758000BD01F090BE010091BF011091C00105DE68
:10759000F701E16090E021E00C0120935700E895AD
:1075A000112482E090E0A0E0B0E0E80EF91E0A1F8E
:1075B0001B1FE092BD01F092BE010093BF0110932A
:1075C000C00157CE8D3661F4E091BD01F091BE014E
:1075D00085E080935700E89507B600FCFDCF49CEC3
:1075E000823551F4E091BD01F091BE0105911491F5
:1075F000812FEBDD802F4CC0843421F5E090BD015C
:10760000F090BE010091BF011091C0011695079541
:10761000F794E794C2DD682FC70185D48091BD013E
:107620009091BE01A091BF01B091C0010296A11D31
:10763000B11D8093BD019093BE01A093BF01B09393
:10764000C00117CE843609F5E090BD01F090BE016F
:107650000091BF011091C001D801C701B695A7954F
:107660009795879558D4B1DD82E090E0A0E0B0E036
:10767000E80EF91E0A1F1B1FE092BD01F092BE0129
:107680000093BF011093C00104C08B3111F08FE350
:107690009CDD83E08093E9009091E8008091E80010
:1076A0008E778093E80095FF04C010C08EB38823C6
:1076B000C9F08091E80080FFF9CF8091E8008E77D3
:1076C0008093E80003C08EB3882361F08091E800C6
:1076D00080FFF9CF84E08093E9008091E8008B7708
:1076E0008093E800DF91CF911F910F91FF90EF9071
:1076F000DF90CF90BF90AF909F908F907F906F90D2
:107700005F904F9008959091C501892F8F778132B6
:1077100049F58091C6018032A1F0813219F5913A84
:1077200009F58091E800877F8093E8008CE091E084
:1077300067E070E027D28091E8008B778093E800C3
:107740000895913279F48091E800877F8093E80072
:107750008CE091E067E070E079D28091E8008E776C
:107760008093E800089582E061EC42E0D1D083E0AC
:1077700061E842E1CDD084E060E842E1C9C01F93F6
:10778000209100081092000844B714BE88E10FB69B
:10779000F89480936000109260000FBE80E8E0E0F3
:1077A000F0E00FB6F89480936100E09361000FBEA3
:1077B00031E035BF92E095BF3F9A209A559A809369
:1077C00061001092610047985D9A289A1092890092
:1077D0008AEF8093880090936F0083E0809381000C
:1077E000859194918F5F9F4F11F03093BC01942F3E
:1077F00041FF19C0809109012817A9F08093000862
:10780000789480911301882339F08091BA01909186
:10781000BB018F5E9240C8F3F8941092000881E09B
:10782000809313010CC090FF04C08091BC01882399
:1078300051F493FF09C080910901281729F0809124
:10784000BC01882309F04EDCD4D078941092B901A1
:107850001092B8011EEF20C0D7DC4BD38091B80145
:107860009091B90181549F4110F0109213018091C1
:10787000C1019091C20101969093C2018093C10110
:10788000292F97FF03C0512F591B252F220F28178F
:1078900010F4479801C0479A809113018823E1F6BC
:1078A0008091E00081608093E0001CDC80E090E04B
:1078B0001F910895FA01923049F0933061F09130B0
:1078C000F9F484E191E022E130E01EC086E291E02B
:1078D0002EE330E019C0882329F484E691E024E007
:1078E00030E012C0813029F488E691E02EE130E0EA
:1078F0000BC0823029F488E891E02AE230E004C02D
:1079000080E090E020E030E091838083C901089519
:107910008093E9008091EB0081608093EB001092EE
:10792000ED006093EC004093ED008091EE00881F25
:107930008827881F08958091C50188238CF403C08F
:107940008EB38823B1F08091E80082FFF9CF809157
:10795000E8008B778093E80008958EB3882349F080
:107960008091E80080FFF9CF8091E8008E778093C6
:10797000E8000895EF92FF920F931F9345D04CD0EB
:1079800008ED10E0F80180818F7780838081806826
:10799000808380818F7D808319BC1EBA1092C301C1
:1079A00080EEE82EF12CF70180818B7F8083F80137
:1079B00080818160808380E060E042E0A9DFE1EEC9
:1079C000F0E080818E7F8083E2EEF0E08081816054
:1079D0008083808188608083F70180818E7F8083AF
:1079E000F8018081806180831F910F91FF90EF905B
:1079F0000895E7EDF0E08081816080838AE482BFB2
:107A000081E08093C401B6CFE8EDF0E080818E7F05
:107A100080831092E20008951092DA001092E10043
:107A200008951F920F920FB60F9211242F933F9338
:107A30004F935F936F937F938F939F93AF93BF9376
:107A4000EF93FF938091DA0080FF1BC08091D800F4
:107A500080FF17C08091DA008E7F8093DA008091DA
:107A6000D90080FF0BC080E189BD82E189BD09B4E6
:107A700000FEFDCF81E08EBB3BD203C019BC1EBA15
:107A800037D28091E10080FF17C08091E20080FF33
:107A900013C08091E2008E7F8093E2008091E2002B
:107AA00080618093E2008091D80080628093D8004A
:107AB00019BC85E08EBB1CD28091E10084FF2CC0F4
:107AC0008091E20084FF28C080E189BD82E189BD08
:107AD00009B400FEFDCF8091D8008F7D8093D8003F
:107AE0008091E1008F7E8093E1008091E2008F7EA3
:107AF0008093E2008091E20081608093E2008091B7
:107B0000C301882331F48091E30087FD02C081E046
:107B100001C084E08EBBECD18091E10083FF21C0E5
:107B20008091E20083FF1DC08091E100877F8093F8
:107B3000E10082E08EBB1092C3018091E1008E7F54
:107B40008093E1008091E2008E7F8093E20080913B
:107B5000E20080618093E20080E060E042E0D8DEF5
:107B6000C7D1FF91EF91BF91AF919F918F917F917D
:107B70006F915F914F913F912F910F900FBE0F909A
:107B80001F9018959C014091CB015091CC01461754
:107B9000570718F4F90190E044C06115710511F020
:107BA000AB01F8CF8091E8008E778093E80040E049
:107BB00050E0F0CF8EB3882309F444C0853009F437
:107BC00043C08091E80083FF02C081E00895809166
:107BD000E80082FD31C08091E80080FF22C08091E2
:107BE000F3009091F200782F60E0292F30E0262BEF
:107BF000372B07C081918093F100415050402F5F97
:107C00003F4F4115510519F02830310598F390E0A8
:107C10002830310509F491E08091E8008E77809357
:107C2000E8004115510531F6992321F605C08EB3C0
:107C3000882341F0853041F08091E80082FFF7CF42
:107C400080E0089582E0089583E008959C01611525
:107C5000710529F48091E8008B778093E800F901A1
:107C600026C08EB3882391F1853091F18091E80090
:107C700083FF02C081E008958091E80082FFF1CF88
:107C800006C08091F10081936150704059F02091BD
:107C9000F3008091F200322F20E090E0822B932BB2
:107CA000892B79F78091E8008B778093E800611544
:107CB0007105B9F605C08EB3882341F0853041F0D7
:107CC0008091E80080FFF7CF80E0089582E008957A
:107CD00083E008950F931F93DF93CF9300D0CDB728
:107CE000DEB7E5ECF1E08091F100819381E0ED3CBD
:107CF000F807C9F708DD8091E80083FFE4C08091B0
:107D0000C5019091C601953009F46DC0963040F4DC
:107D1000913081F1913070F0933009F0D4C02AC0D5
:107D2000983009F4A3C0993009F4B2C0963009F034
:107D3000CAC07CC0803809F4C6C0823809F0C3C00C
:107D40008091C90187708093E9008091EB001092C7
:107D5000E9002091E800277F2093E80090E025E0EB
:107D6000969587952A95E1F781708093F10010929E
:107D7000F10087C0882319F0823009F0A4C08F7108
:107D8000823009F0A0C08091C701882331F520918D
:107D9000C901277009F497C02093E9008091EB0096
:107DA00080FF1BC0933021F48091EB00806213C0F0
:107DB0008091EB0080618093EB0081E090E002C055
:107DC000880F991F2A95E2F78093EA001092EA0043
:107DD0008091EB0088608093EB001092E900809125
:107DE000E800877F51C0882309F06DC01091C7015A
:107DF0001F770FB7F8948091E800877F8093E800A1
:107E00009ADD8091E80080FFFCCF8091E3008078CC
:107E1000812B8093E30080688093E300112311F4A9
:107E200082E001C083E08EBB0FBF4DC0805882301E
:107E300008F049C08091C7019091C8016091C901C3
:107E4000AE014F5F5F4F36DDBC01009709F43BC0C8
:107E50008091E800877F8093E80089819A8192DE93
:107E60008091E8008B778093E8002DC0803859F529
:107E70008091E800877F8093E8008091C301809320
:107E8000F1008091E8008E778093E80054DD1BC0FC
:107E90008823C9F49091C7019230A8F48091E8003A
:107EA000877F8093E8009093C30145DD8091C301F3
:107EB000882331F48091E30087FD02C081E001C096
:107EC00084E08EBB50DC8091E80083FF0AC0809183
:107ED000EB0080628093EB008091E800877F8093C5
:107EE000E8000F900F90CF91DF911F910F910895AF
:107EF00008951F938EB3882361F01091E9001092CA
:107F0000E9008091E80083FF01C0E4DE1770109360
:107F1000E9001F910895F999FECF92BD81BDF89AAD
:107F2000992780B50895262FF999FECF1FBA92BDE3
:107F300081BD20BD0FB6F894FA9AF99A0FBE01964A
:107F40000895F894FFCF4341544552494E4100777C
:107F500000080000000000000801120110010200EA
:107F600000084F1B059201000201000109023E00BA
:107F70000201008032090400000102020100052410
:107F800000100104240204052406000107058203F1
:107F90000800FF09040100020A00000007050402AE
:107FA00010000107058302100001040309041E03E9
:107FB000500072006F0020004D00690063007200E5
:107FC0006F002000350056002000200000002A032A
:107FD00053007000610072006B00460075006E0077
:107FE000200045006C0065006300740072006F00A3
:0A7FF0006E006900630073000000DA
:00000001FF
