:100000000C94F7020C941F030C941F030C941F0311
:100010000C941F030C941F030C941F030C941F03D8
:100020000C941F030C941F030C941F030C942F11AA
:100030000C941F030C941F030C941F030C941F03B8
:100040000C94E5100C941F030C941F030C941F03D5
:100050000C941F030C941F030C941F030C941F0398
:100060000C9456120C941F0300000000003E5B4FDE
:100070005B3E3E6B4F6B3E1C3E7C3E1C183C7E3C08
:10008000181C577D571C1C5E7F5E1C00183C180016
:10009000FFE7C3E7FF0018241800FFE7DBE7FF30A6
:1000A000483A060E2629792926407F050507407F14
:1000B00005253F5A3CE73C5A7F3E1C1C08081C1C87
:1000C0003E7F14227F22145F5F005F5F06097F017D
:1000D0007F006689956A606060606094A2FFA29468
:1000E00008047E040810207E201008082A1C080836
:1000F0001C2A08081E101010100C1E0C1E0C303884
:100100003E3830060E3E0E06000000000000005F84
:1001100000000007000700147F147F14242A7F2AA0
:100120001223130864623649562050000807030062
:10013000001C2241000041221C002A1C7F1C2A08AE
:10014000083E080800807030000808080808000011
:1001500060600020100804023E5149453E00427F85
:10016000400072494949462141494D331814127FD4
:100170001027454545393C4A494931412111090774
:100180003649494936464949291E000014000000F5
:1001900040340000000814224114141414140041C7
:1001A00022140802015909063E415D594E7C121184
:1001B000127C7F494949363E414141227F414141BC
:1001C0003E7F494949417F090909013E4141517337
:1001D0007F0808087F00417F41002040413F017FA8
:1001E000081422417F404040407F021C027F7F0470
:1001F00008107F3E4141413E7F090909063E4151B9
:10020000215E7F09192946264949493203017F01A8
:10021000033F4040403F1F2040201F3F4038403FA9
:10022000631408146303047804036159494D4300BF
:100230007F4141410204081020004141417F0402F6
:10024000010204404040404000030708002054548D
:1002500078407F284444383844444428384444286B
:100260007F385454541800087E090218A4A49C78BE
:100270007F0804047800447D40002040403D007F1A
:100280001028440000417F40007C047804787C08FA
:100290000404783844444438FC18242418182424CE
:1002A00018FC7C08040408485454542404043F44B3
:1002B000243C4040207C1C2040201C3C4030403CE2
:1002C00044281028444C9090907C4464544C440042
:1002D00008364100000077000000413608000201A6
:1002E0000204023C2623263C1EA1A161123A404092
:1002F000207A38545455592155557941225454780F
:1003000042215554784020545579400C1E527212A7
:100310003955555559395454545939555454580030
:1003200000457C410002457D420001457C407D1234
:1003300011127DF0282528F07C5455450020545496
:100340007C547C0A097F4932494949323A44444441
:100350003A324A4848303A4141217A3A424020787C
:10036000009DA0A07D3D4242423D3D4040403D3C7D
:1003700024FF2424487E4943662B2FFC2F2BFF09A2
:1003800029F620C0887E0903205454794100004496
:100390007D413048484A32384040227A007A0A0A81
:1003A000727D0D19317D2629292F282629292926F4
:1003B00030484D4020380808080808080808382F39
:1003C00010C8ACBA2F102834FA00007B00000814C3
:1003D0002A142222142A14085500550055AA55AA99
:1003E00055AAFF55FF55FF000000FF00101010FF39
:1003F00000141414FF001010FF00FF1010F010F094
:10040000141414FC001414F700FF0000FF00FF1484
:1004100014F404FC141417101F10101F101F1414D0
:10042000141F00101010F0000000001F101010101A
:100430001F10101010F010000000FF10101010100E
:1004400010101010FF10000000FF140000FF00FF4C
:1004500000001F10170000FC04F4141417101714E8
:1004600014F404F40000FF00F7141414141414140A
:10047000F700F7141414171410101F101F1414147D
:10048000F4141010F010F000001F101F0000001FE7
:1004900014000000FC140000F010F01010FF10FF1A
:1004A000141414FF141010101F00000000F010FFAF
:1004B000FFFFFFFFF0F0F0F0F0FFFFFF0000000093
:1004C00000FFFF0F0F0F0F0F3844443844FC4A4A17
:1004D0004A347E02020606027E027E0263554941CC
:1004E000633844443C04407E201E2006027E020203
:1004F00099A5E7A5991C2A492A1C4C7201724C3017
:100500004A4D4D303048784830BC625A463D3E49ED
:100510004949007E0101017E2A2A2A2A2A44445F91
:10052000444440514A444040444A51400000FF0185
:1005300003E080FF000008086B6B08361236243693
:10054000060F090F060000181800000010100030F8
:1005500040FF0101001F01011E00191D1712003C80
:100560003C3C3C0000000000000103070F1F3F7FE0
:100570000080C0E0F0F8FCFE000000002300260030
:100580002900000000080002010000030407000029
:1005900000000000000000000000240027002A00E6
:1005A000DB40A4A62EAF2000A1C8D300408DAED55D
:1005B00080A80102040810204080010204081020D5
:1005C00001020408102000000000250028002B0074
:1005D00004040404040404040202020202020303E9
:1005E000030303032200FF21000075135F1711248A
:1005F0001FBECFEFD8E0DEBFCDBF22E0A6E6B1E060
:1006000001C01D92A03BB207E1F711E0A0E0B1E00C
:10061000E0E7F6E302C005900D92A636B107D9F7E0
:1006200012E0C6EFD2E004C02197FE010E94271914
:10063000C53FD107C9F70E94D0130C942B1B0C9413
:10064000000008950895AF92BF92CF92DF92EF928B
:10065000FF920F931F93CF93DF936C017B018B016C
:10066000040F151FEB015E01AE18BF08C017D107BC
:1006700059F06991D601ED91FC910190F081E02D46
:10068000C6010995892B79F7C501DF91CF911F919B
:100690000F91FF90EF90DF90CF90BF90AF900895B3
:1006A000833081F028F4813099F08230A9F00895E8
:1006B0008730A9F08830C9F08430B1F4809180008F
:1006C0008F7D03C0809180008F7780938000089594
:1006D00084B58F7784BD089584B58F7DFBCF8091DD
:1006E000B0008F778093B00008958091B0008F7D27
:1006F000F9CF1F93CF93DF93282F30E0F901EE5706
:10070000FA4F8491F901EE54FA4FD491F901E05374
:10071000FA4FC491CC23A9F0162F81110E945003E7
:10072000EC2FF0E0EE0FFF1FEA53FA4FA591B491C2
:100730008FB7F894EC91111108C0D095DE23DC93AB
:100740008FBFDF91CF911F910895DE2BF8CFCF930C
:10075000DF9390E0FC01EE54FA4F249180539A4FBE
:10076000FC0184918823D1F090E0880F991FFC014F
:10077000EA56FA4FA591B491FC01EA53FA4FC5919C
:10078000D49161110EC09FB7F8948C91E22FE0953F
:100790008E238C932881E223E8839FBFDF91CF9142
:1007A00008958FB7F894EC91E22BEC938FBFF6CFBE
:1007B0003FB7F8948091290290912A02A0912B02D0
:1007C000B0912C0226B5A89B05C02F3F19F00196C9
:1007D000A11DB11D3FBFBA2FA92F982F8827BC019B
:1007E000CD01620F711D811D911D42E0660F771FC3
:1007F000881F991F4A95D1F708958F929F92AF92C3
:10080000BF92CF92DF92EF92FF924B015C010E9468
:10081000D8036B017C010E94D8036C197D098E09F5
:100820009F09683E734081059105A8F321E0821A73
:100830009108A108B10888EEC80E83E0D81EE11C1B
:10084000F11C81149104A104B10429F7FF90EF90E9
:10085000DF90CF90BF90AF909F908F900895EF92D0
:10086000FF920F931F93CF93DF93EC01EC80FD80F9
:100870006E157F050CF070C057FF04C0240F351FA4
:1008800050E040E08E819F81FA01E20FF31F8E1746
:100890009F071CF49C01241B350B121613060CF049
:1008A0005BC0922F842F8695869586958E9DD0016C
:1008B0008F9DB00D11246A0F7B1FAF8DB8A1A60FBD
:1008C000B71F477049F188E0841B482F682F70E0FC
:1008D000FB01E059FA4FE491281708F063C0621B4E
:1008E00071092FEF30E002C0359527956A95E2F740
:1008F000E2230130110539F0B0F10230110561F544
:100900008C91E82702C08C91E82BEC93941720F18E
:100910002C813D81A20FB31FE92FE41BE83078F052
:100920000230110521F58E2F9C9190959C932C817E
:100930003D81A20FB31F88508830B0F7E770EE23D7
:1009400059F0F0E0E859FA4FE49101301105F9F05F
:1009500010F10230110519F1DF91CF911F910F9124
:10096000FF90EF900895E0958C91E823CECF81E041
:100970000115110509F480E081959E2F8C932C813F
:100980003D81A20FB31F98509830C0F7D7CF8C91FC
:10099000E82BEC93E1CFE0958C91E823FACF8C9192
:1009A000E827F7CF0130110509F4ADCFE0F20230AE
:1009B000110509F4A5CFAE0DBF1DAECF0F931F9348
:1009C000CF93DF9377FF04C0260F371F70E060E0FE
:1009D000DC011496CD91DC91FB01E20FF31FCE17E1
:1009E000DF071CF49E01261B370B121613064CF56D
:1009F000FA0157FD3796A3E0F595E795AA95E1F73B
:100A0000EC9FD001ED9FB00DFC9FB00D11246A0F3B
:100A10007B1FDC015F96ED91FC91E60FF71F47709D
:100A2000552781E090E001C0880F4A95EAF7482FEA
:100A30000130110559F0A8F02E0F3F1F02301105AB
:100A4000E1F0DF91CF911F910F9108952E0F3F1F7D
:100A5000E217F307B1F38191DF011197842B8C9397
:100A6000F7CF80952E0F3F1FE217F30751F39191B7
:100A7000DF01119798239C93F7CFE217F30709F34F
:100A80008191DF01119784278C93F7CF0F931F93E8
:100A9000FA01DC0156964C9156974230E9F043300A
:100AA000A1F1413061F514964D915C91DA01AE1BD4
:100AB000BF0BFD01E21BF30B77FD0BC0DC011696AB
:100AC0004D915C916417750724F4AB01BF010E943E
:100AD000DE041F910F91089514964D915C91DA01F7
:100AE000A61BB70BBD0161507109DC0116964D9133
:100AF0005C91DA01AE1BBF0BFD01E21BF30B77FD2E
:100B0000E8CFAF010E942F04E4CF16964D915C917F
:100B1000DA01A61BB70BBD0161507109CDCF0F9350
:100B20001F93FA01DC0156964C9156974230A9F07A
:100B3000433091F1413019F514964D915C91DA01F1
:100B4000AE1BBF0BFD013197F7FD04C0AB01BF0128
:100B50000E942F041F910F91089514964D915C915E
:100B6000DA01A61BB70BBD01DC0116964D915C9115
:100B7000DA01AE1BBF0BFD013197621B730BF7FD52
:100B8000E9CFDC0116964D915C91E417F50714F757
:100B9000AF010E94DE04DECF16964D915C91DA0122
:100BA000A61BB70BBD01621B730BCECFFC0177FDFB
:100BB00064C080859185681779070CF05EC057FD89
:100BC0005CC082859385481759070CF056C086890A
:100BD0008230B1F0833029F1813041F484819581F4
:100BE000841B950BAB01BC016150710921303105AB
:100BF00009F108F443C02230310509F463C00895B7
:100C000084819581DC01A61BB70BBD016150710980
:100C100086819781DC01A41BB50BAD0141505109C0
:100C2000E5CF86819781861B970BBA01AC014150B5
:100C30005109DCCFCA0157FD0796A3E0959587952A
:100C4000AA95E1F7A481B5818A9F90018B9F300D11
:100C50009A9F300D1124620F731F078CF0A1E02DB5
:100C6000E60FF71F4770552721E030E001C0220F43
:100C70004A95EAF78081822B80830895CA0157FD47
:100C8000079633E0959587953A95E1F7A481B5816C
:100C90008A9F90018B9F300D9A9F300D1124620F17
:100CA000731F078CF0A1E02DE60FF71F4770552743
:100CB00081E090E001C0880F4A95EAF78095908125
:100CC0008923DACFCA0157FD079623E095958795CA
:100CD0002A95E1F7A481B5818A9F90018B9F300D01
:100CE0009A9F300D1124620F731F078CF0A1E02D25
:100CF000E60FF71F4770552721E030E001C0220FB3
:100D00004A95EAF780818227B7CF08958EBD00000B
:100D10000DB407FEFDCF8EB508958CBD9DBD089521
:100D20000895FC016370668B8481958126813781EB
:100D3000613039F0633029F09187808733872287CB
:100D40000895318720879387828708952F923F9255
:100D50004F925F926F927F928F929F92AF92BF92CB
:100D6000CF92DF92EF92FF920F931F93CF93DF9377
:100D7000CDB7DEB76A970FB6F894DEBF0FBECDBF12
:100D80009A8F898F7A8369834A01D22E18870F83BD
:100D90003701BC2CDC0159962D913C915A972115B5
:100DA000310509F015C118968D919C911997681716
:100DB00079070CF0D7C11A968D919C914817590765
:100DC0000CF0D0C14C2C512CB6E0CB9E600D711DA7
:100DD00011247C876B87161617060CF0C3C1EA2D09
:100DE000F0E0FA87E98793E0EE0FFF1F9A95E1F7AD
:100DF000F88BEF87CF01840F951F181619060CF09A
:100E0000B1C1A98DBA8D58968C91811104C0BFEAE9
:100E1000BD1508F4D394A98DBA8DED91FC9111976D
:100E20000284F385E02DCD010995B5E0DB9EC0017C
:100E30001124E981FA81FC83EB83312C212C9C0164
:100E400028593F4F388F2F8B4A2D50E05E8B4D8BAA
:100E5000EF89F88DE20DF31D44919E828D82D12C95
:100E6000C12C69817A81620D731D7A8B698B842F05
:100E700090E09C8B8B8BE98DFA8DA081B18140FF36
:100E800082C0F1E0BF126FC0AF126DC01C96ED9131
:100E9000FC912F813885A4014C0D5D1D69897A89EB
:100EA000898D9A8D0995EB89FC89F595E7954E2FEB
:100EB0005FEFC51AD50A6D817E818D899E89680F85
:100EC000791F7E836D8398E0C916D10481F6AFEF58
:100ED0002A1A3A0AEB81FC81E40DF51DFC83EB83B1
:100EE000F5E02F16310409F0B3CF2F813885261590
:100EF0003705B9F0A98DBA8DED91FC91B1E0BB1227
:100F000057C0AB1255C069817A816B5F7F4F0088F3
:100F1000F189E02D830128E030E0A401898D9A8DCC
:100F20000995A98DBA8DED91FC9111970688F789E5
:100F3000E02DCD016A960FB6F894DEBF0FBECDBF8F
:100F4000DF91CF911F910F91FF90EF90DF90CF90A5
:100F5000BF90AF909F908F907F906F905F904F90D9
:100F60003F902F9009941E96ED91FC91EF80F884AC
:100F700009851A8592014D815E816B817C81898D05
:100F80009A8D099590CF2F8138852615370509F45C
:100F90008ACF31E0B31207C0A31205C01C96ED91B1
:100FA000FC91930178CF1E96ED91FC917301E0CFF7
:100FB0006B857C85641975090684F785E02D7301BE
:100FC0000F8518899201A401898D9A8D0995A9CF61
:100FD000F90134969491329745915491D91AB7E01A
:100FE000DB9E400D511D1124F901259134913C8B5C
:100FF0002B8BFA0125903490FA0132967490319639
:101000003491398B329664903196449041E04C157E
:1010100018F04A1508F07FC0662D062C000C770BDF
:101020007C836B83842D042C000C990B9E838D8311
:10103000A98DBA8DED91FC9111970284F385E02D75
:10104000CD010995512CD12CC12CEA2DF0E0FA8765
:10105000E9872B2D30E03C872B87A401440D511DDF
:1010600047FC5A95588F4F8B69817A81660D711DA7
:1010700067FC7A957E876D877989C71608F051CF0E
:101080002C2D30E04D815E81420F531FA985BA851A
:101090004A9FC0014B9F900D5A9F900D1124FC0157
:1010A000E80DF91DF88BEF87852D612C4F89588D40
:1010B000420F531F5E8B4D8B671408F050C04424C1
:1010C0004394480E877041F4C1010196EB89FC8975
:1010D000E20DF31DD4901C01D7FE19C0A98DBA8D65
:1010E000ED91FC91662D70E0B1E0BB1219C0AB121E
:1010F00017C02D853E85620F731F0484F585E02D92
:101100002F8138854D895E89898D9A8D0995DD0CF1
:101110006394842DD1CF1E821D821C821B8288CFB6
:101120004B815C81640F751FAB85BC856A9FC001D4
:101130006B9F900D7A9F900D112469817A81680FC1
:10114000791F0684F785E02DEF80F88409851A85DC
:101150009D014F855889898D9A8D0995D8CF570C57
:10116000C3948ACF6A960FB6F894DEBF0FBECDBF88
:10117000DF91CF911F910F91FF90EF90DF90CF9073
:10118000BF90AF909F908F907F906F905F904F90A7
:101190003F902F9008958F929F92AF92CF92EF92AF
:1011A000FF920F931F93CF93DF93EC01262F898D2E
:1011B0009A8D009709F051C06A30D1F41D861C86C3
:1011C0008D8948E0849F900111248E859F85820F30
:1011D000931F9F878E8781E090E0DF91CF911F91D1
:1011E0000F91FF90EF90CF90AF909F908F900895C8
:1011F0006D3089F3CC88AD888F898823C1F08C85C8
:101200009D8536E0C39E800D911D1124488559852A
:101210004817590764F44E855F851D861C8638E0A3
:10122000A39EC0011124840F951F9F878E87EA8893
:10123000FB88088919894E855F856C857D85CE017F
:101240000E94A6062C898C859D8546E0249F800DF2
:10125000911D11249D878C87BECF6A3069F41D864D
:101260001C86FC013896E4912D898E859F85E29F2E
:10127000800D911D1124ADCF6D3009F4ACCFFC0170
:1012800034963491631708F4A6CF3296E491E617AA
:1012900008F4A1CFFC01329685909490462F431B11
:1012A000342F47E0349F800C911C1124F4013296B6
:1012B00034913196E4913323A9F1EE2399F1CC884E
:1012C000F4013596E491AD884F89442301F10E2E47
:1012D000000CFF0BE30FF11DCE9EA001CF9E500D21
:1012E00011246C857D85460F571F688579856417A5
:1012F00075076CF44E855F851D861C86FC0138964B
:10130000E491AE9E400D511D11245F874E87EA88FF
:10131000FB88088919894E855F856C857D85CE019E
:101320000E94A606F4013496E4912C898C859D8553
:10133000E29F800D911D11248DCF6F927F928F922D
:101340009F92AF92BF92CF92DF92EF92FF920F9354
:101350001F93CF93DF93EC016B015A0139014801D0
:10136000E881F9810284F385E02D0995E881F9810E
:101370000288F389E02D87019301A501B601CE0112
:101380000995A501480D591D41505109E881F98180
:101390000288F389E02D9301B601CE010995E88119
:1013A000F9810088F189E02D9401A501B601CE01F3
:1013B0000995C60CD71CB60161507109E881F98105
:1013C0000088F189E02D9401A501CE010995E881FD
:1013D000F9810688F789E02DCE01DF91CF911F9129
:1013E0000F91FF90EF90DF90CF90BF90AF909F90C4
:1013F0008F907F906F9009946F927F928F929F92BF
:10140000AF92BF92CF92DF92EF92FF920F931F9312
:10141000CF93DF935C01EB016A0149013801870139
:10142000DC01ED91FC916217730719F564167506DE
:101430002CF0962D872D3A01C92ED82E960126190B
:1014400037092F5F3F4F048CF58DE02DA301BE01BE
:10145000C5010995DF91CF911F910F91FF90EF90FA
:10146000DF90CF90BF90AF909F908F907F906F90C4
:1014700008954615570591F42617370724F0892D4E
:101480004B01C22FD82F9E01281939092F5F3F4FDA
:10149000068CF78DE02DA601B401DACF0284F38526
:1014A000E02D0995D501ED91FC910488F589E02D99
:1014B00083019401A601BE01C5010995D501ED91F5
:1014C000FC910688F789E02DC501DF91CF911F912E
:1014D0000F91FF90EF90DF90CF90BF90AF909F90D3
:1014E0008F907F906F900994EF92FF920F931F93CC
:1014F000DC011A960D911C911B9718962D913C9129
:101500001997ED91FC9100A0F1A1E02D7B0150E035
:1015100040E070E060E009951F910F91FF90EF901F
:1015200008954F925F926F927F928F929F92AF92A7
:10153000BF92CF92DF92EF92FF920F931F93CF93C0
:10154000DF936C012B015A0139014801DC01ED9157
:10155000FC910284F385E02D0995E201640C751C71
:10156000D601ED91FC91C615D7055CF40088F18990
:10157000E02D87019401A501BE01C60109952196C0
:10158000EFCF0688F789E02DC601DF91CF911F913B
:101590000F91FF90EF90DF90CF90BF90AF909F9012
:1015A0008F907F906F905F904F9009948F929F9251
:1015B000AF92BF92CF92DF92EF92FF920F931F9361
:1015C000CF93DF93EC015B014A016901E881F98166
:1015D0000284F385E02D099595012C0D3D1D2150C8
:1015E0003109E881F9810488F589E02D78018401C9
:1015F000A401B501CE010995E881F9810688F78932
:10160000E02DCE01DF91CF911F910F91FF90EF90D0
:10161000DF90CF90BF90AF909F908F9009948F9262
:101620009F92AF92BF92CF92DF92EF92FF920F9371
:101630001F93CF93DF93EC015B014A0169017801AD
:10164000E881F9810284F385E02D0995C80CD91C45
:10165000860101501109E881F9810488F589E02D9E
:101660009501A401B501CE010995E881F9810688AB
:10167000F789E02DCE01DF91CF911F910F91FF905F
:10168000EF90DF90CF90BF90AF909F908F90099494
:101690000895EF92FF920F931F93DC01ED91FC915F
:1016A00000A0F1A1E02D09951F910F91FF90EF90FF
:1016B00008950F931F93DC01ED91FC91068CF78D3B
:1016C000E02D09951F910F9108950F931F93DC0151
:1016D000ED91FC91048CF58DE02D09951F910F91F2
:1016E0000895DC01ED91FC910084F185E02D0994D1
:1016F0002F923F924F925F926F927F928F929F9222
:10170000AF92BF92CF92DF92EF92FF920F931F930F
:10171000CF93DF9300D000D000D0CDB7DEB73C012F
:101720006A013E832D83FC82EB825801A41AB50A1C
:10173000B7FE03C0B194A194B1088D809E80861A33
:10174000970A97FE03C09194819491088A149B0490
:101750005CF0902F812F0D811E819D838E839C2DA7
:101760008D2D6B01692F782F0C151D055CF09D8167
:101770008E817E836D83692F782F902F812F860134
:10178000C92ED82E1601201A310A2B012D813E8137
:10179000421A530A57FE03C05194419451087101F3
:1017A00037FE03C03FEFE31AF30AF594E7948D8107
:1017B0009E81861797075CF5A1E0B0E0BA83A98304
:1017C000C016D1064CF1D301ED91FC910484F5854E
:1017D000E02D2B813C81A8016D817E818A149B04C0
:1017E0001CF04D815E81B801C3010995E418F5082C
:1017F000F7FE0AC02D813E8189819A81280F391F09
:101800003E832D83E20CF31C0F5F1F4FD9CF2FEFC8
:101810003FEF3A832983D4CF26960FB6F894DEBFE4
:101820000FBECDBFDF91CF911F910F91FF90EF9031
:10183000DF90CF90BF90AF909F908F907F906F90F0
:101840005F904F903F902F90089508952091CC0184
:10185000260F3327331F21323105ECF42091F0019C
:10186000FC0190E080E0243069F082E00895A091CE
:10187000CC012191AC0144555E4FA40FB52FB11D91
:101880002C930196861798F38091CC01680F609392
:10189000CC0180E0089581E008951092F00181E08C
:1018A0008093F2011092F10161E082E10E947903DC
:1018B00061E083E10E947903E9EBF0E080818E7FB3
:1018C000808380818D7F808388E48093B80085E465
:1018D0008093BC000895CF93DF9391E09093AB0188
:1018E0008823B9F0C091B800D091BA008091BC00B3
:1018F0008A7B8093BC0060E082E10E94790360E013
:1019000083E10E9479030E944D0CD093BA00C093EA
:10191000B800DF91CF910895E091330280913202B7
:10192000E81730F4F0E0EA57FE4F808190E0089528
:101930008FEF9FEF089590913302809132022FEF45
:101940003FEF981748F4E92FF0E0EA57FE4F208167
:1019500030E09F5F90933302C90108958091320275
:1019600090913302891B990B0895CF92DF92EF92E9
:10197000FF920F931F93CF93DF937C01CB018A01DA
:1019800020915F02222389F0EB016B01C40ED51E6A
:10199000CC15DD0569F06991D701ED91FC910190BD
:1019A000F081E02DC7010995F3CF642F0E94260C2A
:1019B000C801DF91CF911F910F91FF90EF90DF90C1
:1019C000CF900895CF93DF931F92CDB7DEB7698391
:1019D00020915F022223F9F020915C02203258F01E
:1019E00021E030E0FC013383228390E080E00F901F
:1019F000DF91CF91089580915D02E82FF0E0EA59E0
:101A0000FE4F998190838F5F80935D0280935C028B
:101A100081E090E0ECCF61E0CE0101960E94260CBF
:101A2000F7CFCF92DF92EF92FF920F931F93CF9356
:101A3000DF93D0915C0281E0D13208F09CC0C0916C
:101A40005E020E94D8036B017C018091F00181113C
:101A50006CC082E08093F00181E08093F2018FEF0F
:101A60008093EF0110921402D0931302A6E6B1E026
:101A7000E3EFF1E080E0D8138DC010921502809161
:101A80001502CC0FC82BC09315028091F101813053
:101A900009F084C01092F1010E94D8036B017C010F
:101AA000809115028093BB008091A7019091A801BD
:101AB000A091A901B091AA01892B8A2B8B2BA1F0AF
:101AC0000E94D8030091A7011091A8012091A901BB
:101AD0003091AA016C197D098E099F090617170715
:101AE0002807390708F442C08091BC0083FDD8CF95
:101AF00085EC8093BC000E94D8036B017C0180912F
:101B0000F001823009F44CC08091EF018F3F09F45D
:101B100069C08091EF01803209F466C08091EF01C5
:101B2000803309F463C084E026C08091A7019091BE
:101B3000A801A091A901B091AA01892B8A2B8B2B16
:101B400009F483CF0E94D8030091A7011091A80146
:101B50002091A9013091AA016C197D098E099F0974
:101B6000061717072807390708F06FCF8091A601DD
:101B70000E946B0C85E010925D0210925C02109244
:101B80005F02DF91CF911F910F91FF90EF90DF9057
:101B9000CF9008959D9191938F5F6DCF85EEA9CFE2
:101BA0008091A7019091A801A091A901B091AA01EB
:101BB000892B8A2B8B2B09F4A2CF0E94D80300918A
:101BC000A7011091A8012091A9013091AA016C19D7
:101BD0007D098E099F09061717072807390708F09E
:101BE0008ECFC4CF80E0C7CF82E0C5CF83E0C3CF24
:101BF000FF920F931F93CF93DF93F82ED92FC62F09
:101C00008091890290918A02009709F452C0209134
:101C10008D0231E030935F0220935E0210925D02EC
:101C200010925C02DC01ED91FC910190F081E02DBD
:101C300060E009950F2D1D2FD1E0FF24F394C150D2
:101C40008091890290918A02CF3F61F1D032C8F031
:101C50000E94110D8091890290918A0220918D023B
:101C6000F0925F0220935E0210925D0210925C027D
:101C7000DC01ED91FC910190F081E02D60E009958F
:101C8000D1E08091890290918A02F8016491DC018F
:101C9000ED91FC910190F081E02D0995DF5F0F5FE0
:101CA0001F4FCDCFDF91CF911F910F91FF900C94DB
:101CB000110DE0919902F0919A02908180919F021A
:101CC0008095892380830F2D1D2FC15008F438C0C3
:101CD000F80184912091870230918802232B29F00A
:101CE0000E9486060F5F1F4FF0CF28E030E040E8EB
:101CF000E0919502F091960290919D02582F542305
:101D0000D9F05081952B9083E0919702F091980241
:101D1000908150919E02952B9083E0919702F091D3
:101D20009802508190919E029095952390834695BC
:101D300021503109E9F6D6CF508190959523E3CF14
:101D4000DF91CF911F910F91FF9008951F93CF9333
:101D5000DF93EC018D8D9E8D009721F1162F29A127
:101D600031E030935F0220935E0210925D02109288
:101D70005C02DC01ED91FC910190F081E02D60E0CE
:101D800009958D8D9E8DDC01ED91FC910190F08186
:101D9000E02D612F09958D8D9E8DDF91CF911F9143
:101DA0000C94110DADA5BEA59C918BA9809589239E
:101DB0008C938B8D9C8D892B31F0862FDF91CF9169
:101DC0001F910C94860628E030E080E8A9A5BAA50A
:101DD00099A9462F4823C1F04C91942B9C93ABA515
:101DE000BCA59C914AA9942B9C93ABA5BCA54C91F6
:101DF0009AA9909594239C9386952150310931F7A7
:101E0000DF91CF911F9108954C9190959423E6CF47
:101E1000EF92FF920F931F93CF93DF9380918902EC
:101E200090918A02892B09F493C02091A1023091EC
:101E3000A2024091A3025091A40260E074E284EFF8
:101E400090E00E9405192051310941095109569528
:101E50004795379527952093B80065E084EE95E087
:101E60000E94F80D6091700261508CE692E00E9431
:101E7000A60E2091720230917302C901079697FD58
:101E8000079623E0959587952A95E1F720917002B2
:101E900030917102829F8001839F100D929F100DDF
:101EA0001124C0918B02D0918C0280918902909173
:101EB0008A020C0F1D1F009709F489C020918D0222
:101EC00031E030935F0220935E0210925D02109227
:101ED0005C02DC01ED91FC910190F081E02D60E469
:101EE0000995FF24F394EE24E39480918902909164
:101EF0008A020C171D0709F442C0BFE1BF15D0F4D8
:101F00000E94110D8091890290918A0220918D0288
:101F1000E0925F0220935E0210925D0210925C02DA
:101F2000DC01ED91FC910190F081E02D60E40995D8
:101F3000FF24F3948091890290918A026991DC01D7
:101F4000ED91FC910190F081E02D0995F394CDCFB6
:101F50008091870290918802892B31F08091AA02AA
:101F60009091AB020E948D06E0919B02F0919C0241
:101F700090818091A0028095892380836ECF0E94FA
:101F8000110D8091890290918A02892B09F460C019
:101F90002091A5023091A6024091A7025091A8027B
:101FA00060E074E284EF90E00E940519205131094D
:101FB0004109510956954795379527952093B800C3
:101FC000DF91CF911F910F91FF90EF900895E091D5
:101FD0009902F0919A02808190919F02892B8083CF
:101FE0000C171D0771F289912091870230918802A8
:101FF000232B19F00E948606F3CF28E030E040E85A
:10200000E0919502F091960290919D02582F5423F1
:10201000D9F05081952B9083E0919702F09198022E
:10202000908150919E02952B9083E0919702F091C0
:102030009802508190919E029095952390834695A9
:1020400021503109E9F6CCCF508190959523E3CF0B
:10205000E0919B02F0919C0280819091A002892BDB
:102060008083AECF1F93CF93DF93EC01162F8D8D1E
:102070009E8D892BB1F12DA93EA94FA958AD60E0E5
:1020800074E284EF90E00E94051920513109410962
:10209000510956954795379527952093B80066EADC
:1020A000111167EACE010E94A60E8D8D9E8D892B9F
:1020B00041F129AD3AAD4BAD5CAD60E074E284EF27
:1020C00090E00E94051920513109410951095695A6
:1020D0004795379527952093B800DF91CF911F91B1
:1020E00008958B8D9C8D892B21F08EAD9FAD0E9424
:1020F0008D06EFA5F8A990818CA98095892380830E
:10210000CECFEFA5F8A980819CA9892B8083E5CF4C
:1021100090E080E008952091720230917302C9012D
:10212000079697FD079623E0959587952A95E1F701
:102130002091700230917102829FA001839F500D07
:10214000929F500D112470E060E080918B0290917D
:102150008C020C941D1B0E940F1B85ED8093BC000C
:102160008091A7019091A801A091A901B091AA0125
:102170000796A11DB11D23E0B695A7959795879564
:102180002A95D1F72091BC0024FD03C01092F001E4
:1021900008954091A7015091A8016091A901709103
:1021A000AA01452B462B472B69F30097A105B105E2
:1021B00041F025E32A95F1F700000197A109B10943
:1021C000E1CF8091A6010C946B0C1F920F920FB679
:1021D0000F9211242F933F938F939F93AF93BF93AD
:1021E0008091250290912602A0912702B0912802A9
:1021F0003091240223E0230F2D3758F50196A11DBD
:10220000B11D209324028093250290932602A0936F
:102210002702B09328028091290290912A02A0916E
:102220002B02B0912C020196A11DB11D80932902B1
:1022300090932A02A0932B02B0932C02BF91AF91EE
:102240009F918F913F912F910F900FBE0F901F90F4
:10225000189526E8230F0296A11DB11DD2CF1F921B
:102260000F920FB60F9211241F932F933F934F930A
:102270005F936F937F938F939F93AF93BF93CF930E
:10228000DF93EF93FF9310913502112339F1809181
:102290002302811123C02091000130E0F901EE57A3
:1022A000FA4F8491F901EE54FA4FD491F901E053B9
:1022B000FA4FC491CC2379F081110E945003EC2F86
:1022C000F0E0EE0FFF1FE858FA4FA591B491EC91A2
:1022D000DE2381E009F480E08093220280912302D2
:1022E0008823D9F08091210291E0980F90932102E8
:1022F000811113C060E08AE00E94790360E08CE005
:102300000E9479031092230280911F029091200273
:1023100001969093200280931F02809121028830C1
:1023200010F010922102112309F47AC08091230247
:10233000811176C090912202992329F080911E028A
:102340008F5F80931E0280911C0220911D029217C4
:1023500009F47AC02BE0803508F02DE1820F8093DC
:102360001C0290931D0220911C02203A08F458C0D0
:1023700080911A0290911B029695879590931B026B
:1023800080931A0230911E02353028F098609093A5
:102390001B0280931A02205A20931C0210921E02E4
:1023A00080913402882309F470C0809119028F5FF4
:1023B000809319028C30A0F140911A0250911B02B7
:1023C000942F9F73E5E1F1E0DF0180E02D919217FA
:1023D00021F08F5F8031D1F780E090E1899F9001FB
:1023E000112486E0569547958A95E1F780E0919112
:1023F000491721F08F5F8031D1F780E0822B9091D7
:102400005402911125C0809318029CEF980F9B31C4
:10241000F8F010923402809117028F5F80931702B8
:10242000FF91EF91DF91CF91BF91AF919F918F91EC
:102430007F916F915F914F913F912F911F910F90DD
:102440000FBE0F901F9018958C5E80931C028BCF4F
:10245000E091540291E09E0F90935402F0E0EA5C08
:10246000FD4F80839091540280911802981750F08C
:1024700010923402809116028F5F8093160281E0E1
:102480008093550210921902CBCF80911A0290913D
:102490001B0288339B4021F681E080933402109226
:1024A00019021092540210925502BACF1F920F9245
:1024B0000FB60F9211242F933F934F935F936F9317
:1024C0007F938F939F93AF93BF93EF93FF938091ED
:1024D000B900887F803609F44AC0F0F5883209F4E3
:1024E000A7C018F5803109F49BC0B8F4882309F41B
:1024F000F9C0883009F494C0FF91EF91BF91AF917A
:102500009F918F917F916F915F914F913F912F910B
:102510000F900FBE0F901F901895883109F488C056
:10252000803251F78093EF0114C0803409F49DC0CC
:1025300040F48033B9F38833F9F68093EF0185ECEA
:10254000B0C0803509F485C0883509F496C0883458
:1025500099F60E94AD10D0CF883909F48CC038F5B7
:10256000883729F050F4883611F0803729F683E057
:102570008093F0011092EE0157C0883809F47BC0B7
:10258000803919F0803809F0B7CF8091EE018032A0
:1025900008F071C0E091EE0181E08E0F8093EE01B2
:1025A0008091BB00F0E0E253FE4F80833DC0803B52
:1025B00039F0E0F4803A09F479C0883A09F09CCF08
:1025C00084E08093F0011092CD011092CC01E09153
:1025D0003002F091310209958091CC0181110FC038
:1025E00081E08093CC011092AC0109C0803C09F4D9
:1025F000A6CF883C09F4A3CF883B09F07DCFE091BA
:10260000CD0181E08E0F8093CD01F0E0E455FE4FC7
:1026100080818093BB009091CD018091CC0129C035
:10262000809115028093BB0085EC8093BC0064CF41
:102630009091140280911302981758F5E0911402BA
:1026400081E08E0F80931402F0E0ED50FE4F808108
:10265000E9CFE091140281E08E0F80931402809103
:10266000BB00F0E0ED50FE4F80839091140280910A
:1026700013029817C8F285E8D8CFE091140281E0E0
:102680008E0F809314028091BB00F0E0ED50FE4F5E
:1026900080838091F20181115CCF81E08093F10110
:1026A00084EA8093BC001092F00126CF85EC8093E1
:1026B000BC001092F0018091EE01803230F4E09184
:1026C000EE01F0E0E253FE4F10826091EE0170E007
:1026D000E0912E02F0912F028EEC91E0099510927C
:1026E000EE010ACF1092EF0134CFA0E6B2E01396CC
:1026F0001C921E92129748EE53E060E070E0149630
:102700004D935D936D937C93179789E291E01196B9
:102710009C938E93ECE6F2E01382128220E830E084
:102720003583248380E490E09783868331872087F4
:1027300093878287168A158614861786168681E007
:10274000858B848B2FEF3FEF338B228B318B208B4C
:10275000878B108E128E118E8BE391E09183808394
:10276000148E138EB68FA58F10A2178E8FEF84A3B1
:1027700085A386A387A380A780E89AE1A6E0B0E0BE
:1027800085AB96ABA7ABB0AF80EA96E8A1E0B0E02E
:1027900081AF92AFA3AFB4AF80E586AF17AE089517
:1027A000CF93DF93CDB7DEB76E970FB6F894DEBF49
:1027B0000FBECDBF789484B5826084BD84B581603E
:1027C00084BD85B5826085BD85B5816085BD8091FC
:1027D0006E00816080936E00109281008091810074
:1027E000826080938100809181008160809381006C
:1027F000809180008160809380008091B10084602E
:102800008093B1008091B00081608093B00080918E
:102810007A00846080937A0080917A00826080934D
:102820007A0080917A00816080937A0080917A00AA
:10283000806880937A001092C10080918B02909101
:102840008C02892B09F488C00E948B1082E080934F
:102850008E028091890290918A02892B09F073C1BE
:1028600061E0809192020E94A70361E0809193024F
:102870000E94A70380919202082E000C990BFC0184
:10288000E053FA4FE491F0E0EE0FFF1FEA53FA4FE6
:102890002591349130939A0220939902FC01EE54D1
:1028A000FA4FE491E0939F0280919302082E000C6E
:1028B000990BFC01E053FA4FE491F0E0EE0FFF1F9B
:1028C000EA53FA4FA591B491B0939C02A0939B0256
:1028D000FC01EE54FA4FE491E093A0028C91E82BB6
:1028E000EC938091870290918802892B09F40CC2A5
:1028F0001FB7F89480912D02811127C0EAEDF5E011
:102900008491ECEBF5E09491E82FF0E0EE0FFF1FDF
:10291000EA56FA4FA591B491EC91E92321F461E0D4
:102920008AE00E94790361E08AE00E94A7038CB5E7
:1029300080618CBD8CB580648CBD61E08DE00E94AF
:10294000A70361E08BE00E94A70380912D028F5FB7
:1029500080932D021FBF10C120917202309173022B
:10296000C901079697FD079623E0959587952A95C7
:10297000E1F72091700230917102AC01429FC001D9
:10298000439F900D529F900D11240E942D199093FA
:102990008C0280938B02892B09F056CF81E08093C3
:1029A00080028093810281E090E090937F02809387
:1029B0007E0290937D0280937C028EE0E7E0F1E05E
:1029C0008E010F5F1F4FD80101900D928A95E1F79C
:1029D0006E0153E0C50ED11CFF24F394F601619102
:1029E00071916F0190E080E00E9498179B01AC010B
:1029F00060E074E284E79BE40E945D189B01AC01F7
:102A000060E070E080E89FE30E945D189B01AC01EC
:102A10006FE672E183E898E30E945D180E94CF1888
:102A20004B015C01F2E08F1A9108A108B1082DEF6B
:102A300082162FEF9206A104B10408F43CC2F3946D
:102A400047E0F412CBCF623071058105910550F15A
:102A50006115710551E08507910520F51092800000
:102A600028E02093810020918100F22AF0928100D9
:102A7000709389006093880080916F0082608093DA
:102A80006F0061E08CE00E94A70360E0809100018C
:102A90000E94A70361E08AE00E94A70360E08AE049
:102AA0000E94790382E080930001809135028111B8
:102AB00005C081E0809335021092340280E0E82E58
:102AC00080E0F82E80915502882309F4ACC18091F2
:102AD00055028823E1F380915502882309F4A3C1AC
:102AE0004091540243504E3108F04EE150E067E30C
:102AF00072E0C8010E94141B1092550230915402DA
:102B0000E6E3F2E08FEF9FEF315008F477C12191B7
:102B1000282760E1269FA00111242427422F50E09E
:102B2000892F9927922BBA01A4E075956795AA95EC
:102B3000E1F786279727B3E0440F551FBA95E1F7D1
:102B400084279527E1CF8CE380938D021092330286
:102B50001092320210925D0210925C020E944D0CA3
:102B600081E293E0909331028093300282E293E01D
:102B700090932F0280932E028091940287FD1EC0B5
:102B800061E00E94A70361E0809194020E947903B2
:102B900061E070E080E090E00E94FD0360E08091E1
:102BA00094020E9479036AE070E080E090E00E9465
:102BB000FD0361E0809194020E9479038091890273
:102BC00090918A02892B09F4E2C02091A1023091F0
:102BD000A2024091A3025091A40260E074E284EF4B
:102BE00090E00E940519205131094109510956957B
:102BF0004795379527952093B80064E08EEA95E0D5
:102C00000E94F80D6091720261508CE692E00E9481
:102C1000A60E64E08AEA95E00E94F80D80918E028B
:102C200060E1813009F064E18CE692E00E94A60E3A
:102C300064E086EA95E00E94F80D8FE88093A9028F
:102C400080917002909171028038910509F0B8C0AE
:102C500080917202909173028034910509F0C0C096
:102C600080918E02813009F0A9C08FE98093A9027A
:102C700012E16AED8CE692E00E94A60E612F8CE6CE
:102C800092E00E94A60E61E88CE692E00E94A60EF9
:102C90006091A9028CE692E00E94A60E69ED8CE696
:102CA00092E00E94A60E80918E0262E2813009F0CD
:102CB00061EF8CE692E00E94A60E66E080EA95E065
:102CC0000E94F80D8091890290918A02892B09F463
:102CD0008BC02091A5023091A6024091A70250918D
:102CE000A80260E074E284EF90E00E940519205190
:102CF00031094109510956954795379527952093F4
:102D0000B8000E94080F4ACE61E0809190020E94B4
:102D1000A70361E0809191020E94A7038091900235
:102D2000082E000C990BFC01E053FA4FE491F0E0FF
:102D3000EE0FFF1FEA53FA4F25913491309396021C
:102D400020939502FC01EE54FA4FE491E0939D022A
:102D500080919102082E000C990BFC01E053FA4F70
:102D6000E491F0E0EE0FFF1FEA53FA4FA591B49102
:102D7000B0939802A0939702FC01EE54FA4FE491AD
:102D8000E0939E028C91E095E823EC93F5CE809140
:102D9000870290918802892B31F08091AA0290914C
:102DA000AB020E948D06E0919B02F0919C02908103
:102DB0008091A0028095892380831FCF8FEC56CF0E
:102DC0008036910569F48091720290917302409768
:102DD00039F480918E02813029F480E18093A90238
:102DE00012E047CF8FEAFACFE0919B02F0919C026C
:102DF00080819091A002892B808383CF883B904F64
:102E000091F48981809356028A81809357028B8145
:102E1000809358028C81809359028D8180935A024D
:102E20008E8180935B020E948B1010927902109227
:102E3000780210927B0210927A02809156024AE048
:102E4000B80190E00E946E17F80101900020E9F7A8
:102E500031976F01C01AD10AB6016F5F7F4F90E0C2
:102E600080E00E94521A5C01009711F1FC0110826F
:102E7000B8010E94241BA601B5018CE692E00E94D5
:102E8000230342E050E063E671E08CE692E00E94AA
:102E90002303A114B10419F0C5010E94C9190E94AD
:102EA000080FE114F10409F40DCE0E9400000ACECF
:102EB000D12CC12CE0CFF6E0FF12D0CDF3CD8BE3C7
:102EC00091E090936D0280936C0280918B029091BF
:102ED0008C02009711F00C94C9190895BB27FB01CF
:102EE0005527AA27880F991FAA1FA41710F0A41B03
:102EF00083955051B9F7A05DAA3308F0A95DA1935D
:102F0000009779F7B111B1931192CB010C94881706
:102F1000DC01FC01672F71917723E1F7329704C040
:102F20007C916D9370836291AE17BF07C8F30895CB
:102F3000E89409C097FB3EF4909580957095619553
:102F40007F4F8F4F9F4F9923A9F0F92F96E9BB2709
:102F50009395F695879577956795B795F111F8CF85
:102F6000FAF4BB0F11F460FF1BC06F5F7F4F8F4FF0
:102F70009F4F16C0882311F096E911C0772321F0E6
:102F80009EE8872F762F05C0662371F096E8862F7E
:102F900070E060E02AF09A95660F771F881FDAF7D5
:102FA000880F9695879597F9089597F99F6780E818
:102FB00070E060E008959FEF80EC089500240A948B
:102FC0001616170618060906089500240A94121604
:102FD0001306140605060895092E0394000C11F437
:102FE000882352F0BB0F40F4BF2B11F460FF04C0E4
:102FF0006F5F7F4F8F4F9F4F089557FD9058440F3D
:10300000551F59F05F3F71F04795880F97FB991F47
:1030100061F09F3F79F08795089512161306140604
:10302000551FF2CF4695F1DF08C016161706180691
:10303000991FF1CF86957105610508940895E8946C
:10304000BB2766277727CB0197F908952F923F92E8
:103050004F925F926F927F928F929F92AF92BF92A8
:10306000CF92DF92EF92FF920F931F93CF93DF9354
:10307000CDB7DEB7CA1BDB0B0FB6F894DEBF0FBEB1
:10308000CDBF09942A88398848885F846E847D84FE
:103090008C849B84AA84B984C884DF80EE80FD8000
:1030A0000C811B81AA81B981CE0FD11D0FB6F89476
:1030B000DEBF0FBECDBFED0108950E9471180C94C4
:1030C000EC170E94E51758F00E94DE1740F029F433
:1030D0005F3F29F00C94D51751110C9420180C94D3
:1030E000DB170E94FD1768F39923B1F3552391F381
:1030F000951B550BBB27AA2762177307840738F067
:103100009F5F5F4F220F331F441FAA1FA9F335D0C3
:103110000E2E3AF0E0E832D091505040E695001C77
:10312000CAF72BD0FE2F29D0660F771F881FBB1F31
:10313000261737074807AB07B0E809F0BB0B802D0F
:10314000BF01FF2793585F4F3AF09E3F510578F03B
:103150000C94D5170C9420185F3FE4F3983ED4F3F9
:10316000869577956795B795F7959F5FC9F7880F0F
:10317000911D9695879597F90895E1E0660F771F61
:10318000881FBB1F621773078407BA0720F0621BF2
:10319000730B840BBA0BEE1F88F7E09508950E941D
:1031A000D6186894B1110C94201808950E9405183F
:1031B00088F09F5798F0B92F9927B751B0F0E1F0F8
:1031C000660F771F881F991F1AF0BA95C9F714C0A8
:1031D000B13091F00E941F18B1E008950C941F18AF
:1031E000672F782F8827B85F39F0B93FCCF38695E1
:1031F00077956795B395D9F73EF49095809570953E
:1032000061957F4F8F4F9F4F0895A1E21A2EAA1B01
:10321000BB1BFD010DC0AA1FBB1FEE1FFF1FA21786
:10322000B307E407F50720F0A21BB30BE40BF50B83
:10323000661F771F881F991F1A9469F7609570950C
:10324000809590959B01AC01BD01CF010895EE0FD3
:10325000FF1F0590F491E02D09940F931F93CF93D6
:10326000DF938230910510F482E090E0E091AE02AD
:10327000F091AF0230E020E0B0E0A0E0309799F4A8
:103280002115310509F44AC0281B390B24303105BA
:10329000D8F58A819B816115710589F1FB019383C2
:1032A0008283FE0111C04081518102811381481740
:1032B0005907E0F04817590799F4109761F01296F2
:1032C0000C93129713961C933296CF01DF91CF91F6
:1032D0001F910F9108950093AE021093AF02F4CFA7
:1032E0002115310551F04217530738F0A901DB01D0
:1032F0009A01BD01DF01F801C1CFEF01F9CF909331
:10330000AF028093AE02CDCFFE01E20FF31F819397
:1033100091932250310939832883D7CF2091AC0271
:103320003091AD02232B41F420910301309104012F
:103330003093AD022093AC02209101013091020143
:103340002115310541F42DB73EB74091050150914B
:103350000601241B350BE091AC02F091AD02E2179F
:10336000F307A0F42E1B3F0B2817390778F0AC01A8
:103370004E5F5F4F2417350748F04E0F5F1F509385
:10338000AD024093AC02819391939FCFF0E0E0E0D7
:103390009CCFCF93DF930097E9F0FC013297138223
:1033A0001282A091AE02B091AF02ED0130E020E0B8
:1033B0001097A1F420813181820F931F2091AC02DC
:1033C0003091AD022817390709F061C0F093AD02C2
:1033D000E093AC02DF91CF910895EA01CE17DF07A9
:1033E000E8F54A815B819E0141155105B1F7E9017C
:1033F000FB83EA8349915991C40FD51FEC17FD0750
:1034000061F4808191810296840F951FE90199836F
:103410008883828193819B838A83F0E0E0E0129627
:103420008D919C9113970097B9F52D913C9111972F
:10343000CD010296820F931F2091AC023091AD0214
:103440002817390739F6309751F51092AF021092CC
:10345000AE02B093AD02A093AC02BCCFD383C283C3
:1034600040815181840F951FC817D90761F44E5FC1
:103470005F4F88819981480F591F518340838A810A
:103480009B81938382832115310509F0B0CFF0939E
:10349000AF02E093AE029ECFFD01DC01C0CF1382EC
:1034A0001282D7CFB0E0A0E0E8E5FAE10C9428184A
:1034B0008C01009751F4CB010E942D198C01C80199
:1034C000CDB7DEB7E0E10C944418FC01E60FF71F1E
:1034D0009C0122503109E217F30708F49DC0D9017D
:1034E000CD91DC911197C617D70798F0C530D1055B
:1034F00030F3CE0104978617970708F3C61BD70B46
:103500002297C193D1936D937C93CF010E94C919E7
:10351000D6CF5B01AC1ABD0A4C018C0E9D1EA0914A
:10352000AE02B091AF02512C412CF12CE12C10973E
:1035300031F58091AC029091AD028815990509F0A2
:103540005CC04616570608F058C080910101909162
:103550000201009741F48DB79EB74091050150914B
:103560000601841B950BE817F90708F055C0F09386
:10357000AD02E093AC02F90171836083A0CF8D911D
:103580009C91119712966C90129713967C901397BA
:10359000A815B90559F56C0142E0C40ED11CCA1436
:1035A000DB0420F1AC014A195B09DA011296159788
:1035B00080F06282738251834083D9016D937C9342
:1035C000E114F10471F0D7011396FC93EE93129776
:1035D00076CF22968C0F9D1FF90191838083F30192
:1035E000EFCFF093AF02E093AE0269CF48165906D1
:1035F00008F42C017D01D3019ACFCB010E942D1933
:103600007C01009749F0AE01B8010E94141BC8016B
:103610000E94C919870153CF10E000E050CF81E02C
:1036200090E0F8940C942B1BFB01DC0102C001908C
:103630000D9241505040D8F70895DC0101C06D93C0
:1036400041505040E0F70895FB01DC0101900D92DC
:103650000020E1F7089512E0C6EFD2E004C0FE01B9
:103660000E9427192196C73FD107C9F7F894FFCFC9
:103670000B0000B0028000000001000800400000C4
:10368000010004050D0D0E131516191A1C2325260D
:10369000292A2C323400000000E20CB50C881048B6
:1036A0000BAE0C9B0C8C0C00000000CB0823038895
:1036B00010250CD605480B710B490B650B590B787F
:1036C0000B480B9106321046058F05910A740AFCCF
:0636D000099D090D0A002E
:00000001FF
