:100000000C94F7020C941F030C941F030C941F0311
:100010000C941F030C941F030C941F030C94C11128
:100020000C941F030C941F030C941F030C941F03C8
:100030000C941F030C941F030C941F030C941F03B8
:100040000C9477110C941F030C941F030C941F0342
:100050000C941F030C941F030C941F030C941F0398
:100060000C94AE120C941F0300000000003E5B4F86
:100070005B3E3E6B4F6B3E1C3E7C3E1C183C7E3C08
:10008000181C577D571C1C5E7F5E1C00183C180016
:10009000FFE7C3E7FF0018241800FFE7DBE7FF30A6
:1000A000483A060E2629792926407F050507407F14
:1000B00005253F5A3CE73C5A7F3E1C1C08081C1C87
:1000C0003E7F14227F22145F5F005F5F06097F017D
:1000D0007F006689956A606060606094A2FFA29468
:1000E00008047E040810207E201008082A1C080836
:1000F0001C2A08081E101010100C1E0C1E0C303884
:100100003E3830060E3E0E06000000000000005F84
:1001100000000007000700147F147F14242A7F2AA0
:100120001223130864623649562050000807030062
:10013000001C2241000041221C002A1C7F1C2A08AE
:10014000083E080800807030000808080808000011
:1001500060600020100804023E5149453E00427F85
:10016000400072494949462141494D331814127FD4
:100170001027454545393C4A494931412111090774
:100180003649494936464949291E000014000000F5
:1001900040340000000814224114141414140041C7
:1001A00022140802015909063E415D594E7C121184
:1001B000127C7F494949363E414141227F414141BC
:1001C0003E7F494949417F090909013E4141517337
:1001D0007F0808087F00417F41002040413F017FA8
:1001E000081422417F404040407F021C027F7F0470
:1001F00008107F3E4141413E7F090909063E4151B9
:10020000215E7F09192946264949493203017F01A8
:10021000033F4040403F1F2040201F3F4038403FA9
:10022000631408146303047804036159494D4300BF
:100230007F4141410204081020004141417F0402F6
:10024000010204404040404000030708002054548D
:1002500078407F284444383844444428384444286B
:100260007F385454541800087E090218A4A49C78BE
:100270007F0804047800447D40002040403D007F1A
:100280001028440000417F40007C047804787C08FA
:100290000404783844444438FC18242418182424CE
:1002A00018FC7C08040408485454542404043F44B3
:1002B000243C4040207C1C2040201C3C4030403CE2
:1002C00044281028444C9090907C4464544C440042
:1002D00008364100000077000000413608000201A6
:1002E0000204023C2623263C1EA1A161123A404092
:1002F000207A38545455592155557941225454780F
:1003000042215554784020545579400C1E527212A7
:100310003955555559395454545939555454580030
:1003200000457C410002457D420001457C407D1234
:1003300011127DF0282528F07C5455450020545496
:100340007C547C0A097F4932494949323A44444441
:100350003A324A4848303A4141217A3A424020787C
:10036000009DA0A07D3D4242423D3D4040403D3C7D
:1003700024FF2424487E4943662B2FFC2F2BFF09A2
:1003800029F620C0887E0903205454794100004496
:100390007D413048484A32384040227A007A0A0A81
:1003A000727D0D19317D2629292F282629292926F4
:1003B00030484D4020380808080808080808382F39
:1003C00010C8ACBA2F102834FA00007B00000814C3
:1003D0002A142222142A14085500550055AA55AA99
:1003E00055AAFF55FF55FF000000FF00101010FF39
:1003F00000141414FF001010FF00FF1010F010F094
:10040000141414FC001414F700FF0000FF00FF1484
:1004100014F404FC141417101F10101F101F1414D0
:10042000141F00101010F0000000001F101010101A
:100430001F10101010F010000000FF10101010100E
:1004400010101010FF10000000FF140000FF00FF4C
:1004500000001F10170000FC04F4141417101714E8
:1004600014F404F40000FF00F7141414141414140A
:10047000F700F7141414171410101F101F1414147D
:10048000F4141010F010F000001F101F0000001FE7
:1004900014000000FC140000F010F01010FF10FF1A
:1004A000141414FF141010101F00000000F010FFAF
:1004B000FFFFFFFFF0F0F0F0F0FFFFFF0000000093
:1004C00000FFFF0F0F0F0F0F3844443844FC4A4A17
:1004D0004A347E02020606027E027E0263554941CC
:1004E000633844443C04407E201E2006027E020203
:1004F00099A5E7A5991C2A492A1C4C7201724C3017
:100500004A4D4D303048784830BC625A463D3E49ED
:100510004949007E0101017E2A2A2A2A2A44445F91
:10052000444440514A444040444A51400000FF0185
:1005300003E080FF000008086B6B08361236243693
:10054000060F090F060000181800000010100030F8
:1005500040FF0101001F01011E00191D1712003C80
:100560003C3C3C0000000000000103070F1F3F7FE0
:100570000080C0E0F0F8FCFE000000002300260030
:100580002900000000080002010000030407000029
:1005900000000000000000000000240027002A00E6
:1005A000DB40A4A62EAF2000A1C8D300408DAED55D
:1005B00080A80102040810204080010204081020D5
:1005C00001020408102000000000250028002B0074
:1005D00004040404040404040202020202020303E9
:1005E000030303032200FF210000CD137D1F11240C
:1005F0001FBECFEFD8E0DEBFCDBF23E0A8E4B1E05F
:1006000001C01D92A534B207E1F711E0A0E0B1E00E
:10061000E0E6F5E402C005900D92A834B107D9F7E1
:1006200012E0C6EFD2E004C02197FE010E949F2095
:10063000C53FD107C9F70E942D140C94A3220C9436
:100640000000AF92BF92CF92DF92EF92FF920F9392
:100650001F93CF93DF937C016B015A01FC018081D2
:10066000918120911A0230911B02C1E0D0E08217E3
:10067000930708F062C09C01220F331FE09118021B
:10068000F0911902E20FF31F00811181EC01C09576
:10069000D095C170DD272CE93FEF80FF02C024E632
:1006A00030E02A0D3B1DC90163E470E00E94552033
:1006B0000617170754F0C90168E270E00E94552040
:1006C0006F5F7F4F601771076CF52A0D3B1DC901E5
:1006D00063E470E00E9455200617170754F0C90123
:1006E00068E270E00E9455206F5F7F4F60177107CE
:1006F00084F52A0D3B1DC90163E470E00E9455207A
:100700000617170764F0C90168E270E00E945520DF
:100710006F5F7F4F23E030E0601771072CF4CFEF5D
:10072000DFEF0BC021E030E0F6018081918101967E
:10073000821793078CF491838083CE01DF91CF9150
:100740001F910F91FF90EF90DF90CF90BF90AF90EF
:10075000089522E030E0E8CF11821082F701808115
:1007600091810196E8CF08950895AF92BF92CF92FC
:10077000DF92EF92FF920F931F93CF93DF936C0161
:100780007B018B01040F151FEB015E01AE18BF0842
:10079000C017D10759F06991D601ED91FC910190F4
:1007A000F081E02DC6010995892B79F7C501DF910C
:1007B000CF911F910F91FF90EF90DF90CF90BF905E
:1007C000AF900895833081F028F4813099F0823021
:1007D000A9F008958730A9F08830C9F08430B1F4C9
:1007E000809180008F7D03C0809180008F778093FF
:1007F0008000089584B58F7784BD089584B58F7D7A
:10080000FBCF8091B0008F778093B00008958091E6
:10081000B0008F7DF9CF1F93CF93DF93282F30E067
:10082000F901EE57FA4F8491F901EE54FA4FD49141
:10083000F901E053FA4FC491CC23A9F0162F81118E
:100840000E94E203EC2FF0E0EE0FFF1FEA53FA4F95
:10085000A591B4918FB7F894EC91111108C0D0957F
:10086000DE23DC938FBFDF91CF911F910895DE2BA4
:10087000F8CFCF93DF9390E0FC01EE54FA4F249130
:1008800080539A4FFC0184918823D1F090E0880F27
:10089000991FFC01EA56FA4FA591B491FC01EA5365
:1008A000FA4FC591D49161110EC09FB7F8948C9105
:1008B000E22FE0958E238C932881E223E8839FBF6B
:1008C000DF91CF9108958FB7F894EC91E22BEC93E0
:1008D0008FBFF6CF3FB7F8948091FD019091FE0154
:1008E000A091FF01B091000226B5A89B05C02F3F43
:1008F00019F00196A11DB11D3FBFBA2FA92F982F46
:100900008827BC01CD01620F711D811D911D42E040
:10091000660F771F881F991F4A95D1F708958F9208
:100920009F92AF92BF92CF92DF92EF92FF924B01D4
:100930005C010E946A046B017C010E946A046C19CC
:100940007D098E099F09683E734081059105A8F3D2
:1009500021E0821A9108A108B10888EEC80E83E050
:10096000D81EE11CF11C81149104A104B10429F7E3
:10097000FF90EF90DF90CF90BF90AF909F908F90BF
:100980000895EF92FF920F931F93CF93DF93EC01A3
:10099000EC80FD806E157F050CF070C057FF04C021
:1009A000240F351F50E040E08E819F81FA01E20F55
:1009B000F31F8E179F071CF49C01241B350B121686
:1009C00013060CF05BC0922F842F86958695869532
:1009D0008E9DD0018F9DB00D11246A0F7B1FAF8DAE
:1009E000B8A1A60FB71F477049F188E0841B482FB4
:1009F000682F70E0FB01E059FA4FE491281708F0E6
:100A000063C0621B71092FEF30E002C03595279556
:100A10006A95E2F7E2230130110539F0B0F10230B6
:100A2000110561F58C91E82702C08C91E82BEC93BD
:100A3000941720F12C813D81A20FB31FE92FE41BF5
:100A4000E83078F00230110521F58E2F9C919095B9
:100A50009C932C813D81A20FB31F88508830B0F742
:100A6000E770EE2359F0F0E0E859FA4FE4910130D5
:100A70001105F9F010F10230110519F1DF91CF9154
:100A80001F910F91FF90EF900895E0958C91E823CE
:100A9000CECF81E00115110509F480E081959E2FEC
:100AA0008C932C813D81A20FB31F98509830C0F7D2
:100AB000D7CF8C91E82BEC93E1CFE0958C91E82394
:100AC000FACF8C91E827F7CF0130110509F4ADCFAB
:100AD000E0F20230110509F4A5CFAE0DBF1DAECF77
:100AE0000F931F93CF93DF9377FF04C0260F371F19
:100AF00070E060E0DC011496CD91DC91FB01E20F27
:100B0000F31FCE17DF071CF49E01261B370B1216AE
:100B100013064CF5FA0157FD3796A3E0F595E795D6
:100B2000AA95E1F7EC9FD001ED9FB00DFC9FB00DB1
:100B300011246A0F7B1FDC015F96ED91FC91E60F9B
:100B4000F71F4770552781E090E001C0880F4A9554
:100B5000EAF7482F0130110559F0A8F02E0F3F1F7A
:100B600002301105E1F0DF91CF911F910F910895AF
:100B70002E0F3F1FE217F307B1F38191DF011197A9
:100B8000842B8C93F7CF80952E0F3F1FE217F3072E
:100B900051F39191DF01119798239C93F7CFE217BE
:100BA000F30709F38191DF01119784278C93F7CF25
:100BB0000F931F93FA01DC0156964C9156974230E1
:100BC000E9F04330A1F1413061F514964D915C910B
:100BD000DA01AE1BBF0BFD01E21BF30B77FD0BC06F
:100BE000DC0116964D915C916417750724F4AB01F6
:100BF000BF010E9470051F910F91089514964D91A9
:100C00005C91DA01A61BB70BBD0161507109DC01D3
:100C100016964D915C91DA01AE1BBF0BFD01E21BF4
:100C2000F30B77FDE8CFAF010E94C104E4CF169625
:100C30004D915C91DA01A61BB70BBD0161507109A2
:100C4000CDCF0F931F93FA01DC0156964C91569726
:100C50004230A9F0433091F1413019F514964D918D
:100C60005C91DA01AE1BBF0BFD013197F7FD04C0AB
:100C7000AB01BF010E94C1041F910F91089514960A
:100C80004D915C91DA01A61BB70BBD01DC011696F4
:100C90004D915C91DA01AE1BBF0BFD013197621BD8
:100CA000730BF7FDE9CFDC0116964D915C91E417CB
:100CB000F50714F7AF010E947005DECF16964D912F
:100CC0005C91DA01A61BB70BBD01621B730BCECF83
:100CD000FC0177FD64C080859185681779070CF069
:100CE0005EC057FD5CC082859385481759070CF09C
:100CF00056C086898230B1F0833029F1813041F4C9
:100D000084819581841B950BAB01BC0161507109F5
:100D10002130310509F108F443C02230310509F4CE
:100D200063C0089584819581DC01A61BB70BBD01CA
:100D30006150710986819781DC01A41BB50BAD015F
:100D400041505109E5CF86819781861B970BBA01E7
:100D5000AC0141505109DCCFCA0157FD0796A3E011
:100D600095958795AA95E1F7A481B5818A9F900111
:100D70008B9F300D9A9F300D1124620F731F078CCB
:100D8000F0A1E02DE60FF71F4770552721E030E076
:100D900001C0220F4A95EAF78081822B8083089553
:100DA000CA0157FD079633E0959587953A95E1F787
:100DB000A481B5818A9F90018B9F300D9A9F300D41
:100DC0001124620F731F078CF0A1E02DE60FF71FAF
:100DD0004770552781E090E001C0880F4A95EAF7F7
:100DE000809590818923DACFCA0157FD079623E0C9
:100DF000959587952A95E1F7A481B5818A9F900101
:100E00008B9F300D9A9F300D1124620F731F078C3A
:100E1000F0A1E02DE60FF71F4770552721E030E0E5
:100E200001C0220F4A95EAF780818227B7CF089543
:100E30008EBD00000DB407FEFDCF8EB508958CBDAC
:100E40009DBD08950895FC016370668B8481958132
:100E500026813781613039F0633029F091878087AE
:100E60003387228708953187208793878287089563
:100E70002F923F924F925F926F927F928F929F92AA
:100E8000AF92BF92CF92DF92EF92FF920F931F9398
:100E9000CF93DF93CDB7DEB76A970FB6F894DEBF76
:100EA0000FBECDBF9A8F898F7A8369834A01D22E74
:100EB00018870F833701BC2CDC0159962D913C918A
:100EC0005A972115310509F015C118968D919C91FD
:100ED0001997681779070CF0D7C11A968D919C91D4
:100EE000481759070CF0D0C14C2C512CB6E0CB9EC2
:100EF000600D711D11247C876B87161617060CF088
:100F0000C3C1EA2DF0E0FA87E98793E0EE0FFF1FF7
:100F10009A95E1F7F88BEF87CF01840F951F18168C
:100F200019060CF0B1C1A98DBA8D58968C9181111A
:100F300004C0BFEABD1508F4D394A98DBA8DED9114
:100F4000FC9111970284F385E02DCD010995B5E060
:100F5000DB9EC0011124E981FA81FC83EB83312CF3
:100F6000212C9C0128593F4F388F2F8B4A2D50E060
:100F70005E8B4D8BEF89F88DE20DF31D44919E82BF
:100F80008D82D12CC12C69817A81620D731D7A8B7F
:100F9000698B842F90E09C8B8B8BE98DFA8DA081DF
:100FA000B18140FF82C0F1E0BF126FC0AF126DC0CF
:100FB0001C96ED91FC912F813885A4014C0D5D1D8F
:100FC00069897A89898D9A8D0995EB89FC89F595CE
:100FD000E7954E2F5FEFC51AD50A6D817E818D8909
:100FE0009E89680F791F7E836D8398E0C916D104AE
:100FF00081F6AFEF2A1A3A0AEB81FC81E40DF51D68
:10100000FC83EB83F5E02F16310409F0B3CF2F8179
:10101000388526153705B9F0A98DBA8DED91FC916B
:10102000B1E0BB1257C0AB1255C069817A816B5FCA
:101030007F4F0088F189E02D830128E030E0A40192
:10104000898D9A8D0995A98DBA8DED91FC91119795
:101050000688F789E02DCD016A960FB6F894DEBFB9
:101060000FBECDBFDF91CF911F910F91FF90EF90F9
:10107000DF90CF90BF90AF909F908F907F906F90B8
:101080005F904F903F902F9009941E96ED91FC91A8
:10109000EF80F88409851A8592014D815E816B810C
:1010A0007C81898D9A8D099590CF2F813885261561
:1010B000370509F48ACF31E0B31207C0A31205C087
:1010C0001C96ED91FC91930178CF1E96ED91FC91C9
:1010D0007301E0CF6B857C85641975090684F785FB
:1010E000E02D73010F8518899201A401898D9A8DD5
:1010F0000995A9CFF901349694913297459154916D
:10110000D91AB7E0DB9E400D511D1124F90125913C
:1011100034913C8B2B8BFA0125903490FA01329656
:10112000749031963491398B329664903196449014
:1011300041E04C1518F04A1508F07FC0662D062CCA
:10114000000C770B7C836B83842D042C000C990B93
:101150009E838D83A98DBA8DED91FC9111970284A8
:10116000F385E02DCD010995512CD12CC12CEA2D10
:10117000F0E0FA87E9872B2D30E03C872B87A4012C
:10118000440D511D47FC5A95588F4F8B69817A81C8
:10119000660D711D67FC7A957E876D877989C71604
:1011A00008F051CF2C2D30E04D815E81420F531F4E
:1011B000A985BA854A9FC0014B9F900D5A9F900DFB
:1011C0001124FC01E80DF91DF88BEF87852D612CAA
:1011D0004F89588D420F531F5E8B4D8B671408F05B
:1011E00050C044244394480E877041F4C1010196D5
:1011F000EB89FC89E20DF31DD4901C01D7FE19C0C8
:10120000A98DBA8DED91FC91662D70E0B1E0BB1215
:1012100019C0AB1217C02D853E85620F731F048461
:10122000F585E02D2F8138854D895E89898D9A8DD0
:101230000995DD0C6394842DD1CF1E821D821C8202
:101240001B8288CF4B815C81640F751FAB85BC8589
:101250006A9FC0016B9F900D7A9F900D1124698148
:101260007A81680F791F0684F785E02DEF80F88476
:1012700009851A859D014F855889898D9A8D099513
:10128000D8CF570CC3948ACF6A960FB6F894DEBFB6
:101290000FBECDBFDF91CF911F910F91FF90EF90C7
:1012A000DF90CF90BF90AF909F908F907F906F9086
:1012B0005F904F903F902F9008958F929F92AF92A2
:1012C000CF92EF92FF920F931F93CF93DF93EC0196
:1012D000262F898D9A8D009709F051C06A30D1F47C
:1012E0001D861C868D8948E0849F900111248E857F
:1012F0009F85820F931F9F878E8781E090E0DF910B
:10130000CF911F910F91FF90EF90CF90AF909F9052
:101310008F9008956D3089F3CC88AD888F898823AC
:10132000C1F08C859D8536E0C39E800D911D1124F2
:10133000488559854817590764F44E855F851D8691
:101340001C8638E0A39EC0011124840F951F9F873F
:101350008E87EA88FB88088919894E855F856C85A8
:101360007D85CE010E9438072C898C859D8546E0BD
:10137000249F800D911D11249D878C87BECF6A30DC
:1013800069F41D861C86FC013896E4912D898E85B2
:101390009F85E29F800D911D1124ADCF6D3009F422
:1013A000ACCFFC0134963491631708F4A6CF329683
:1013B000E491E61708F4A1CFFC0132968590949051
:1013C000462F431B342F47E0349F800C911C11247F
:1013D000F401329634913196E4913323A9F1EE234E
:1013E00099F1CC88F4013596E491AD884F89442376
:1013F00001F10E2E000CFF0BE30FF11DCE9EA0019C
:10140000CF9E500D11246C857D85460F571F688532
:101410007985641775076CF44E855F851D861C867B
:10142000FC013896E491AE9E400D511D11245F875A
:101430004E87EA88FB88088919894E855F856C8507
:101440007D85CE010E943807F4013496E4912C8901
:101450008C859D85E29F800D911D11248DCF6F920B
:101460007F928F929F92AF92BF92CF92DF92EF9234
:10147000FF920F931F93CF93DF93EC016B015A01FF
:1014800039014801E881F9810284F385E02D09954D
:10149000E881F9810288F389E02D87019301A50194
:1014A000B601CE010995A501480D591D41505109BC
:1014B000E881F9810288F389E02D9301B601CE011C
:1014C0000995E881F9810088F189E02D9401A50151
:1014D000B601CE010995C60CD71CB6016150710941
:1014E000E881F9810088F189E02D9401A501CE0100
:1014F0000995E881F9810688F789E02DCE01DF9111
:10150000CF911F910F91FF90EF90DF90CF90BF9000
:10151000AF909F908F907F906F9009946F927F9281
:101520008F929F92AF92BF92CF92DF92EF92FF92F3
:101530000F931F93CF93DF935C01EB016A01490185
:1015400038018701DC01ED91FC916217730719F5F1
:10155000641675062CF0962D872D3A01C92ED82ECB
:101560009601261937092F5F3F4F048CF58DE02D2A
:10157000A301BE01C5010995DF91CF911F910F9184
:10158000FF90EF90DF90CF90BF90AF909F908F90A3
:101590007F906F9008954615570591F426173707E9
:1015A00024F0892D4B01C22FD82F9E01281939090B
:1015B0002F5F3F4F068CF78DE02DA601B401DACFE7
:1015C0000284F385E02D0995D501ED91FC91048805
:1015D000F589E02D83019401A601BE01C50109959D
:1015E000D501ED91FC910688F789E02DC501DF91C9
:1015F000CF911F910F91FF90EF90DF90CF90BF9010
:10160000AF909F908F907F906F900994EF92FF9290
:101610000F931F93DC011A960D911C911B9718963E
:101620002D913C911997ED91FC9100A0F1A1E02D35
:101630007B0150E040E070E060E009951F910F9160
:10164000FF90EF9008954F925F926F927F928F92EA
:101650009F92AF92BF92CF92DF92EF92FF920F9341
:101660001F93CF93DF936C012B015A01390148017D
:10167000DC01ED91FC910284F385E02D0995E201F6
:10168000640C751CD601ED91FC91C615D7055CF470
:101690000088F189E02D87019401A501BE01C601F2
:1016A00009952196EFCF0688F789E02DC601DF91D5
:1016B000CF911F910F91FF90EF90DF90CF90BF904F
:1016C000AF909F908F907F906F905F904F90099414
:1016D0008F929F92AF92BF92CF92DF92EF92FF9242
:1016E0000F931F93CF93DF93EC015B014A016901D4
:1016F000E881F9810284F385E02D099595012C0D8F
:101700003D1D21503109E881F9810488F589E02DDA
:1017100078018401A401B501CE010995E881F98120
:101720000688F789E02DCE01DF91CF911F910F91AF
:10173000FF90EF90DF90CF90BF90AF909F908F90F1
:1017400009948F929F92AF92BF92CF92DF92EF92C5
:10175000FF920F931F93CF93DF93EC015B014A013C
:1017600069017801E881F9810284F385E02D09950A
:10177000C80CD91C860101501109E881F98104883F
:10178000F589E02D9501A401B501CE010995E88107
:10179000F9810688F789E02DCE01DF91CF911F9165
:1017A0000F91FF90EF90DF90CF90BF90AF909F9000
:1017B0008F9009940895EF92FF920F931F93DC018D
:1017C000ED91FC9100A0F1A1E02D09951F910F91E1
:1017D000FF90EF9008950F931F93DC01ED91FC9122
:1017E000068CF78DE02D09951F910F9108950F93A9
:1017F0001F93DC01ED91FC91048CF58DE02D099592
:101800001F910F910895DC01ED91FC910084F18509
:10181000E02D09942F923F924F925F926F927F92A8
:101820008F929F92AF92BF92CF92DF92EF92FF92F0
:101830000F931F93CF93DF9300D000D000D0CDB78C
:10184000DEB73C016A013E832D83FC82EB825801A6
:10185000A41AB50AB7FE03C0B194A194B1088D8053
:101860009E80861A970A97FE03C0919481949108EE
:101870008A149B045CF0902F812F0D811E819D8323
:101880008E839C2D8D2D6B01692F782F0C151D05D6
:101890005CF09D818E817E836D83692F782F902FE0
:1018A000812F8601C92ED82E1601201A310A2B014C
:1018B0002D813E81421A530A57FE03C05194419430
:1018C0005108710137FE03C03FEFE31AF30AF594A4
:1018D000E7948D819E81861797075CF5A1E0B0E0C3
:1018E000BA83A983C016D1064CF1D301ED91FC91C6
:1018F0000484F585E02D2B813C81A8016D817E81DA
:101900008A149B041CF04D815E81B801C3010995C6
:10191000E418F508F7FE0AC02D813E8189819A817D
:10192000280F391F3E832D83E20CF31C0F5F1F4FDE
:10193000D9CF2FEF3FEF3A832983D4CF26960FB626
:10194000F894DEBF0FBECDBFDF91CF911F910F91F5
:10195000FF90EF90DF90CF90BF90AF909F908F90CF
:101960007F906F905F904F903F902F9008950895D3
:101970002091AE01260F3327331F21323105ECF4BD
:101980002091D201FC0190E080E0243069F082E0F7
:101990000895A091AE012191AC0142575E4FA40F72
:1019A000B52FB11D2C930196861798F38091AE0147
:1019B000680F6093AE0180E0089581E00895109271
:1019C000D20181E08093D4011092D30161E082E1E1
:1019D0000E940B0461E083E10E940B04E9EBF0E05C
:1019E00080818E7F808380818D7F808388E4809357
:1019F000B80085E48093BC000895CF93DF9391E015
:101A000090938D018823B9F0C091B800D091BA00AD
:101A10008091BC008A7B8093BC0060E082E10E94E0
:101A20000B0460E083E10E940B040E94DF0CD09362
:101A3000BA00C093B800DF91CF910895E0910702FA
:101A400080910602E81730F4F0E0E859FE4F8081FB
:101A500090E008958FEF9FEF089590910702809195
:101A600006022FEF3FEF981748F4E92FF0E0E8590E
:101A7000FE4F208130E09F5F90930702C9010895D7
:101A80008091060290910702891B990B0895CF92CD
:101A9000DF92EF92FF920F931F93CF93DF937C011E
:101AA000CB018A0120912102222389F0EB016B01F5
:101AB000C40ED51ECC15DD0569F06991D701ED91F5
:101AC000FC910190F081E02DC7010995F3CF642FBF
:101AD0000E94B80CC801DF91CF911F910F91FF9028
:101AE000EF90DF90CF900895CF93DF931F92CDB703
:101AF000DEB76983209121022223F9F020911E0292
:101B0000203258F021E030E0FC013383228390E062
:101B100080E00F90DF91CF91089580911F02E82F10
:101B2000F0E0E85BFE4F998190838F5F80931F0206
:101B300080931E0281E090E0ECCF61E0CE0101963F
:101B40000E94B80CF7CFCF92DF92EF92FF920F93E3
:101B50001F93CF93DF93D0911E0281E0D13208F022
:101B60009CC0C09120020E946A046B017C0180919C
:101B7000D20181116CC082E08093D20181E0809318
:101B8000D4018FEF8093D1011092F601D093F5012B
:101B9000A8E4B1E0E5EDF1E080E0D8138DC010924B
:101BA000F7018091F701CC0FC82BC093F70180910A
:101BB000D301813009F084C01092D3010E946A04DD
:101BC0006B017C018091F7018093BB0080918901BA
:101BD00090918A01A0918B01B0918C01892B8A2B65
:101BE0008B2BA1F00E946A040091890110918A0157
:101BF00020918B0130918C016C197D098E099F0910
:101C0000061717072807390708F442C08091BC005F
:101C100083FDD8CF85EC8093BC000E946A046B01E1
:101C20007C018091D201823009F44CC08091D101B5
:101C30008F3F09F469C08091D101803209F466C0F8
:101C40008091D101803309F463C084E026C0809183
:101C5000890190918A01A0918B01B0918C01892B0F
:101C60008A2B8B2B09F483CF0E946A04009189018F
:101C700010918A0120918B0130918C016C197D09A2
:101C80008E099F09061717072807390708F06FCF35
:101C9000809188010E94FD0C85E010921F02109235
:101CA0001E0210922102DF91CF911F910F91FF90A0
:101CB000EF90DF90CF9008959D9191938F5F6DCFBE
:101CC00085EEA9CF8091890190918A01A0918B0125
:101CD000B0918C01892B8A2B8B2B09F4A2CF0E9407
:101CE0006A040091890110918A0120918B01309141
:101CF0008C016C197D098E099F09061717072807A3
:101D0000390708F08ECFC4CF80E0C7CF82E0C5CFBF
:101D100083E0C3CFFF920F931F93CF93DF93F82EEF
:101D2000D92FC62F80911E0390911F03009709F4AD
:101D300052C02091220331E03093210220932002EF
:101D400010921F0210921E02DC01ED91FC91019095
:101D5000F081E02D60E009950F2D1D2FD1E0FF24CB
:101D6000F394C15080911E0390911F03CF3F61F106
:101D7000D032C8F00E94A30D80911E0390911F03E2
:101D800020912203F09221022093200210921F0240
:101D900010921E02DC01ED91FC910190F081E02D8A
:101DA00060E00995D1E080911E0390911F03F80136
:101DB0006491DC01ED91FC910190F081E02D099599
:101DC000DF5F0F5F1F4FCDCFDF91CF911F910F913D
:101DD000FF900C94A30DE0912E03F0912F039081BE
:101DE000809134038095892380830F2D1D2FC1504E
:101DF00008F438C0F801849120911C0330911D0330
:101E0000232B29F00E9418070F5F1F4FF0CF28E007
:101E100030E040E8E0912A03F0912B0390913203E7
:101E2000582F5423D9F05081952B9083E0912C03A7
:101E3000F0912D03908150913303952B9083E09185
:101E40002C03F0912D0350819091330390959523AD
:101E50009083469521503109E9F6D6CF508190956F
:101E60009523E3CFDF91CF911F910F91FF900895BC
:101E70001F93CF93DF93EC018D8D9E8D009721F101
:101E8000162F29A131E030932102209320021092D5
:101E90001F0210921E02DC01ED91FC910190F08175
:101EA000E02D60E009958D8D9E8DDC01ED91FC911A
:101EB0000190F081E02D612F09958D8D9E8DDF9130
:101EC000CF911F910C94A30DADA5BEA59C918BA99C
:101ED000809589238C938B8D9C8D892B31F0862F57
:101EE000DF91CF911F910C94180728E030E080E833
:101EF000A9A5BAA599A9462F4823C1F04C91942BC6
:101F00009C93ABA5BCA59C914AA9942B9C93ABA593
:101F1000BCA54C919AA9909594239C9386952150A9
:101F2000310931F7DF91CF911F9108954C91909530
:101F30009423E6CFEF92FF920F931F93CF93DF93FB
:101F400080911E0390911F03892B09F493C0209167
:101F5000360330913703409138035091390360E0E4
:101F600074E284EF90E00E94CE1F205131094109B4
:101F7000510956954795379527952093B80065E008
:101F800084EE95E00E948A0E60910503615081E025
:101F900093E00E94380F2091070330910803C90194
:101FA000079697FD079623E0959587952A95E1F783
:101FB0002091050330910603829F8001839F100DBD
:101FC000929F100D1124C0912003D0912103809184
:101FD0001E0390911F030C0F1D1F009709F489C069
:101FE0002091220331E030932102209320021092AD
:101FF0001F0210921E02DC01ED91FC910190F08114
:10200000E02D60E40995FF24F394EE24E39480919D
:102010001E0390911F030C171D0709F442C0BFE176
:10202000BF15D0F40E94A30D80911E0390911F0351
:1020300020912203E09221022093200210921F029D
:1020400010921E02DC01ED91FC910190F081E02DD7
:1020500060E40995FF24F39480911E0390911F037F
:102060006991DC01ED91FC910190F081E02D0995E1
:10207000F394CDCF80911C0390911D03892B31F0F7
:1020800080913F03909140030E941F07E09130032D
:10209000F09131039081809135038095892380836D
:1020A0006ECF0E94A30D80911E0390911F03892B78
:1020B00009F460C020913A0330913B0340913C0306
:1020C00050913D0360E074E284EF90E00E94CE1FE7
:1020D0002051310941095109569547953795279562
:1020E0002093B800DF91CF911F910F91FF90EF9057
:1020F0000895E0912E03F0912F0380819091340395
:10210000892B80830C171D0771F2899120911C0384
:1021100030911D03232B19F00E941807F3CF28E0FC
:1021200030E040E8E0912A03F0912B0390913203D4
:10213000582F5423D9F05081952B9083E0912C0394
:10214000F0912D03908150913303952B9083E09172
:102150002C03F0912D03508190913303909595239A
:102160009083469521503109E9F6CCCF5081909566
:102170009523E3CFE0913003F0913103808190917A
:102180003503892B8083AECF1F93CF93DF93EC0170
:10219000162F8D8D9E8D892BB1F12DA93EA94FA9AA
:1021A00058AD60E074E284EF90E00E94CE1F2051B1
:1021B000310941095109569547953795279520933F
:1021C000B80066EA111167EACE010E94380F8D8DC2
:1021D0009E8D892B41F129AD3AAD4BAD5CAD60E0F0
:1021E00074E284EF90E00E94CE1F20513109410932
:1021F000510956954795379527952093B800DF915B
:10220000CF911F9108958B8D9C8D892B21F08EADE0
:102210009FAD0E941F07EFA5F8A990818CA980951A
:1022200089238083CECFEFA5F8A980819CA9892B33
:102230008083E5CF90E080E00895209107033091FE
:102240000803C901079697FD079623E095958795A2
:102250002A95E1F72091050330910603829FA001A2
:10226000839F500D929F500D112470E060E080918B
:102270002003909121030C9495220E94872285EDE2
:102280008093BC008091890190918A01A0918B017B
:10229000B0918C010796A11DB11D23E0B695A795BD
:1022A000979587952A95D1F72091BC0024FD03C00E
:1022B0001092D20108954091890150918A01609154
:1022C0008B0170918C01452B462B472B69F30097AE
:1022D000A105B10541F025E32A95F1F7000001972A
:1022E000A109B109E1CF809188010C94FD0C1F92E6
:1022F0000F920FB60F9211242F933F938F939F93BA
:10230000AF93BF938091F9019091FA01A091FB01E5
:10231000B091FC013091F80123E0230F2D3758F5DF
:102320000196A11DB11D2093F8018093F9019093AE
:10233000FA01A093FB01B093FC018091FD01909103
:10234000FE01A091FF01B09100020196A11DB11DF7
:102350008093FD019093FE01A093FF01B0930002D2
:10236000BF91AF919F918F913F912F910F900FBE91
:102370000F901F90189526E8230F0296A11DB11DFE
:10238000D2CF1F920F920FB60F9211242F933F932B
:102390004F935F936F937F938F939F93AF93BF936D
:1023A000CF93DF93EF93FF932091230230E0F90165
:1023B000EE57FA4F8491F901EE54FA4FD491F90196
:1023C000E053FA4FC491CC2379F081110E94E203CB
:1023D000EC2FF0E0EE0FFF1FE858FA4FA591B491F3
:1023E000EC91ED2381E009F480E020912802309106
:1023F00029022F5F3F4F309329022093280220911A
:102400002602309127022536310518F094E090938A
:10241000220290912202911130C0811169C0209155
:102420002802309129022436310528F4109229021D
:10243000109228025DC01092F402109227021092AE
:1024400026022091260230912702A9014F5F5F4F9B
:10245000509327024093260240912802509129026E
:10246000220F331FF901E65DFD4F51834083109227
:1024700029021092280291E021C09091220291300D
:1024800001F58130A9F52091260230912702A9019A
:102490004F5F5F4F509327024093260240912802DE
:1024A00050912902220F331FF901E65DFD4F518340
:1024B0004083109229021092280292E09093220207
:1024C00017C090912202923061F4882309F4B9CFA9
:1024D00020912802309129022536310548F093E0F9
:1024E000EDCF90912202933099F4882309F49ECF86
:1024F000909125029923A9F0811126C08091240290
:10250000882371F08091240261E00E940B0409C0CD
:1025100090912202943061F791E09093F402DFCF22
:102520002D9AFF91EF91DF91CF91BF91AF919F9144
:102530008F917F916F915F914F913F912F910F906C
:102540000FBE0F901F90189580912402882321F0D0
:102550008091240260E0D9CF2D98E3CF1F920F9293
:102560000FB60F9211242F933F934F935F936F9366
:102570007F938F939F93AF93BF93EF93FF9380913C
:10258000B900887F803609F44AC0F0F5883209F432
:10259000A7C018F5803109F49BC0B8F4882309F46A
:1025A000F9C0883009F494C0FF91EF91BF91AF91C9
:1025B0009F918F917F916F915F914F913F912F915B
:1025C0000F900FBE0F901F901895883109F488C0A6
:1025D000803251F78093D10114C0803409F49DC03A
:1025E00040F48033B9F38833F9F68093D10185EC58
:1025F000B0C0803509F485C0883509F496C08834A8
:1026000099F60E943F11D0CF883909F48CC038F573
:10261000883729F050F4883611F0803729F683E0A6
:102620008093D2011092D00157C0883809F47BC042
:10263000803919F0803809F0B7CF8091D00180320D
:1026400008F071C0E091D00181E08E0F8093D0013D
:102650008091BB00F0E0E055FE4F80833DC0803BA1
:1026600039F0E0F4803A09F479C0883A09F09CCF57
:1026700084E08093D2011092AF011092AE01E091FC
:102680000402F091050209958091AE0181110FC0FD
:1026900081E08093AE0110928E0109C0803C09F464
:1026A000A6CF883C09F4A3CF883B09F07DCFE09109
:1026B000AF0181E08E0F8093AF01F0E0E257FE4F53
:1026C00080818093BB009091AF018091AE0129C0C1
:1026D0008091F7018093BB0085EC8093BC0064CFB0
:1026E0009091F6018091F501981758F5E091F60167
:1026F00081E08E0F8093F601F0E0EB52FE4F808177
:10270000E9CFE091F60181E08E0F8093F601809190
:10271000BB00F0E0EB52FE4F80839091F601809178
:10272000F5019817C8F285E8D8CFE091F60181E06D
:102730008E0F8093F6018091BB00F0E0EB52FE4FCC
:1027400080838091D40181115CCF81E08093D3019B
:1027500084EA8093BC001092D20126CF85EC80934E
:10276000BC001092D2018091D001803230F4E0910F
:10277000D001F0E0E055FE4F10826091D00170E092
:10278000E0910202F091030280EB91E00995109232
:10279000D0010ACF1092D10134CFA5EFB2E0139649
:1027A0001C921E92129748EE53E060E070E014967F
:1027B0004D935D936D937C9317978BE091E0119609
:1027C0009C938E93E1E0F3E01382128220E830E0E4
:1027D0003583248380E490E0978386833187208744
:1027E00093878287168A158614861786168681E057
:1027F000858B848B2FEF3FEF338B228B318B208B9C
:10280000878B108E128E118E8DE191E091838083E3
:10281000148E138EB68FA58F10A2178E8FEF84A300
:1028200085A386A387A380A780E89AE1A6E0B0E00D
:1028300085AB96ABA7ABB0AF80EA96E8A1E0B0E07D
:1028400081AF92AFA3AFB4AF80E586AF17AEE2E23F
:10285000F2E083E0818313820895CF93DF93CDB7B5
:10286000DEB7A7970FB6F894DEBF0FBECDBF789442
:1028700084B5826084BD84B5816084BD85B5826085
:1028800085BD85B5816085BD80916E008160809336
:102890006E0010928100809181008260809381009F
:1028A00080918100816080938100809180008160AF
:1028B000809380008091B10084608093B10080910A
:1028C000B00081608093B00080917A008460809332
:1028D0007A0080917A00826080937A0080917A00F9
:1028E000816080937A0080917A00806880937A007A
:1028F0001092C1008091200390912103892B09F44B
:1029000088C00E941D1182E08093230380911E03E2
:1029100090911F03892B09F01FC161E0809127036B
:102920000E94390461E0809128030E94390480915B
:102930002703082E000C990BFC01E053FA4FE49199
:10294000F0E0EE0FFF1FEA53FA4F259134913093D8
:102950002F0320932E03FC01EE54FA4FE491E093F1
:10296000340380912803082E000C990BFC01E053DE
:10297000FA4FE491F0E0EE0FFF1FEA53FA4FA591F2
:10298000B491B0933103A0933003FC01EE54FA4F9D
:10299000E491E09335038C91E82BEC9380911C0338
:1029A00090911D03892B09F4B8C11FB7F894809149
:1029B0000102811127C0EAEDF5E08491ECEBF5E02E
:1029C0009491E82FF0E0EE0FFF1FEA56FA4FA59121
:1029D000B491EC91E92321F461E08AE00E940B04B8
:1029E00061E08AE00E9439048CB580618CBD8CB5B1
:1029F00080648CBD61E08DE00E94390461E08BE071
:102A00000E943904809101028F5F809301021FBFF1
:102A1000BCC02091070330910803C901079697FDB8
:102A2000079643E0959587954A95E1F72091050330
:102A300030910603AC01429FC001439F900D529F0D
:102A4000900D11240E94A5209093210380932003D0
:102A5000892B09F056CF81E08093150380931603EC
:102A600081E090E0909314038093130390931203FA
:102A70008093110360E083E00E943904F89482E0BF
:102A80008093B0008093B10094E69093B3001092CD
:102A9000B200809370007894109222021092270264
:102AA000109226028091230260E00E943904CE0138
:102AB00001961C01AAE2B2E0B0931902A093180299
:102AC000809126029091270290931B0280931A0214
:102AD0008091F40290E090931D0280931C028091FB
:102AE0002202833011F00C94761F80912C02909179
:102AF0002D02875891098E35910508F0B9C1809152
:102B0000260290912702049709F081C180912E023C
:102B100090912F028097479708F079C180913002F9
:102B2000909131020997099708F071C1109217022C
:102B3000109216028FEF9FEFDC01809310029093AA
:102B40001102A0931202B093130283E090E09093DD
:102B50000D0280930C021EC38CE38093220310921B
:102B600007021092060210921F0210921E020E948B
:102B7000DF0C83EB93E0909305028093040284EBD7
:102B800093E090930302809302028091290387FDD2
:102B90001EC061E00E94390461E0809129030E9417
:102BA0000B0461E070E080E090E00E948F0460E040
:102BB000809129030E940B046AE070E080E090E0BD
:102BC0000E948F0461E0809129030E940B04809190
:102BD0001E0390911F03892B09F4E2C02091360354
:102BE00030913703409138035091390360E074E22B
:102BF00084EF90E00E94CE1F205131094109510914
:102C000056954795379527952093B80064E08EEA4E
:102C100095E00E948A0E60910703615081E093E085
:102C20000E94380F64E08AEA95E00E948A0E809143
:102C3000230360E1813009F064E181E093E00E94C8
:102C4000380F64E086EA95E00E948A0E8FE8809350
:102C50003E0380910503909106038038910509F0A9
:102C6000B8C080910703909108038034910509F062
:102C7000C0C080912303813009F0A9C08FE98093FF
:102C80003E0312E16AED81E093E00E94380F612F6C
:102C900081E093E00E94380F61E881E093E00E94B8
:102CA000380F60913E0381E093E00E94380F69ED98
:102CB00081E093E00E94380F8091230362E281302B
:102CC00009F061EF81E093E00E94380F66E080EA4E
:102CD00095E00E948A0E80911E0390911F03892B1C
:102CE00009F48BC020913A0330913B0340913C039F
:102CF00050913D0360E074E284EF90E00E94CE1FAB
:102D00002051310941095109569547953795279525
:102D10002093B8000E949A0F9ECE61E08091250317
:102D20000E94390461E0809126030E943904809159
:102D30002503082E000C990BFC01E053FA4FE49197
:102D4000F0E0EE0FFF1FEA53FA4F259134913093D4
:102D50002B0320932A03FC01EE54FA4FE491E093F5
:102D6000320380912603082E000C990BFC01E053DE
:102D7000FA4FE491F0E0EE0FFF1FEA53FA4FA591EE
:102D8000B491B0932D03A0932C03FC01EE54FA4FA1
:102D9000E491E09333038C91E095E823EC93F5CE36
:102DA00080911C0390911D03892B31F080913F038A
:102DB000909140030E941F07E0913003F09131038E
:102DC0009081809135038095892380831FCF8FEC7C
:102DD00056CF8036910569F48091070390910803DE
:102DE000409739F480912303813029F480E1809366
:102DF0003E0312E047CF8FEAFACFE0913003F09123
:102E00003103808190913503892B808383CF80911A
:102E10002602909127028434910550F180912E0270
:102E200090912F02815491098F9710F590E080E0E6
:102E300040E050E0BA01FC01E05DFD4F20813181AE
:102E4000295031092930310598F4FC01EE5CFD4F21
:102E500020813181275131092231310508F4B8C070
:102E600020813181265031092730310508F4C9C04D
:102E70008091260290912702809709F4C7C0809123
:102E80002602909127028036910509F041C0E3E0C7
:102E9000F0E0FDA3ECA380912C0290912D0203970A
:102EA0000597B0F580912E0290912F024997439794
:102EB00038F080912E0290912F020A97099740F5E1
:102EC00081E090E000E010E09801D12CC12CFC01E1
:102ED000EE0FFF1FE65DFD4F812C912C540150E059
:102EE00040E060817181635071096530710580F443
:102EF00062817381695171096331710508F48BC076
:102F0000628173816A5071096930710508F494C057
:102F10008091260290912702809798F18091680213
:102F2000909169020397059760F5809166029091F0
:102F300067020897099728F520912A0230912B0201
:102F4000A2E3B0E00E9432206135734C8105910507
:102F50000CF484C130E020E090E080E0F901E25A16
:102F6000FD4F40815181485151094331510508F4C9
:102F7000E0C040815181485051094930510508F461
:102F80006AC180912602909127024A9708F4AEC147
:102F900020912A0230912B0242E3429FC001439FBD
:102FA000900D1124843F914008F06FC110921702D8
:102FB000109216028FEF9FEFDC0180931002909326
:102FC0001102A0931202B09313028BE090E0BFCDE8
:102FD000440F551F661F771F416004968038910586
:102FE00009F029CFA0E2B0E0B0931702A093160237
:102FF00040931002509311026093120270931302D7
:10300000A4CD440F551F661F771FE7CF41E050E066
:103010005DA34CA340CF44244394512C042E02C002
:10302000440C551C0A94E2F7052C000C660877083E
:10303000840C951CA61CB71C02964F5F5F4F3496FC
:103040004530510509F04DCFFC01EE0FFF1FE65D45
:10305000FD4F40E050E0BA011FA21EA2E080F180C7
:10306000A3E0EA1AF108B5E0EB16F10408F050CF3E
:10307000E280F380A9E1EA1AF108B3E1EB16F1046A
:1030800008F445C0E280F380AAE0EA1AF108B9E04A
:10309000EB16F10408F03CCF7C01A2E0EA0EF11C33
:1030A000AEA1BFA11196BFA3AEA33496189769F540
:1030B0000896011511052105310531F0401751071A
:1030C0006207730709F024CF8A019B010095BFEFC7
:1030D000CB1ADB0AECA1FDA1EC15FD0509F0F7CE3A
:1030E0008FE090E0909317028093160240931002B5
:1030F00050931102609312027093130290920F0288
:1031000080920E028EE090E022CDC701A7CF44242A
:103110004394512C0EA002C0440C551C0A94E2F7B3
:10312000052C000C66087708440D551D661D771D9B
:10313000B3CF880F991F8160245031092C3C4FEF89
:10314000340709F00BCF2DE030E0309317022093C5
:1031500016029C01207233272150310930930F024F
:1031600020930E02E5E096958795EA95E1F7B0E0A9
:10317000A0E08093100290931102A0931202B093EA
:1031800013028FE090E090930D0280930C0281E097
:1031900080930001C0901002D0901102E0901202C2
:1031A000F09013021092220210922702109226022F
:1031B000C0920802D0920902E0920A02F0920B0239
:1031C000C114D104E104F104F1F10E941D11109227
:1031D0000E0310920D031092100310920F032AE0B9
:1031E000A101C701B6010E948C1FF10101900020CE
:1031F000E9F731978F0102191309B8016F5F7F4F0B
:1032000090E080E00E94CA217C01009709F472C618
:10321000DC011C92B1010E949C22A801B70181E04F
:1032200093E00E94B50342E050E065E471E081E084
:1032300093E00E94B503E114F10419F0C7010E9464
:1032400041210E949A0F80E090E0892B09F432CC52
:103250000E9400002CCC880F991F6ECF8091000136
:10326000811110C010921702109216028FEF9FEF7B
:10327000DC018093100290931102A0931202B0938C
:10328000130240CF109200017CCE80912C029091CD
:103290002D0285974B9750F5E2E2F2E082E090E054
:1032A000C12CD12C76012091260230912702AC014D
:1032B0004F5F5F4F4217530708F0FFC024853585E5
:1032C000275031092730310508F0F7C026853785AA
:1032D000235131092F30310508F4E1C026853785A7
:1032E0002A5031092930310508F4E2C080912602C4
:1032F000909127024A9708F446C020912A02309103
:103300002B0242E3429FC001439F900D1124803263
:10331000934008F44BCE80912C0290912D02C597DA
:10332000879788F580912E0290912F02C5978797F5
:1033300050F5E0E3F2E083E090E0C12CD12C76017F
:103340002091260230912702AC014F5F5F4F421758
:10335000530708F0D9C0208131812C5031092B301E
:10336000310508F0D1C022813381255231092B313A
:10337000310508F4BBC0228133812B5031092B3039
:10338000310508F4BCC080912602909127028297F3
:1033900040F180912C0290912D020697079708F535
:1033A000E2E2F2E082E090E040E050E0BA01DC01CD
:1033B00011962091260230912702A217B30708F038
:1033C000CFC0248535852E5131092731310508F4C8
:1033D000B2C0248535852C5031092B30310508F4D5
:1033E000B9C01BA21AA2E1E0F0E0FA83E983809160
:1033F0002602909127020D9708F4E7C049E753E0B1
:10340000BE016E5D7F4FC1010E942103892B09F02F
:10341000DCC049E753E0BE016E5D7F4FC1010E94F1
:103420002103019709F0D1C049E753E0BE016E5D69
:103430007F4FC1010E9421038C01892B09F0C5C077
:10344000812C912C540120912602309127028981F0
:103450009A818217930708F0A5C049E753E0BE019F
:103460006E5D7F4FC1010E9421037C0149E753E05B
:10347000BE016E5D7F4FC1010E942103F1E0EF1696
:10348000F10409F086C0892B09F09FC0880C991CB3
:10349000AA1CBB1C689480F80F5F1F4FD4CFCC0CC4
:1034A000DD1CEE1CFF1C6894C0F802963496FBCE1F
:1034B000CC0CDD1CEE1CFF1CF8CF01979695879570
:1034C00090931702809316020C9728F4109217021B
:1034D000109216020BCFC0921002D0921102E0920D
:1034E0001202F092130284E090E031CBCC0CDD1C90
:1034F000EE1CFF1C6894C0F80296349621CFCC0CC9
:10350000DD1CEE1CFF1CF8CF0197969587959093D4
:103510001702809316020C9728F41092170210924B
:10352000160231CFC0921002D0921102E092120224
:10353000F09213024ACD440F551F661F771F41605A
:10354000268537853496235031092530310538F4E6
:1035500002962DCF440F551F661F771FF1CFCD0167
:10356000019796958795909317028093160240973E
:1035700028F4109217021092160233CF40931002D3
:103580005093110260931202709313028CE090E04A
:10359000DECAEF28D1F40197C1F4880C991CAA1C4B
:1035A000BB1C7ACF10931702009316028092100270
:1035B00090921102A0921202B092130241E050E0E8
:1035C00050930D0240930C02E5CD1BA21AA281E09C
:1035D00090E09A83898380911A0290911B02892B33
:1035E00009F478C0E0911802F09119028281938168
:1035F00089974E9708F06EC0A2E0B0E0BA83A98325
:10360000848195810B970A9708F064C083E090E06D
:103610009A8389834CEB51E0BE016E5D7F4FC101FF
:103620000E9421038C01892B09F054C04CEB51E01E
:10363000BE016E5D7F4FC1010E942103019709F019
:1036400049C0812C912C540120911A0230911B0207
:1036500089819A818217930708F0E6C04CEB51E00C
:10366000BE016E5D7F4FC1010E9421036C010330DA
:10367000110529F14CEB51E0BE016E5D7F4FC10198
:103680000E9421037C010330110559F44CEB51E0F9
:10369000BE016E5D7F4FC1010E942103E816F9064D
:1036A000C9F4C114D10409F4B2C0CA94CD2891F46C
:1036B000EF2881F4880C991CAA1CBB1CB2C04CEBEF
:1036C00051E0BE016E5D7F4FC1010E942103C8160B
:1036D000D90681F2E0911802F0911902828193815A
:1036E000C597879778F5848195814B97459750F5D5
:1036F000DF0116967F0156ECE50EF11C20E030E06C
:1037000040E050E060E070E080E090E00D911C91BE
:1037100011970850110909301105A0F412960D9166
:103720001C911397015111090D30110508F48BC03C
:1037300012960D911C911397045011090530110533
:1037400008F4A6C08091260290912702C99780F1C3
:10375000828193818E5791098835910548F584813E
:103760009581CD978B9720F59F012A5F3F4FC12C04
:10377000D12C760143E050E0D9016D917C911197F5
:103780006A5071096930710598F412966D917C91B7
:103790001397665171096131710508F47DC0129665
:1037A0006D917C91665071096730710508F4A3C072
:1037B0008091260290912702829709F0A1C0828110
:1037C00093810A97099708F09BC0A0912602B091B7
:1037D0002702A150B048AA0FBB1FAE0FBF1F8D918B
:1037E0009C910A97099708F08BC0109217021092CB
:1037F00016028FEF9FEFDC0180931002909311026D
:10380000A0931202B093130286E090E0A0C9EA945C
:10381000EF2809F05FCF880C991CAA1CBB1C689488
:1038200080F80F5F1F4F10CF1093170200931602FE
:103830008092100290921102A0921202B092130292
:1038400042E050E0BDCE01E00E9469202160149664
:10385000EA16FB0609F05ACF2093100230931102AA
:10386000409312025093130200E20E94842020939E
:103870000E0230930F0285E090E090930D0280934A
:103880000C0280E390E0909317028093160282CCA2
:1038900001E00E946920DBCFD701C601880F991F84
:1038A000AA1FBB1F6C017D016894C0F84E5F5F4F7B
:1038B0002C5F3F4F4B33510509F05ECF9F012A58D3
:1038C0003F4FD9012D913C912A50310929303105C2
:1038D00008F06ECF2CE130E03093170220931602EF
:1038E000C0921002D0921102E0921202F0921302E2
:1038F0008AE090E02CC9CC0CDD1CEE1CFF1CD6CF5E
:10390000828193818E5791098835910570F5809158
:10391000260290912702819740F184819581CD976D
:103920008B9718F59F012A5F3F4FC12CD12C760150
:1039300043E050E0D9016D917C9111976A50710973
:103940006930710590F412966D917C9113976651D0
:10395000710961317105A8F112966D917C916650E3
:1039600071096730710508F459C0828193818454CC
:103970009109C19708F089C0809126029091270291
:10398000049709F050C0848195818097479708F08B
:103990004AC0868197810997099708F044C0109220
:1039A0001702109216028FEF9FEFDC018093100236
:1039B00090931102A0931202B093130287E090E05B
:1039C000C6C8D701C601880F991FAA1FBB1F6C016B
:1039D0007D016894C0F84E5F5F4F2C5F3F4F4332CC
:1039E000510509F0A7CF9F012A5B3F4FD9012D91C7
:1039F0003C912A5031092930310508F0B6CF20E139
:103A000030E03093170220931602C0921002D09239
:103A10001102E0921202F0921302F6CECC0CDD1CE1
:103A2000EE1CFF1CD8CF809126029091270284348F
:103A3000910558F184819581815491098F9728F5DA
:103A40009F012A5F3F4FBF016A577F4FC12CD12C86
:103A50007601D9014D915C91119749505109493036
:103A6000510598F412964D915C9113974651510966
:103A70004131510508F4ABC012964D915C9146500E
:103A800051094730510508F4C1C080912602909138
:103A9000270286349105C0F1828193810C970B97A0
:103AA00098F5848195810997099770F586819781AA
:103AB0008C974F9748F58085918589974D9720F58C
:103AC0009F01265F3F4FC12CD12C760145E050E08D
:103AD000D9016D917C9111976C5071096B30710512
:103AE00098F412966D917C9113976E51710967311C
:103AF000710508F490C012966D917C91695071091E
:103B00006930710508F4B7C08091260290912702B0
:103B10008835910508F4BEC082819381845891094B
:103B20008C35910508F0B6C0848195818154910946
:103B30008F9708F0AFC08F01045C1F4F8DE190E0BC
:103B400030E020E040912602509127024450510974
:103B50008417950710F5A80142505109DA014D91DB
:103B60005C91485051094930510508F093C0BC019F
:103B70006F5F7F4FD8014D915C911197475051096C
:103B80004730510508F47CC04D915C914751510973
:103B90004331510508F47BC0CB0101979695879579
:103BA00090931702809316028A9708F473C0C90194
:103BB000330FAA0BBB0B8093100290931102A093BA
:103BC0001202B093130289E090E00C94A715D7017C
:103BD000C601880F991FAA1FBB1F6C017D01689445
:103BE000C0F82C5F3F4F6217730709F032CFE0E255
:103BF000F0E0F0931702E0931602C0921002D09208
:103C00001102E0921202F0921302D8CECC0CDD1C0D
:103C1000EE1CFF1CE6CFD701C601880F991FAA1F13
:103C2000BB1F6C017D016894C0F84E5F5F4F2C5F35
:103C30003F4F4534510509F04BCF9F0126573F4F69
:103C4000D9012D913C912C5031092B30310508F0D0
:103C50005BCFE0E2F0E0F0931702E0931602C0922F
:103C60001002D0921102E0921202F092130288E048
:103C700090E00C94A715CC0CDD1CEE1CFF1CD5CFDE
:103C8000220F331F216002960C5F1F4F5BCF220F64
:103C9000331FF9CF8091260290912702809779F502
:103CA000828193810597079750F5848195810997C3
:103CB000099728F59F012A5F3F4FBF01625C7F4F44
:103CC000C12CD12C7601D9014D915C9111974550B1
:103CD00051094730510598F412964D915C91139714
:103CE000495151094331510508F454C012964D9180
:103CF0005C91495051094930510508F46DC08091DB
:103D00002602909127028436910508F483C05F0152
:103D1000B2E0AB0EB11C20E030E040E0D12CE12C51
:103D2000F12CC12C712C44244394512C80912602F7
:103D300090912702B2016F5F7F4F6817790708F0F3
:103D400050C0D5010D911C91B2E04B0E511CD50114
:103D500012968D909C90C401B8010E944120DB0115
:103D600002511109080D191D0F30110508F052C03C
:103D70005D2DB7018C2D972D01E00E946920D52E75
:103D80007B01C82E792E129708F4216054E0A50E0D
:103D9000B11CCCCFD701C601880F991FAA1FBB1F2A
:103DA0006C017D016894C0F82C5F3F4F6217730768
:103DB00009F089CF2EE030E03093170220931602ED
:103DC000C0921002D0921102E0921202F0921302FD
:103DD00080E190E00C94A715CC0CDD1CEE1CFF1CC0
:103DE000E3CF83E190E090930D0280930C02569410
:103DF0004794509217024092160240931002D092BC
:103E00001102E0921202F0921302209314023093F6
:103E10001502C0C9E0901A02F0901B02B6E0EB1642
:103E2000F10408F45DC0369625EC3DE94CE151E81B
:103E300003E0C02ED12C8AE0B82E80819181DF0171
:103E400014976D917C91B89E4001B99E900C1124FD
:103E5000DB0113E0AA0FBB1F1A95E1F710E000E0A9
:103E60008A169B0688F0B69ED001B79EB00D11242D
:103E700063E0880F991F6A95E1F702E010E0A81748
:103E8000B90710F001E010E063E971E080E091E033
:103E90000E94BE1F012E000C220B330BA9019801BA
:103EA00026273727482759278FEFC81AD80A32966E
:103EB000CE14DF0411F620931002309311024093C8
:103EC000120250931302A0E2B0E0B0931702A09345
:103ED0001602EFEFFFEFF0930D02E0930C025AC9C8
:103EE000109222021092270210922602C12CD12C8D
:103EF00076015EC910E000E090C98DE191E09093F9
:103F00000203809301038091200390912103009785
:103F100011F00C9441210895BB27FA01A62F6217D6
:103F2000710581059105330B30FB66F0AA27660FFA
:103F3000771F881F991FAA1FA21710F0A21B639555
:103F40003850A9F7A05DAA3308F0A95DA19336F710
:103F5000B111B1931082CA010C94AE1FDC01FC01B7
:103F6000672F71917723E1F7329704C07C916D93AD
:103F700070836291AE17BF07C8F30895DB018F937A
:103F80009F930E94F01FBF91AF91A29F800D911D42
:103F9000A39F900DB29F900D11240895A1E21A2EB7
:103FA000AA1BBB1BFD010DC0AA1FBB1FEE1FFF1FDD
:103FB000A217B307E407F50720F0A21BB30BE40B2D
:103FC000F50B661F771F881F991F1A9469F7609574
:103FD0007095809590959B01AC01BD01CF0108952E
:103FE0000E943220A59F900DB49F900DA49F800D3C
:103FF000911D112408952F923F924F925F926F92DC
:104000007F928F929F92AF92BF92CF92DF92EF9268
:10401000FF920F931F93CF93DF93CDB7DEB7CA1BE9
:10402000DB0B0FB6F894DEBF0FBECDBF09942A8814
:10403000398848885F846E847D848C849B84AA84BC
:10404000B984C884DF80EE80FD800C811B81AA8149
:10405000B981CE0FD11D0FB6F894DEBF0FBECDBF14
:10406000ED010895A29FB001B39FC001A39F700D01
:10407000811D1124911DB29F700D811D1124911D70
:104080000895AA1BBB1B51E107C0AA1FBB1FA6179F
:10409000B70710F0A61BB70B881F991F5A95A9F7F1
:1040A00080959095BC01CD01089597FB072E16F4DD
:1040B000009407D077FD09D00E94412007FC05D06D
:1040C0003EF4909581959F4F0895709561957F4F2F
:1040D0000895002E083090F0982F872F762F652FA7
:1040E000542F432F322F22270850F4CF220F331F93
:1040F000441F551F661F771F881F991F0A95B2F727
:10410000002D089597FD1094002E083098F0085067
:10411000232F342F452F562F672F782F892F912D3E
:10412000F4CF15949795879577956795579547950B
:10413000379527950A95AAF71124002D0895EE0FBB
:10414000FF1F0590F491E02D09940F931F93CF93D7
:10415000DF938230910510F482E090E0E091430318
:10416000F091440330E020E0B0E0A0E0309799F413
:104170002115310509F44AC0281B390B24303105BB
:10418000D8F58A819B816115710589F1FB019383C3
:104190008283FE0111C04081518102811381481741
:1041A0005907E0F04817590799F4109761F01296F3
:1041B0000C93129713961C933296CF01DF91CF91F7
:1041C0001F910F9108950093430310934403F4CF7C
:1041D0002115310551F04217530738F0A901DB01D1
:1041E0009A01BD01DF01F801C1CFEF01F9CF909332
:1041F000440380934303CDCFFE01E20FF31F81936D
:1042000091932250310939832883D7CF20914103DC
:1042100030914203232B41F420910301309104019A
:104220003093420320934103209101013091020118
:104230002115310541F42DB73EB74091050150914C
:104240000601241B350BE0914103F0914203E21774
:10425000F307A0F42E1B3F0B2817390778F0AC01A9
:104260004E5F5F4F2417350748F04E0F5F1F509386
:10427000420340934103819391939FCFF0E0E0E0AC
:104280009CCFCF93DF930097E9F0FC013297138224
:104290001282A0914303B0914403ED0130E020E08D
:1042A0001097A1F420813181820F931F2091410347
:1042B000309142032817390709F061C0F093420397
:1042C000E0934103DF91CF910895EA01CE17DF0714
:1042D000E8F54A815B819E0141155105B1F7E9017D
:1042E000FB83EA8349915991C40FD51FEC17FD0751
:1042F00061F4808191810296840F951FE901998371
:104300008883828193819B838A83F0E0E0E0129628
:104310008D919C9113970097B9F52D913C91119730
:10432000CD010296820F931F2091410330914203E9
:104330002817390739F6309751F510924403109237
:104340004303B0934203A0934103BCCFD383C28302
:1043500040815181840F951FC817D90761F44E5FC2
:104360005F4F88819981480F591F518340838A810B
:104370009B81938382832115310509F0B0CFF0939F
:104380004403E09343039ECFFD01DC01C0CF1382C1
:104390001282D7CFB0E0A0E0E0EDF1E20C94FD1F77
:1043A0008C01009751F4CB010E94A5208C01C8011B
:1043B000CDB7DEB7E0E10C941920FC01E60FF71F42
:1043C0009C0122503109E217F30708F49DC0D9017E
:1043D000CD91DC911197C617D70798F0C530D1055C
:1043E00030F3CE0104978617970708F3C61BD70B47
:1043F0002297C193D1936D937C93CF010E94412169
:10440000D6CF5B01AC1ABD0A4C018C0E9D1EA0914B
:104410004303B0914403512C412CF12CE12C109713
:1044200031F580914103909142038815990509F077
:104430005CC04616570608F058C080910101909163
:104440000201009741F48DB79EB74091050150914C
:104450000601841B950BE817F90708F055C0F09387
:104460004203E0934103F90171836083A0CF8D91F2
:104470009C91119712966C90129713967C901397BB
:10448000A815B90559F56C0142E0C40ED11CCA1437
:10449000DB0420F1AC014A195B09DA011296159789
:1044A00080F06282738251834083D9016D937C9343
:1044B000E114F10471F0D7011396FC93EE93129777
:1044C00076CF22968C0F9D1FF90191838083F30193
:1044D000EFCFF0934403E093430369CF48165906A6
:1044E00008F42C017D01D3019ACFCB010E94A520B5
:1044F0007C01009749F0AE01B8010E948C22C801EE
:104500000E944121870153CF10E000E050CF81E0AD
:1045100090E0F8940C94A322FB01DC0102C001900E
:104520000D9241505040D8F70895DC0101C06D93C1
:1045300041505040E0F70895FB01DC0101900D92DD
:104540000020E1F7089512E0C6EFD2E004C0FE01BA
:104550000E949F202196C73FD107C9F7F894FFCF4B
:104560000100004503800000000000740D470D1A93
:1045700011DA0B400D2D0D1E0D000000005D09B578
:10458000031A11B70C6806DA0B030CDB0BF70BEB05
:104590000B0A0CDA0B2307C410D8052106230B06DF
:0845A0000B8E0A2F0A0D0A0020
:00000001FF
