:100000000C9462000C948A000C948A000C948A0070
:100010000C948A000C948A000C948A000C944C0373
:100020000C948A000C948A000C948A000C948A0028
:100030000C948A000C948A000C948A000C948A0018
:100040000C9402030C948A000C94D0020C94AA0223
:100050000C948A000C948A000C948A000C948A00F8
:100060000C948A000C948A000000000023002600F3
:10007000290000000008000201000003040700003E
:1000800000000000000000000000250028002B00F8
:1000900000000000240027002A00040404040404D3
:1000A0000404020202020202030303030303010227
:1000B00004081020408001020408102001020408F6
:1000C0001020390411241FBECFEFD8E0DEBFCDBF12
:1000D00022E0A6E1B1E001C01D92A13AB207E1F72A
:1000E00011E0A0E0B1E0EAEAFCE102C005900D9267
:1000F000A631B107D9F710E0C2E6D0E004C02197DD
:10010000FE010E944D0EC136D107C9F70E946B0453
:100110000C94530E0C940000CF93DF9390E0FC01FD
:10012000E255FF4F249186569F4FFC01849188230E
:10013000C1F090E0880F991FFC01E057FF4FC59177
:10014000D491FC01EA57FF4FA591B4919FB7F89461
:100150008881E22FE0958E2388838C91E823EC93AD
:100160009FBFDF91CF910895AF92BF92CF92DF9260
:10017000EF92FF920F931F93CF93DF937C016B015C
:100180005A01FC018081918120912D0130912E0135
:10019000C1E0D0E08217930708F062C09C01220FF3
:1001A000331FE0912B01F0912C01E20FF31F00812E
:1001B0001181EC01C095D095C170DD272CE93FEF8E
:1001C00080FF02C024E630E02A0D3B1DC90163E434
:1001D00070E00E94030E0617170754F0C90168E289
:1001E00070E00E94030E6F5F7F4F601771076CF520
:1001F0002A0D3B1DC90163E470E00E94030E06173F
:10020000170754F0C90168E270E00E94030E6F5FA7
:100210007F4F6017710784F52A0D3B1DC90163E408
:1002200070E00E94030E0617170764F0C90168E228
:1002300070E00E94030E6F5F7F4F23E030E0601795
:1002400071072CF4CFEFDFEF0BC021E030E0F601B7
:10025000808191810196821793078CF4918380832A
:10026000CE01DF91CF911F910F91FF90EF90DF9022
:10027000CF90BF90AF90089522E030E0E8CF118298
:100280001082F701808191810196E8CFAF92BF92F1
:10029000CF92DF92EF92FF920F931F93CF93DF9352
:1002A0006C017B018B01040F151FEB015E01AE1881
:1002B000BF08C017D10759F06991D601ED91FC91A3
:1002C0000190F081E02DC6010995892B79F7C501D0
:1002D000DF91CF911F910F91FF90EF90DF90CF9022
:1002E000BF90AF900895FC01538D448D252F30E0D1
:1002F000842F90E0821B930B541710F0CF96089533
:1003000001970895FC01918D828D981761F0A28D5F
:10031000AE0FBF2FB11D5D968C91928D9F5F9F7325
:10032000928F90E008958FEF9FEF0895FC01918DDB
:10033000828D981731F0828DE80FF11D858D90E048
:1003400008958FEF9FEF0895FC01918D228D892FE5
:1003500090E0805C9F4F821B91098F7399270895CD
:1003600081E391E00E94A40121E0892B09F420E0BF
:10037000822F089580E090E0892B29F00E94B0013F
:1003800081110C9400000895FC01A48DA80FB92FD1
:10039000B11DA35ABF4F2C91848D90E001968F73AD
:1003A0009927848FA689B7892C93A089B1898C91CC
:1003B000837080648C93938D848D981306C002881B
:1003C000F389E02D80818F7D80830895EF92FF92E5
:1003D0000F931F93CF93DF93EC0181E0888F9B8D68
:1003E0008C8D98131AC0E889F989808185FF15C022
:1003F0009FB7F894EE89FF896083E889F989808145
:100400008370806480839FBF81E090E0DF91CF9113
:100410001F910F91FF90EF900895F62E0B8D10E035
:100420000F5F1F4F0F731127E02E8C8D8E110CC0A4
:100430000FB607FCFACFE889F989808185FFF5CFEF
:10044000CE010E94C401F1CFEB8DEC0FFD2FF11D09
:10045000E35AFF4FF0829FB7F8940B8FEA89FB892C
:1004600080818062CFCFCF93DF93EC01888D88238A
:10047000B9F0AA89BB89E889F9898C9185FD03C007
:10048000808186FD0DC00FB607FCF7CF8C9185FFEC
:10049000F2CF808185FFEDCFCE010E94C401E9CF6C
:1004A000DF91CF910895833081F028F4813099F065
:1004B0008230A9F008958730A9F08830C9F08430DF
:1004C000B1F4809180008F7D03C0809180008F7790
:1004D00080938000089584B58F7784BD089584B596
:1004E0008F7DFBCF8091B0008F778093B00008950F
:1004F0008091B0008F7DF9CF1F93CF93DF93282F8A
:1005000030E0F901EE58FF4F8491F901E255FF4FB9
:10051000D491F901E656FF4FC491CC23A9F0162FD0
:1005200081110E945302EC2FF0E0EE0FFF1FEA57FB
:10053000FF4FA591B4918FB7F894EC91111108C0B9
:10054000D095DE23DC938FBFDF91CF911F9108956B
:10055000DE2BF8CF1F920F920FB60F9211242F931C
:100560003F934F935F936F937F938F939F93AF933B
:10057000BF93EF93FF9381E391E00E94C401FF9149
:10058000EF91BF91AF919F918F917F916F915F910B
:100590004F913F912F910F900FBE0F901F90189584
:1005A0001F920F920FB60F9211242F938F939F9348
:1005B000EF93FF93E0914101F09142018081E0913E
:1005C0004701F091480182FD1BC0908180914A0152
:1005D0008F5F8F7320914B01821741F0E0914A01A8
:1005E000F0E0EF5CFE4F958F80934A01FF91EF9111
:1005F0009F918F912F910F900FBE0F901F90189584
:100600008081F4CF1F920F920FB60F9211242F9377
:100610003F938F939F93AF93BF9380911B019091D2
:100620001C01A0911D01B0911E0130911A0123E01F
:10063000230F2D3758F50196A11DB11D20931A01E6
:1006400080931B0190931C01A0931D01B0931E0188
:100650008091160190911701A0911801B091190194
:100660000196A11DB11D8093160190931701A093CF
:100670001801B0931901BF91AF919F918F913F9154
:100680002F910F900FBE0F901F90189526E8230F03
:100690000296A11DB11DD2CF1F920F920FB60F92DD
:1006A00011242F933F934F935F936F937F938F9377
:1006B0009F93AF93BF93CF93DF93EF93FF932091DB
:1006C000CF0130E0F901EE58FF4F8491F901E25576
:1006D000FF4FD491F901E656FF4FC491CC2379F036
:1006E00081110E945302EC2FF0E0EE0FFF1FE8593A
:1006F000FF4FA591B491EC91ED2381E009F480E0E6
:100700002091D4013091D5012F5F3F4F3093D50117
:100710002093D4012091D2013091D30125363105A7
:1007200018F094E09093CE019091CE01911130C0D9
:10073000811169C02091D4013091D5012436310551
:1007400028F41092D5011092D4015DC01092A0023D
:100750001092D3011092D2012091D2013091D30195
:10076000A9014F5F5F4F5093D3014093D201409155
:10077000D4015091D501220F331FF901EA52FE4FE7
:10078000518340831092D5011092D40191E021C091
:100790009091CE01913001F58130A9F52091D201DF
:1007A0003091D301A9014F5F5F4F5093D301409324
:1007B000D2014091D4015091D501220F331FF9018C
:1007C000EA52FE4F518340831092D5011092D4011A
:1007D00092E09093CE0117C09091CE01923061F4D7
:1007E000882309F4B9CF2091D4013091D501253661
:1007F000310548F093E0EDCF9091CE01933099F41C
:10080000882309F49ECF9091D1019923A9F08111F9
:1008100026C08091D001882371F08091D00161E0E1
:100820000E947C0209C09091CE01943061F791E062
:100830009093A002DFCF2D9AFF91EF91DF91CF919E
:10084000BF91AF919F918F917F916F915F914F91E8
:100850003F912F910F900FBE0F901F901895809190
:10086000D001882321F08091D00160E0D9CF2D986C
:10087000E3CFE1E3F1E01382128288EE93E0A0E09F
:10088000B0E084839583A683B78385E091E091836C
:10089000808385EC90E09587848784EC90E097874F
:1008A000868780EC90E0918B808B81EC90E0938B3D
:1008B000828B82EC90E0958B848B86EC90E0978B1A
:1008C000868B118E128E138E148EEEECF1E082E088
:1008D000818313820895CF93DF93CDB7DEB7A797B7
:1008E0000FB6F894DEBF0FBECDBF789484B582609A
:1008F00084BD84B5816084BD85B5826085BD85B5C4
:10090000816085BD80916E00816080936E00109241
:1009100081008091810082608093810080918100BC
:10092000816080938100809180008160809380004D
:100930008091B10084608093B1008091B0008160AB
:100940008093B00080917A00846080937A008091D7
:100950007A00826080937A0080917A00816080932F
:100960007A0080917A00806880937A001092C100AA
:1009700082E00E948C00E0914101F091420182E00E
:100980008083E0913D01F0913E011082E0913F01B2
:10099000F09140019FEC908310924901E091450154
:1009A000F091460196E09083E0914301F09144017B
:1009B000908190619083E0914301F0914401908196
:1009C00098609083E0914301F09144019081906898
:1009D0009083E0914301F091440190819F7D908349
:1009E000F8948093B0008093B10094E69093B300A4
:1009F0001092B2008093700078941092CE01109201
:100A0000D3011092D2018091CF010E948C00A0E20C
:100A10002A2E312C86ED91E090932C0180932B01AE
:100A20008091D2019091D30190932E0180932D015A
:100A30008091A00290E09093300180932F018091EB
:100A4000CE01833009F02EC28091D8019091D90156
:100A5000875891098E35910508F05BC08091D201CD
:100A60009091D301049721F58091DA019091DB01F7
:100A700080974797E8F48091DC019091DD01099718
:100A80000997B0F410922A01109229018FEF9FEF7D
:100A9000DC018093230190932401A0932501B0935E
:100AA000260183E090E09093200180931F01C1C153
:100AB0008091D2019091D3018434910550F18091BD
:100AC000DA019091DB01815491098F9710F590E044
:100AD00080E040E050E0BA01FC01E452FE4F20818A
:100AE0003181295031092930310598F4FC01E25255
:100AF000FE4F20813181275131092231310508F41F
:100B0000B8C020813181265031092730310508F4E1
:100B1000C7C08091D2019091D301809709F4C5C0DC
:100B20008091D2019091D3018036910509F041C0A6
:100B3000A3E0B0E0BDA3ACA38091D8019091D9010E
:100B400003970597B0F58091DA019091DB01499701
:100B5000439738F08091DA019091DB010A97099769
:100B600040F581E090E000E010E09801D12CC12C2C
:100B7000FC01EE0FFF1FEA52FE4F812C912C540115
:100B800050E040E06081718163507109653071050A
:100B900080F462817381695171096331710508F4D0
:100BA00089C0628173816A5071096930710508F4E6
:100BB00092C08091D2019091D301809798F1809159
:100BC0001402909115020397059760F58091120227
:100BD000909113020897099728F52091D60130913A
:100BE000D701A2E3B0E00E94E00D6135734C8105AE
:100BF00091050CF467C130E020E090E080E0F9015D
:100C0000E65FFD4F40815181485151094331510503
:100C100008F4DEC0408151814850510949305105E6
:100C200008F44DC18091D2019091D3014A9708F404
:100C300091C12091D6013091D70142E3429FC0017A
:100C4000439F900D1124843F914008F052C11092AF
:100C50002A01109229018FEF9FEFDC01809323017D
:100C600090932401A0932501B09326018BE090E09E
:100C70001ACF440F551F661F771F416004968038B6
:100C8000910509F029CF30922A0120922901409341
:100C9000230150932401609325017093260101CF15
:100CA000440F551F661F771FE9CFE1E0F0E0FDA379
:100CB000ECA342CF44244394512C042E02C0440C94
:100CC000551C0A94E2F7052C000C66087708840C82
:100CD000951CA61CB71C02964F5F5F4F349645309B
:100CE000510509F04FCFFC01EE0FFF1FEA52FE4FF6
:100CF00040E050E0BA011FA21EA2E080F180A3E014
:100D0000EA1AF108B5E0EB16F10408F052CFE280E0
:100D1000F380A9E1EA1AF108B3E1EB16F10408F453
:100D200045C0E280F380AAE0EA1AF108B9E0EB16C8
:100D3000F10408F03ECF7C01A2E0EA0EF11CAEA166
:100D4000BFA11196BFA3AEA33496189769F5089674
:100D5000011511052105310531F0401751076207D2
:100D6000730709F026CF8A019B010095BFEFCB1ACC
:100D7000DB0AECA1FDA1EC15FD0509F0F9CE8FE031
:100D800090E090932A01809329014093230150938E
:100D90002401609325017093260190922201809294
:100DA00021018EE090E07FCEC701A7CF4424439479
:100DB000512C0EA002C0440C551C0A94E2F7052CDD
:100DC000000C66087708440D551D661D771DB3CFCE
:100DD000880F991F8160245031092C3C4FEF340754
:100DE00009F00DCF2DE030E030932A012093290146
:100DF0009C01207233272150310930932201209326
:100E00002101E5E096958795EA95E1F7B0E0A0E04D
:100E10008093230190932401A0932501B093260190
:100E20008FE090E09093200180931F0181E08093F8
:100E3000000120912301309124014091250150911E
:100E4000260119A28E010F5D1F4FCA01B9012AE0C8
:100E500030E040E050E00E94B30D605DF801629325
:100E60008F01211531054105510579F7309761F062
:100E700001900020E9F73197AF01401B510BB801F9
:100E800081E391E00E94460142E050E063E171E0BD
:100E900081E391E00E9446011092CE011092D301AD
:100EA0001092D20180E090E0892B09F4B3CD0E942A
:100EB000B001882309F4ABCD0E940000A8CD880FB3
:100EC000991F89CF80910001811110C010922A01D1
:100ED000109229018FEF9FEFDC0180932301909303
:100EE0002401A0932501B09326015BCF109200014D
:100EF00099CE8091D8019091D90185974B9750F563
:100F0000EEECF1E082E090E0C12CD12C7601209152
:100F1000D2013091D301AC014F5F5F4F42175307AD
:100F200008F004C124853585275031092730310563
:100F300008F0FCC026853785235131092F30310553
:100F400008F4E6C0268537852A5031092930310555
:100F500008F4E7C08091D2019091D3014A9708F438
:100F600046C02091D6013091D70142E3429FC00193
:100F7000439F900D11248032934008F468CE8091F5
:100F8000D8019091D901C597879788F58091DA01AA
:100F90009091DB01C597879750F5ECEDF1E083E088
:100FA00090E0C12CD12C76012091D2013091D30157
:100FB000AC014F5F5F4F4217530708F0DEC020813E
:100FC00031812C5031092B30310508F0D6C02281F7
:100FD0003381255231092B31310508F4C0C02281FB
:100FE00033812B5031092B30310508F4C1C0809179
:100FF000D2019091D301829740F18091D8019091D4
:10100000D9010697079708F5EEECF1E082E090E051
:1010100040E050E0BA01DC0111962091D2013091FC
:10102000D301A217B30708F0D4C0248535852E510B
:1010300031092731310508F4B7C0248535852C5096
:1010400031092B30310508F4BEC01BA21AA2E1E021
:10105000F0E0FA83E9838091D2019091D3010D975A
:1010600008F4E8C049E753E0BE016E5D7F4FCE0152
:1010700001960E94B400892B09F0DCC049E753E0D7
:10108000BE016E5D7F4FCE0101960E94B4000197B4
:1010900009F0D0C049E753E0BE016E5D7F4FCE013D
:1010A00001960E94B4008C01892B09F0C3C0812CE9
:1010B000912C54012091D2013091D30189819A81E0
:1010C0008217930708F0A7C049E753E0BE016E5DA1
:1010D0007F4FCE0101960E94B4007C0149E753E0A6
:1010E000BE016E5D7F4FCE0101960E94B400F1E01B
:1010F000EF16F10409F086C0892B09F09BC0880C1B
:10110000991CAA1CBB1C689480F80F5F1F4FD2CF9C
:10111000CC0CDD1CEE1CFF1C6894C0F802963496C3
:10112000F6CECC0CDD1CEE1CFF1CF8CF019796957B
:10113000879590932A01809329010C9728F41092A7
:101140002A011092290106CFC0922301D0922401D6
:10115000E0922501F092260184E090E0A4CCCC0C32
:10116000DD1CEE1CFF1C6894C0F8029634961CCF60
:10117000CC0CDD1CEE1CFF1CF8CF019796958795D3
:1011800090932A01809329010C9728F410922A0148
:10119000109229012CCFC0922301D0922401E09219
:1011A0002501F092260162CD440F551F661F771F5F
:1011B0004160268537853496235031092530310525
:1011C00038F4029628CF440F551F661F771FF1CFC2
:1011D000CD0101979695879590932A0180932901D7
:1011E000409728F410922A01109229012ECF4093A3
:1011F00023015093240160932501709326018CE014
:1012000090E051CCEF28B1F40197A1F4880C991C1F
:10121000AA1CBB1C7ACF10932A010093290180924B
:10122000230190922401A0922501B092260181E031
:1012300090E039CC1BA21AA2A1E0B0E0BA83A98346
:1012400080912D0190912E01892B09F47EC0E091AF
:101250002B01F0912C018281938189974E9708F0A0
:1012600074C082E090E09A838983848195810B9792
:101270000A9708F06AC083E090E09A8389834CEB78
:1012800051E0BE016E5D7F4FCE0101960E94B40019
:101290008C01892B09F059C04CEB51E0BE016E5D09
:1012A0007F4FCE0101960E94B400019709F04DC016
:1012B000812C912C540120912D0130912E01898196
:1012C0009A818217930708F0EAC04CEB51E0BE0107
:1012D0006E5D7F4FCE0101960E94B4007C01033009
:1012E000110539F14CEB51E0BE016E5D7F4FCE012F
:1012F00001960E94B4006C010330110561F44CEBBF
:1013000051E0BE016E5D7F4FCE0101960E94B40098
:10131000C816D906D1F4E114F10409F4B3C0EA9473
:10132000EF2899F4CD2889F4880C991CAA1CBB1CC1
:10133000B3C04CEB51E0BE016E5D7F4FCE01019614
:101340000E94B400E816F90669F2E0912B01F091D1
:101350002C0182819381C597879778F58481958147
:101360004B97459750F5DF0116967F0126ECE20E6C
:10137000F11C20E030E040E050E060E070E080E010
:1013800090E00D911C911197085011090930110539
:10139000A0F412960D911C911397015111090D3073
:1013A000110508F48BC012960D911C9113970450EF
:1013B00011090530110508F4A6C08091D201909161
:1013C000D301C99780F1828193818E579109883525
:1013D000910548F584819581CD978B9720F59F01E4
:1013E0002A5F3F4FC12CD12C760143E050E0D90158
:1013F0006D917C9111976A5071096930710598F46B
:1014000012966D917C911397665171096131710546
:1014100008F47DC012966D917C9166507109673019
:10142000710508F4A3C08091D2019091D3018297F5
:1014300009F0A1C0828193810A97099708F09BC0A7
:10144000A091D201B091D301A150B048AA0FBB1F07
:10145000AE0FBF1F8D919C910A97099708F08BC022
:1014600010922A01109229018FEF9FEFDC018093E7
:10147000230190932401A0932501B093260186E0D7
:1014800090E011CBCA94CD2809F05FCF880C991C4D
:10149000AA1CBB1C689480F80F5F1F4F0CCF1093E1
:1014A0002A01009329018092230190922401A092A5
:1014B0002501B092260182E090E0F5CA01E00E9489
:1014C000170E21601496EA16FB0609F05ACF2093F6
:1014D000230130932401409325015093260100E21B
:1014E0000E94320E209321013093220185E090E08A
:1014F0009093200180931F0180E390E090932A0154
:101500008093290196CC01E00E94170EDBCFD70112
:10151000C601880F991FAA1FBB1F6C017D0168942B
:10152000C0F84E5F5F4F2C5F3F4F4B33510509F0C2
:101530005ECF9F012A583F4FD9012D913C912A50EF
:1015400031092930310508F06ECF2CE130E03093BD
:101550002A0120932901C0922301D0922401E09214
:101560002501F09226018AE090E09DCACC0CDD1C9A
:10157000EE1CFF1CD6CF828193818E57910988354E
:10158000910570F58091D2019091D301819740F13E
:1015900084819581CD978B9718F59F012A5F3F4FE6
:1015A000C12CD12C760143E050E0D9016D917C91A2
:1015B00011976A5071096930710590F412966D9116
:1015C0007C9113976651710961317105A8F11296EA
:1015D0006D917C91665071096730710508F459C0AE
:1015E0008281938184549109C19708F089C08091C8
:1015F000D2019091D301049709F050C08481958164
:101600008097479708F04AC0868197810997099784
:1016100008F044C010922A01109229018FEF9FEF29
:10162000DC018093230190932401A0932501B093C2
:10163000260187E090E037CAD701C601880F991FBD
:10164000AA1FBB1F6C017D016894C0F84E5F5F4FFD
:101650002C5F3F4F4332510509F0A7CF9F012A5B12
:101660003F4FD9012D913C912A5031092930310544
:1016700008F0B6CF20E130E030932A012093290111
:10168000C0922301D0922401E0922501F09226011C
:10169000F6CECC0CDD1CEE1CFF1CD8CF8091D20105
:1016A0009091D3018434910558F1848195818154BE
:1016B00091098F9728F59F012A5F3F4FBF016A5715
:1016C0007F4FC12CD12C7601D9014D915C9111979E
:1016D000495051094930510598F412964D915C9149
:1016E0001397465151094131510508F4AAC0129689
:1016F0004D915C91465051094730510508F4BEC0E8
:101700008091D2019091D30186349105C0F18281FC
:1017100093810C970B9798F5848195810997099788
:1017200070F5868197818C974F9748F580859185D4
:1017300089974D9720F59F01265F3F4FC12CD12CF3
:10174000760145E050E0D9016D917C9111976C5084
:1017500071096B30710598F412966D917C91139715
:101760006E5171096731710508F48DC012966D9143
:101770007C91695071096930710508F4B1C080919C
:10178000D2019091D3018835910508F4B8C08281C7
:101790009381845891098C35910508F0B0C08481FB
:1017A0009581815491098F9708F0A9C08F01045C3D
:1017B0001F4F8DE190E030E020E04091D201509148
:1017C000D301445051098417950710F5A8014250E0
:1017D0005109DA014D915C91485051094930510548
:1017E00008F08DC0BC016F5F7F4FD8014D915C91B7
:1017F0001197475051094730510508F476C04D9173
:101800005C91475151094331510508F475C0CB0132
:1018100001979695879590932A01809329018A973D
:1018200008F46DC0C901330FAA0BBB0B80932301D1
:1018300090932401A0932501B093260189E090E0C4
:1018400032C9D701C601880F991FAA1FBB1F6C019F
:101850007D016894C0F82C5F3F4F6217730709F051
:1018600033CF30922A0120922901C0922301D092D5
:101870002401E0922501F0922601DBCECC0CDD1C88
:10188000EE1CFF1CE8CFD701C601880F991FAA1FC5
:10189000BB1F6C017D016894C0F84E5F5F4F2C5FE9
:1018A0003F4F4534510509F04ECF9F0126573F4F1A
:1018B000D9012D913C912C5031092B30310508F084
:1018C0005ECF30922A0120922901C0922301D0924A
:1018D0002401E0922501F092260188E090E0E3C81F
:1018E000CC0CDD1CEE1CFF1CD8CF220F331F216057
:1018F00002960C5F1F4F61CF220F331FF9CF8091EB
:10190000D2019091D301809779F5828193810597D7
:10191000079750F5848195810997099728F59F01CC
:101920002A5F3F4FBF01625C7F4FC12CD12C7601F3
:10193000D9014D915C91119745505109473051059E
:1019400098F412964D915C91139749515109433186
:10195000510508F454C012964D915C9149505109BB
:101960004930510508F46CC08091D2019091D301A7
:101970008436910508F482C05F01B2E0AB0EB11C61
:1019800020E030E040E0D12CE12CF12CC12C712C76
:1019900044244394512C8091D2019091D301B201FF
:1019A0006F5F7F4F6817790708F04FC0D5010D9121
:1019B0001C91B2E04B0E511CD50112968D909C905B
:1019C000C401B8010E94EF0DDB0102511109080D9D
:1019D000191D0F30110508F051C05D2DB7018C2D78
:1019E000972D01E00E94170ED52E7B01C82E792E6F
:1019F000129708F4216084E0A80EB11CCCCFD70167
:101A0000C601880F991FAA1FBB1F6C017D01689436
:101A1000C0F82C5F3F4F6217730709F089CF2EE0A3
:101A200030E030932A0120932901C0922301D09203
:101A30002401E0922501F092260180E190E033C874
:101A4000CC0CDD1CEE1CFF1CE4CFE3E1F0E0F093D6
:101A50002001E0931F015694479450922A0140922E
:101A6000290140932301D0922401E0922501F092B4
:101A700026012093270130932801DBC9C0902D0156
:101A8000D0902E0126E0C216D10408F405CA36967D
:101A900025EC3DE94CE151E873E0E72EF12CAAE09A
:101AA000BA2E80819181DF0114970D911C91B89E0F
:101AB0004001B99E900C1124D80163E0AA0FBB1F0E
:101AC0006A95E1F78A169B0690F0B09EB001B19E30
:101AD000700D1124A3E0880F991FAA95E1F702E089
:101AE00010E06817790728F001E010E002C010E06C
:101AF00000E063E971E080E091E00E94A30D012E17
:101B0000000C220B330BA901980126273727482701
:101B100059278FEFE81AF80A3296EC14FD0409F6FB
:101B200020932301309324014093250150932601F3
:101B300030922A0120922901AFEFBFEFB09320012C
:101B4000A0931F0176C9DB018F939F930E94D50D4F
:101B5000BF91AF91A29F800D911DA39F900DB29F49
:101B6000900D11240895A1E21A2EAA1BBB1BFD01A2
:101B70000DC0AA1FBB1FEE1FFF1FA217B307E4076C
:101B8000F50720F0A21BB30BE40BF50B661F771FC4
:101B9000881F991F1A9469F76095709580959095A4
:101BA0009B01AC01BD01CF0108950E94E00DA59FEE
:101BB000900DB49F900DA49F800D911D1124089548
:101BC000A29FB001B39FC001A39F700D811D11247E
:101BD000911DB29F700D811D1124911D0895AA1BA6
:101BE000BB1B51E107C0AA1FBB1FA617B70710F008
:101BF000A61BB70B881F991F5A95A9F7809590953A
:101C0000BC01CD01089597FB072E16F4009407D070
:101C100077FD09D00E94EF0D07FC05D03EF49095AA
:101C200081959F4F0895709561957F4F0895002E7F
:101C3000083090F0982F872F762F652F542F432F41
:101C4000322F22270850F4CF220F331F441F551F75
:101C5000661F771F881F991F0A95B2F7002D0895F8
:101C600097FD1094002E083098F00850232F342F41
:101C7000452F562F672F782F892F912DF4CF15944C
:101C800097958795779567955795479537952795B4
:101C90000A95AAF71124002D0895EE0FFF1F059055
:0A1CA000F491E02D0994F894FFCFB1
:101CAA000100000000E601460173013302A401822B
:061CBA000196010D0A0075
:00000001FF
